:020000021000EC
:10000000E03F082093010100FB000100E100010036
:10001000090101001901010029010100000000008F
:10002000000000000000000000000000F5AF01002B
:10003000390101000000000085B0010059010100F4
:1000400025B6010025B6010025B6010025B6010040
:1000500025B6010025B6010025B6010025B6010030
:1000600025B6010025B6010025B6010025B6010020
:1000700025B6010025B6010025B6010025B6010010
:1000800025B6010025B6010025B6010025B6010000
:1000900025B6010025B6010025B6010025B60100F0
:1000A00025B6010025B6010025B6010025B60100E0
:1000B00025B6010025B6010025B6010025B60100D0
:1000C00025B6010025B6010025B60100A86802008A
:1000D00000C00720C4010000C8C10720140A0000A6
:1000E00004207146084203D0EFF309800BF0B8BA40
:1000F000EFF308800BF0B4BA704708B5014807F079
:1001000057FEFEE73A62020008B5024807F050FECB
:10011000FEE700BF4562020008B5024807F048FE4E
:10012000FEE700BF5062020008B5024807F040FE3B
:10013000FEE700BF5B62020008B5024807F038FE28
:10014000FEE700BF6862020008B5024807F030FE13
:10015000FEE700BF7662020008B50AF011FF0AF060
:10016000B3FFBDE808400AF01FBF0B4610B55C1A8C
:10017000944204D2441AE45843F8044BF7E710BD04
:1001800003461A1A8A4203D2002243F8042BF8E7E6
:10019000704716480BF01AF814480BF01AF8144C74
:1001A000144B9C4207D294E803000C3454F8042CFE
:1001B000FFF7DBFFF4E7104B9C4206D254F8080B24
:1001C00054F8041CFFF7DCFFF5E70CF0D5FF0BF04B
:1001D00017F801F0B1FE02F03FFE4FF416400BF0AD
:1001E0005DFB064807F0E4FDFEE700BFE03F0820A6
:1001F000CC000100D8000100E00001008A6202008A
:10020000144A70B51368014613B94FF08053136058
:100210001068114B4518114E2B44B34298BF104B38
:100220000C4C96BFC81825602060126898BF18460D
:100230000C4B9A4281BF0C4A064B00201A6039B120
:100240000A4A136801331360094B1860094B19609F
:1002500070BD00BFCCC10720FF7FFFEFFE3F07103E
:10026000DCCB0720FF3F082000400820D4C1072036
:10027000C8C10720D0C107200DF09AB80DF0A0B872
:100280000DF09EB810B504468AB068460DF03CFBF0
:10029000204A214B2260089A2049A260079A626096
:1002A00052B90A681E4882428ABF02F1604202F1D6
:1002B0007042A2F5E82262606268B2F5803F82BFB8
:1002C00002F17042A2F5E82262600022E2600A6850
:1002D00013498A4205D8C3F1405303F50C239B1AF6
:1002E00009E010498A4207D8C3F1804303F580131F
:1002F0009B1A002B00DDE36020460B4BE2611B687C
:10030000A3610A4B1B686361094B1B6823610AB038
:1003100010BD00BFDC0B0000DCCB0720CCC10720E8
:1003200000800010FF3F0820C8C10720D0C107206F
:10033000D4C10720FEE70000014B1860704700BFE2
:10034000DCC10720014B1860704700BFD8C10720EF
:1003500008B502480EF06AFAFEE700BF283702002F
:1003600008B502480EF062FAFEE700BF423702000D
:100370000020704701207047F8B5084B16461A68F0
:100380000F461C4642B10D46EB1BB34204DA23680C
:1003900015F8010B9847F7E73046F8BDDCC1072098
:1003A000F8B5094B0F46186816461C4658B10D465D
:1003B000EB1BB34205DA23680020984705F8010BD0
:1003C000F6E726EAE670F8BDD8C10720704700209E
:1003D00070470000074B1B689A68824207D05A6832
:1003E000824204D0DB681B1A5842584170470120F2
:1003F000704700BF48C107200020704700207047A9
:1004000030B504468DB0A8B3684608F027FF9DF8C4
:100410000030002503F03F0303939DF8013003A84B
:1004200003F03F0304939DF802300B9503F01F0384
:1004300005939DF8043003F01F0306939DF80530E3
:1004400003F00F03013B0793BDF80630C3F30B0322
:10045000A3F26C7308939DF8033003F0070309932C
:10046000BDF80830C3F30B03013B0A930DF0D2F83B
:1004700084E8210000200DB030BD000070B50F4DA4
:100480000F4E2C6814F0010415D128460BF0CCFA5D
:1004900088B14FF40E70FFF7EFFE302380F835324D
:1004A0003A2380F8344280F8363280F837423060A0
:1004B00028460BF0C5FA306870BD00BFFCC10720AC
:1004C000E4C1072070B50F4D0F4E2B6813F00104E7
:1004D00016D128460BF0A8FA90B14FF40E70FFF732
:1004E000CBFE012380F83432312380F835323A23B1
:1004F00080F8363280F83742306028460BF0A0FA98
:10050000306870BDF8C10720E0C107202DE9F04731
:10051000ADF50A7D0F4608F0B0F8041E04DD0AF0C0
:10052000F7FC20460AF084FA0DF1140844462B4DDE
:100530000FCD0FC42B68102123600DEB01020024A6
:100540000AA804940AF09EFA25498146254A3846AD
:1005500009F014F926460AAD4FF0000ACA451ED02C
:100560006B69A34217D1AA69049B164423B1642185
:10057000B3FBF1F3B2FBF3F395F80CE00094A98B15
:100580000293890001910392384617496A6858F826
:100590002E3009F0F3F80AF1010A2035DEE70134C4
:1005A000052CD8D1049B64229E1BB3FBF2F30F49A8
:1005B0000F4AB6FBF3F30096384609F0DFF80AF06D
:1005C00019F9102804D938460A49102209F0D6F83A
:1005D00001200DF50A7DBDE8F08700BF5C37020001
:1005E0007B370200A2370200A7370200C43702009F
:1005F000E3370200EE37020010B50C46ADF5007D82
:1006000068460AF095FF204669464FF0FF3209F030
:100610007FF801200DF5007D10BD000030B50C46BF
:1006200091B02C49054607F034FF002847D008ABAD
:10063000009309AB01930AAB02930BAB03930CAB92
:1006400004932846244906AA07AB07F08AFE072828
:1006500001D000203BE09DF83930069A0DA862F3E6
:1006600003038DF83930079A9DF8383062F304039C
:100670008DF83830089ABDF83A3062F30B03ADF8C4
:100680003A30099A9DF8363062F304038DF836301B
:100690000A9A9DF8353062F305038DF835300B9AD0
:1006A0009DF8343062F305038DF834300C9A9DF8D0
:1006B000373062F302038DF8373008F0F7FD08F0A9
:1006C00091FE06490246204609F058F8012011B073
:1006D00030BD00BF183802001C3802005D5A02000D
:1006E000F7B50D465149044607F0C3FF064640B131
:1006F00007F0F2F928464E494FF0FF3209F008F8AA
:1007000090E020464B4907F0B4FF60B307F008FAC9
:1007100049490246284609F031F807F00DFA4749E1
:100720000246284609F02AF807F000FA4449024632
:10073000284609F023F8304607F0E8F9064601207C
:1007400007F0E4F90446022007F0E0F90746032029
:1007500007F0DCF9009701903A49284632462346D3
:1007600009F00CF85EE02046374907F092FE50B1E0
:1007700001212022204607F02AFF204607F07BFFB8
:1007800007F0F6FA4EE02046304907F082FE0646B2
:1007900020B920462E4907F07CFE88B3012120466F
:1007A000202207F014FF20462A4907F089FE60B98D
:1007B0002046294907F084FE28B92046274907F03A
:1007C0007FFE044602E0032400E002242046314676
:1007D00007F024FA224A234B002E18BF1A463CB1D8
:1007E000012C07D01C491B4B022C18BF0B4602E002
:1007F0001D4B00E0194B28461C4908F0BFFF11E0D3
:10080000204607F038FF1A491A4A0090F7230120C2
:1008100007F012FA204607F02EFF17490246284635
:1008200008F0ACFF012003B0F0BD00BF5738020054
:100830005D380200763802007D38020092380200EE
:10084000A7380200C6380200F6380200FA38020063
:1008500002390200523802004C380200FA4B020002
:100860003D38020035380200463802000B390200DC
:1008700024390200703702005739020030B589B0C0
:1008800004AB002400930D460222194903AB0394E4
:10089000049407F074FD022827D107AB009305AA42
:1008A0000398049906AB05940694079403F04AFE56
:1008B000024638B1049B284600930E49039B08F07A
:1008C0005DFF10E0059A069B002A079C08BF0122E5
:1008D000002B08BF012328460749B4FBF2F2B4FB02
:1008E000F3F308F04BFF012000E0204609B030BDD3
:1008F000924B020065390200843902002DE9F0476D
:100900000C46ADF5866D4A49064607F04CFE49494E
:100910008146304607F070FE3046464907F08CFEAF
:100920000023454920468DF8073008F027FF23684B
:1009300020461B680DF107014FF0FF3298479DF8E4
:100940000730782B6FD0304607F095FE0122014624
:1009500083A805F017FE054640B1304607F08BFE30
:1009600036490246204608F009FF5CE00DF10C0A0A
:1009700029464FF4007250460CF06EFD02950AF0C5
:10098000C3FDA84606460F4683A851464FF40072A1
:1009900002AB05F090FE08B9029B33BB83A806F0BA
:1009A00062F8B9F1000F19D00AF0AEFD4FF47A7277
:1009B00000230CF015F8002305464FF47A723046F8
:1009C00039460CF00DF8281A14BF034601232046BF
:1009D0001B494246B8FBF3F308F0D0FE2046194904
:1009E0004FF0FF3208F094FE1DE09844B9F1000F7B
:1009F000CAD14D46029B9D42236808D21AF80510C1
:100A00005B6820464FF0FF3298470135F2E71B68DC
:100A100020460DF107014FF0FF3298479DF807304F
:100A2000782BB1D1BAE701200DF5866DBDE8F087CE
:100A3000B2390200924B0200BB390200FE390200BB
:100A4000123A0200A03F02002DE9F0470023BEB099
:100A50000C46554905460C9307F00BFE20B9284675
:100A600007F009FE064600E0504E15A8314606F094
:100A7000B2F8054620462DB14D4932462B4608F0C6
:100A80007DFE8CE04B49324608F078FEA8461EAF4A
:100A9000802315A80DA91397149306F0E0F80028F9
:100AA00065D19DF83D30002B61D09DF83C10DDF8FC
:100AB00034C011F0100F09BF0C9B442263440C9307
:100AC0000ABF2D22013508F1010811F0010F14BFF2
:100AD00052232D2311F0020F14BF4FF0480A4FF09C
:100AE0002D0A11F0040F14BF4FF053094FF02D09D8
:100AF00011F0200FBDF8381014BF4FF0410E4FF029
:100B00002D0ECDF808E04FEA612EBDF83A000EF246
:100B1000BC7ECDF80CE0C1F3431E01F01F0105912E
:100B2000C1120691C0F345100DF13D01CDF810E062
:100B3000CDF820C007900991CDF800A0CDF8049021
:100B400020461D4908F01AFE20461C494FF0FF328E
:100B500008F0CAFD394620464FF0FF3208F0C4FDC8
:100B6000204611494FF0FF3208F0D2FD8FE7009583
:100B70003EAD55F8C83D12494246204608F0FEFDFC
:100B8000304629460BAA06F099F840B90B9B20463F
:100B90009A780C9B0B495A43520808F0EFFD01204C
:100BA0003EB0BDE8F08700BFA03F02002D3A020032
:100BB000303A0200543A02006F3A02009C3A0200B6
:100BC000A03A0200CA3A020070B50D46064607F088
:100BD00052FD0446304607F04EFD06F031F9064A54
:100BE000064B0749002818BF13462846224608F03E
:100BF000C5FD012070BD00BF8A3C0200803C0200A0
:100C0000DE3A020070B50D46064607F034FD044694
:100C1000304607F030FD06F0B6F8064A064B0749A5
:100C2000002818BF13462846224608F0A7FD0120D9
:100C300070BD00BF8A3C0200803C0200FA3A02000C
:100C40007FB503AB002400930E4602220F4902AB8E
:100C50000294039407F093FB022814D1029D039C95
:100C60002846214606F096F9094B0A492A460028EB
:100C70000CBF08461846084900902346304608F045
:100C80007DFD012000E0204604B070BD924B0200C3
:100C90008A3C0200803C02000C3B020030B5ADF5FE
:100CA0000D7D0C46054607F0E6FC0A22014603A826
:100CB00005F068FC40B1284607F0DDFC1F490246FC
:100CC000204608F05BFD35E08DF8070002901C49D6
:100CD00020467E2242F2107308F050FD204619494A
:100CE00008F04CFD236820461B680DF1070142F215
:100CF0001072984718B19DF807307E2B03D103A8D6
:100D000005F0B1FE16E003A80DF10701012202ABC8
:100D100005F08FFD10B9029B012B02D020460A4935
:100D2000DEE7236820465B689DF807104FF0FF322E
:100D30009847D7E701200DF50D7D30BD243B02001B
:100D40004B3B0200833B0200A33B02002DE9F0472E
:100D5000ADF5407D002304AC236003930D46009461
:100D60004249022203AB07F00AFB022806D02846BC
:100D70003F494FF0FF3208F0CBFC71E017A8216823
:100D800005F029FF18B128463A49226807E017A85C
:100D9000039905F020FF28B128463749039A08F047
:100DA000EDFC5DE040A94FF4807205A807F0A8FAB9
:100DB0000AA880A94FF4807207F0A2FA20AB15931D
:100DC00017A880230FA9169305F049FF002841D1E9
:100DD0009DF84530002B3DD09DF8443003F01003C2
:100DE00003F0FF06002BE9D1039A0DF1450305A896
:100DF000224907F08AFC22680DF145031F490AA821
:100E000007F083FC05A807F036FC80460AA807F027
:100E100032FC074605A8DDF83C9007F02CFC824622
:100E20000AA807F028FC3246014633460096504691
:100E300003F088FB124A134BCDF8009000280CBF3A
:100E40001846104610490190424628463B4608F095
:100E500095FCB3E70AA807F069FA05A807F066FA57
:100E600001200DF5407DBDE8F08700BF924B0200E8
:100E7000CA3B02000F3C0200343C0200543C02001A
:100E80008A3C0200803C02005A3C0200F8B50D4644
:100E90002349064607F0EDFB0446074628B1FFF755
:100EA00011FB002100F235200AE030461D4907F011
:100EB000E0FB044650B1FFF7E1FA394600F2352075
:100EC0000A4606F0F7F81849184B1EE03046184954
:100ED00007F0CFFB044648B1FFF7F4FA012200F215
:100EE000352105F011FB1349134B0EE03046134931
:100EF00007F0BFFB044680B1FFF7C0FA012200F201
:100F0000352105F001FB0E490E4B002808BF19469C
:100F10004FF0FF32284608F0FBFB2046F8BD00BF2B
:100F2000E13C0200EB3C0200833C0200793C020001
:100F3000F83C0200A03C0200903C0200013D02008F
:100F4000C53C0200B73C020008B508464FF0FF322E
:100F5000084908F0DDFB06F0BFFD4FF4FA6009F028
:100F600067FD4FF08043AA221A7200221A700120F6
:100F700008BD00BF0D3D020010B501200C4607F072
:100F8000B3F938B100210A460B4609F0CBF82046E8
:100F9000044901E0204604494FF0FF3208F0B8FB55
:100FA000012010BD1E3D0200343D020038B5064C44
:100FB000236833B91C20FFF75FF9054608F056F89F
:100FC0002560206838BD00BFF0C107202DE9F04F33
:100FD0000D46C7B05549814607F072FA544982461A
:100FE000484607F06DFA53498346484607F068FAC9
:100FF00000270DF1100805AE044602970397C8F8C4
:1010000000703760BAF1000F45D0009648464A4953
:1010100002AA03AB07F0A5F9012807DC28464749D7
:101020004FF0FF3208F074FB38467CE00DF11808F1
:101030004FF480744046394622460CF00DFA33686E
:1010400013B90123336003E0B3F5807F88BF3460B8
:10105000FFF7ACFF33689DF808109DF80C20009353
:10106000434608F050FC364A364B3749002808BF43
:1010700013462846029A08F081FB002433689C42FC
:101080004ED2039A18F80430224428462F4908F01B
:1010900075FB0134F2E7BBF1000F2CD0CDF80080D6
:1010A00048462B4902AA03AB07F05BF9032807D097
:1010B000284628494FF0FF3208F02AFB504632E01C
:1010C000FFF774FF9DF808109DF80C2098F8003089
:1010D00008F02EFC48B1039B284600931E49D8F81F
:1010E0000020029B08F04AFB1AE028461B49029A9E
:1010F00008F044FB14E0A8B102230293029BFE2BEC
:1011000010DCFFF753FF9DF8081008F01CFC20B11D
:1011100028461349029A08F031FB029B0233ECE7A0
:10112000012000E0204647B0BDE8F08FB54C02003A
:101130006D3D0200733D02007C3D02008B3D0200CC
:101140008A3C0200803C0200AC3D0200D03D02001F
:10115000E03D0200F03D0200173E0200313E020079
:101160004E3E02002DE9F04F5F4C91B023680E46D1
:1011700033B92C20FFF780F8054608F00BFA2560FC
:101180002768FFF77BF90DF1400B00244BF80C4D5D
:1011900000F2352059460CAA05F090FD48B90C9A8A
:1011A0000D9C95699378023D5C435D4364086D082E
:1011B00000E025464D4B1A6898467AB90C20FFF797
:1011C0005BF88146FFF7F2FE902389F80430002394
:1011D000C9F80000C9F80830C8F80090D8F8000035
:1011E00003F09EF980460BF0B5FB82460BF00EFA39
:1011F000014640460BF054F93D490BF05BFA0BF009
:10120000A9FB8146584609F0F1FF04F0D7F850B326
:1012100008F062F904F0BCF80023024698469B46A9
:1012200093420DD018460B920A9304F015F90A9BCD
:10123000584588BF98460B9A88BF83460133EFE72D
:1012400008F062F9642303FB0BF32A4A3046B3FB30
:10125000F2F3C3F164038DE80809274922462B46BF
:1012600008F08CFA05E03046244922462B4608F067
:1012700085FA234C23681BB90120FEF7FDFF20608F
:10128000206803F011F9044608F0ACF89DF83930F5
:10129000019003F00F0302939DF83830009403F09F
:1012A0001F030393BDF83A303046C3F30B03049396
:1012B0009DF83630134903F01F0305939DF8353030
:1012C000524603F03F0306939DF8343003F03F038A
:1012D0000793BB8C0893FB8C09934B4608F04EFA9E
:1012E000012011B0BDE8F08FF4C10720E8C107204C
:1012F00000002041A0860100743E0200A83E0200CA
:10130000ECC10720B63E020070B5ADF50A7D05467A
:101310000C4607F01DF80B2803DD204620490C225F
:1013200037E0284607F0A7F90122014601A805F099
:1013300029F9064638BB01A805F095FB284607F0B9
:101340009AF918490246049B204608F017FA2368C8
:1013500020469B6898470A2009F06AFB09F06AFE5C
:10136000284607F088F902460F4B0068516803C30E
:1013700090680E4A186043F80C2C4FF08043AA2264
:101380001A721E7007E0284607F075F902462046DB
:10139000074908F0F3F901200DF50A7D70BD00BF83
:1013A000333F02005A3F0200484002400DD0ADDEFC
:1013B000A13F0200F0B5404CA5B023680646DB070C
:1013C0000D460CD420460AF02FFB40B14FF480604C
:1013D0000BF0EEFF394B186020460AF031FB304627
:1013E000374907F06DF80746044610B30021802204
:1013F00004A80CF031F800230293039303AB00938D
:10140000304904AA02AB304606F0ABFF2B4A029BE0
:10141000116804A8039A13B903F034F901E003F04A
:1014200054F90346284A29492846002B18BF11467B
:1014300037E03046264907F043F80746002838D001
:10144000304604AB234903AA039404948DF8084062
:1014500006F087FF039E049B3344B3F5806F0DDDD8
:1014600028461D494FF4806221E0144B9DF8082066
:101470001B689A559DF8083001361C44039B049A5A
:10148000F31A934210DAB6F5806F0DDA2B6828460E
:101490001B6802A94FF4FA6298470028E5D1284654
:1014A0000E4908F06BF904E0284622460C4908F082
:1014B00065F9384625B0F0BD04C2072000C20720F8
:1014C000CC3F0200D33F0200BA3F0200B63F020009
:1014D000E33F0200EA3F0200F43F0200184002002E
:1014E0002840020030B50C46054687B00A4908F08E
:1014F00045F9A17A62880091E17A23880191E18817
:101500002846029121890391A1880491034908F09A
:1015100035F907B030BD00BF394002006F4002000E
:101520001FB501A80C4602F0F1FA01F0DBFF01A99A
:1015300002462046FFF7D6FF012004B010BD000090
:101540002DE9F0418CB003AB002400930E46154604
:101550003A49022202AB0294039406F010FFA04223
:1015600039DD02980BF019FD5FFA80F8039818B185
:101570000DF037FCC4B200E0044604A8002102F0DC
:101580004DFE30B130462E494FF0FF3208F0C0F822
:10159000F3E7003518BF0125022300934046294692
:1015A000039A234602F0D4F8074638B93046254955
:1015B0004FF0FF3208F0ACF801273BE0002D39D0A6
:1015C00004A84FF47A7102F033FE70B39DF8103026
:1015D00043452AD101E027462CE09DF817300C2B1B
:1015E00004D1304606A94246FFF77CFF3046B4B925
:1015F000154908F0C3F89DF817309C420ADA3368A1
:1016000004AA2244117A5B6830464FF0FF329847B3
:101610000134F0E730460D4908F0B0F80AE00C4913
:101620004FF0FF3208F074F804E030460949029A9E
:1016300008F0A4F838460CB0BDE8F081924B0200E7
:101640008D400200AF400200D740020084480200F3
:10165000EB4002000841020038B50D4607F00DF8D6
:101660000446C0B201F032FF054A064B0649002885
:1016700008BF13462846224608F080F8012038BDEE
:101680002E410200803C02003541020037B50C4675
:1016900002F0A0F805461649204608F06FF81549F3
:1016A00020462A4608F06AF82046114908F066F8F4
:1016B000D5B11149204608F061F820460C4908F0E0
:1016C0005DF80025E8B202F06FF8013540B181788D
:1016D0000278437800912046084908F04FF8F1E776
:1016E0002046034908F04AF8012003B030BD00BF8E
:1016F0004C41020067410200814102009C4102000E
:1017000030B58BB00AAA4FF47A730C4642F8243DE8
:10171000174906F026FE002502A8019902F07EFD79
:10172000D8B1204613499DF8082008F027F8002575
:101730009DF80F309D420ADA236802AA2A44117AE2
:101740005B6820464FF0FF3298470135F0E72046AE
:10175000094908F013F80125DEE72DB920460749AD
:101760004FF0FF3207F0D4FF01200BB030BD00BFB7
:10177000F13F0200B74102009F3F0200CE4102004C
:101780002DE9F3473C4C074626688946002E62D176
:101790002420FEF771FD0423054680E8480086609A
:1017A000C660202130460DF0ABF8AE68E8604FEA25
:1017B0008608072E0ED81020FEF75EFD8246002117
:1017C00010220BF049FEEB68013643F808A008F13F
:1017D0000408EEE7002608234FF001086B6085F847
:1017E000208028462549264A264B0096256005F08C
:1017F000EFFE20682449254A254B009605F0E8FEB7
:1018000020682449244A254B009605F0E1FE206813
:101810002349244A244B009605F0DAFE2068234928
:10182000234A244B009605F0D3FE20682249234A20
:10183000234BCDF8008005F0CBFE20681E49214ADD
:10184000214B009605F0C4FE009620681F49204AEF
:10185000204B05F0BDFE38461F4906F00AFF18B1BF
:1018600038461E4906F0BFFF39464A46206802B096
:10187000BDE8F04705F08EBF0CC207202D1B01000C
:10188000DF410200E641020001190100204202008E
:1018900029420200011701007D420200804202003D
:1018A0005916010064490200A34202008D1601008E
:1018B000E9420200CD42020041150100324302001C
:1018C000F0420200314302003643020021150100BC
:1018D000764302005B430200A03F02007C4302000B
:1018E00038B5064C236833B95820FEF7C5FC0546C9
:1018F00007F094FC2560206838BD00BF08C20720AF
:101900002DE9F04F0446ADF2DC5D80220DF1B40903
:1019100088460DA800210BF09FFD0021802248463B
:101920000BF09AFD06AE0023336020460096754901
:101930000DAA4B4606F015FD032801D00020DDE07E
:10194000EDA80DA9012204F01DFE05460028F5D1E1
:10195000FFF7C6FF33684DA980F853308022044654
:1019600008A88DF81750079506F0CAFCCDF800902E
:10197000404665490DAA336807F000FF2F46EDA8E1
:101980006DA94FF4007207AB04F095FE38B1EDA8D5
:1019900005F069F808A806F0C9FC0120AEE0079B35
:1019A000002BF4D06E1C5949079A204607F0E6FE3A
:1019B000236820469B6898476DAB9B46751E4FF089
:1019C000000A0799C3EB0B028A4222680FD20393E5
:1019D000CDF808B0D2F804C020464FF0FF321BF813
:1019E000011BE047029B1A78039B9244E9E7936846
:1019F0002046984708A806F03EFE834608A806F051
:101A0000AAFC4FF47A7302465946204607F08EFE30
:101A10000121202208A806F0DAFD08A806F02DFE14
:101A2000504520D008A806F028FE39490346524602
:101A3000404607F0A3FE2046364907F09FFE236884
:101A400020469B689847236820461B680DF11701C4
:101A50004FF47A7298470028F5D1022E06F101035F
:101A600095D81E469FE7079B2B494A460093204680
:101A70003B4607F083FE236820469B68984708A8EA
:101A800006F0F9FD824608A806F065FC51460246BC
:101A90004FF47A73204607F049FE08A81F4906F064
:101AA000E6FCD0B908A806F0E6FD1D49024640460E
:101AB00007F064FE2046174907F060FE23682046C1
:101AC0009B689847236820461B680DF117014FF467
:101AD0007A7298470028F5D1BFE708A8114906F0A7
:101AE00082FE079B40461F440F493A46F09B07F091
:101AF00045FE002D3FF443AF013D40E70DF2DC5DB4
:101B0000BDE8F08F8143020090430200A74302002A
:101B1000B94302009F3F0200E0430200F643020087
:101B2000F9430200A03F0200314402002DE9F041D8
:101B3000074686B006AA002442F80C4D0E463C49E2
:101B400006F00FFC38460121202206F040FD039BE1
:101B5000002B63D0384606F0FBFB00285ED0FFF771
:101B6000BFFE05468DF80B402B6828461B680DF11B
:101B70000B010522984704460028F5D1039B3846FF
:101B800085F8533006F077FD274601464FF0FF32C7
:101B9000284607F0BDFD2B6828469B689847254BD3
:101BA0000594186804902B6828461B680DF10B01FA
:101BB0004FF47A72984778B10DF11501032205A808
:101BC0000BF02FFC9DF80B8005A804A904228DF8CA
:101BD00017800BF00BFC38B91822B7FBF2F302FBAD
:101BE000137262B101330AE0336830465B684146E4
:101BF0000122013798470028D5D10134D3E7304678
:101C00000D493A4607F0BAFD74B16123009330469E
:101C10000A4922460A4B07F0B1FD05E03046094962
:101C20004FF0FF3207F074FD012006B0BDE8F081EF
:101C3000F13F0200354002003D44020064440200CE
:101C40001D45020059450200014B01221A707047E0
:101C500010C2072070470000F0B587B009F054FCAF
:101C60004B4B4FF4007200934A4B064601930F46CC
:101C700000206421134606F005FF044646480CF098
:101C8000D5FD4CB9454B032000934549454A3323C4
:101C900005F0D2FF204678E043480CF051FD0221C8
:101CA000002007F067F80E21ADF81400002007F0BF
:101CB00061F80024224623460221ADF81600009464
:101CC00001940294039405A8384D07F06DF820465E
:101CD00007F044F805232B71AB78214664F3030326
:101CE000AB70EB78324864F3C713EB706C71AC7176
:101CF000EC712C726C72AC72EC722C736C73AC73F2
:101D0000EC730CF01DFD294620460A2206F0D2FF96
:101D1000044628480CF014FD254821460CF010FD1F
:101D20000CB1254808E0254B032000931C491D4AAF
:101D3000552305F081FF22480CF002FD304639465C
:101D40004FF47A7200230AF04BFE10F57A7441F1D9
:101D5000000509F0D9FB4FF47A7200230AF040FE27
:101D6000A94208BFA042F4D3002016490A2206F077
:101D70004FFF044614480CF0E3FC14B113480CF078
:101D8000DFFC13480CF052FD012007B0F0BD00BF8E
:101D9000491C0100551C01009F450200E24502005C
:101DA000B0450200854502001946020011C2072015
:101DB0002E460200434602005346020070460200CF
:101DC0009546020021C20720D7460200AB4602001A
:101DD000BE46020001480CF029BD00BFE7460200E4
:101DE00038B504460D4609F007FD074BB0FBF3F08C
:101DF0000223B0FBF3F2954201D3236138BDB3F562
:101E0000807FFAD00233F4E740420F007FB500F242
:101E100035260C460122314604F076FB054650BBC0
:101E200004A941F8040D02AA304604F047FF00BBA4
:101E3000029A039B9078926903FB00F1023A4243B5
:101E40005208B2F5004F104834BF01254FF48065A9
:101E50004FEA51010D4BB1FBF5F128BF0346B2FB30
:101E6000F5F28DE80A000A4821460CF069FC0120D1
:101E700008E0084B00E0084B084821462A460CF0D1
:101E80005FFC002004B070BD25470200224702001D
:101E90002F470200284702002C4702005D4702003E
:101EA00038B5074C23684BB90820FEF7E5F905461D
:101EB000FFF77CF8402328602B712560206838BD2F
:101EC0003CC2072038B5054C256825B90120FEF72E
:101ED000D3F905702060206838BD00BF38C20720E4
:101EE00038B5084C23685BB90C20FEF7C5F90546E8
:101EF000FFF75CF890232B7100232860AB6025600E
:101F0000206838BDE8C1072010B5044C23681BB910
:101F10000120FEF7B1F92060206810BDECC1072058
:101F200010B5044C23681BB90120FEF7A5F9206009
:101F3000206810BD34C20720AD49AE4A4023F0B539
:101F40008B614FF0007393614FF480338B61AA4B28
:101F5000ADF5057D1868072520F0F00018601868B9
:101F6000022440F050001860186820F440501860B7
:101F7000086840F040000860186820F47C20186071
:101F8000186840F428201860186820F47000186061
:101F9000186840F420001860186820F0404018606D
:101FA000186840F000401860586820F03C00586005
:101FB000586840F028005860586820F003005860C6
:101FC000086840F480300860586820F44050586039
:101FD000086820F480000860D96821F44031D96095
:101FE000116841F080711160596821F440215960F5
:101FF000596841F48021596098688049014099608E
:10200000116841F4897141F001011160996821F46E
:1020100070119960996821F070419960116821F4FC
:1020200046411160D96821F03001D960D96841F08A
:102030003001D960D96821F47011D960136843F078
:1020400000731360136823F08063136006F024FCB0
:102050000A20012109F0F0F90A20012109F004FA0F
:102060006748012105604460FFF7BAFE07F0C4F934
:102070001520012109F0E0F91520012109F0F4F9FA
:102080006048012105604460FFF7AAFEFEF78EFF5D
:10209000642106F0B5FF10B95B480CF0C7FB09F0EE
:1020A00009FA02F095F810B958480CF0BFFB4FF44C
:1020B000FA6006F0AFFBFFF78DFE09F09DFB0AF01A
:1020C000A1FA53490AF0AAFB0AF022F902460B468C
:1020D00050480CF035FB09F083F8052804AC14D106
:1020E000002363604C4B1B682360FFF773FE4B4B70
:1020F0004B48D96C1A6D5B6D00940CF021FBFFF717
:1021000069FE41F2883006F085FBFEF7B7F94549D4
:10211000FFF77CFE054668BB43480CF011FB03F05B
:10212000C5F9FEF7ABF929462A4600F2352004F03E
:10213000C1FF3E4B3E4A00280CBF104618460CF02B
:1021400075FBFEF79BF93749FFF760FE90B93948F8
:102150000CF06CFB03F02CF9014637480CF0F0FA58
:1021600003F016F9054603F023F905FB00F13348A7
:102170000CF0E6FA324E334F336813F0010516D1F6
:10218000304609F051FC90B14FF40E70FEF774F830
:10219000012380F83432312380F835323A2380F835
:1021A000363280F837523860304609F049FC26490B
:1021B0003868264DFFF72AFE11481821FFF710FE58
:1021C000FFF708FE2B684BB90820FEF755F80646C6
:1021D000FEF7ECFE3823306033712E60286802F081
:1021E00076F80546B0BB1A480CF020FB33E000BF80
:1021F00000C0092020C0092000C00240F0FCFCFF04
:102200000000034000800840A1470200D2470200BE
:1022100000247449F7470200444002400040024055
:102220000F480200874802008F48020095470200CD
:1022300090470200CC480200EB480200FA48020036
:10224000F8C10720E0C10720AF3C020044C20720CC
:10225000154902000125FFF743FE02F037F9064653
:1022600018B972480CF0E2FA3546FFF719FE02F091
:10227000AFF8064618B96E480CF0D8FA35466D4EE0
:1022800033681BB90120FDF7F7FF3060306802F0BA
:102290006DF8FFF739FE02F005F9FFF713FE02F0C3
:1022A000D1F8FFF73DFE02F002F9FFF70BFE002127
:1022B00002F0CAF88DB9FFF78DFDFFF7F1FD2D2172
:1022C00002F06EF8FFF7ECFD2D2102F075F8FFF734
:1022D000F9FDFF2102F0B8F80CE0FFF7E1FD05463B
:1022E000FFF7FEFD02F01CF90AF05AFBC1B22846C6
:1022F00002F08AF80021102220460BF0ADF84E487B
:1023000021460F22002302F09AF980B920460AF0F4
:1023100044FEC5B2284601F0D9F8484A484B294640
:10232000002808BF13464748434A0CF009FAFFF754
:10233000EBFD02F0B9F8054600200DF011FD284430
:102340000CF07CFA4FF40072002120460BF084F868
:10235000204609F0EDF821463B480CF0F1F9FFF773
:1023600039FD8022002120460BF076F8204602F04D
:10237000FBFF2278FF2A04D0214634480CF0E0F914
:1023800029E0FFF7CDFD02F095F809281DD130486E
:102390000CF04CFA21462F480CF084FB21462E48C5
:1023A0000CF0CEF92D480CF041FA00232C4803A97B
:1023B00003930CF077FB9DF80C30592B03D120468A
:1023C00002F0B0FF07E0274803E027480CF02EFAA0
:1023D00026480CF02BFA4FF208031C684FF20C034E
:1023E0001D684FF210031E684FF2040319684FF482
:1023F00070431A68A40AAD0A1D480CF0A1F92246E0
:1024000029461C480CF09CF931461B480CF098F901
:10241000FFF7E0FC012005F095FB18480CF006FAE8
:10242000FFF7D8FC0DF5057DF0BD00BF3049020077
:102430004A49020040C20720634902002E410200BF
:102440009B470200694902005D5A02009D49020053
:10245000B9490200DB490200E0490200FB490200E1
:102460003E4A0200424A02005A4A0200884A0200DA
:10247000BA4A0200E64A0200134B0200304B020047
:1024800001207047012070470120704710B5044CAF
:1024900023681BB90120FDF7EFFE2060206810BD06
:1024A00040C2072001207047F8B504460E46C068B8
:1024B00089000CF025FAA568E060AF00B5420BD2A8
:1024C0000C20FDF7D9FE0023036043600372E3682C
:1024D0000135D8510437F1E76660F8BD38B50446D8
:1024E0000F4B00250360636DE06D9D4205D250F8EF
:1024F0002500FDF7C3FE0135F5E708B1FDF7C0FE85
:102500000025A36B206C9D4205D250F82500FDF7F5
:10251000B5FE0135F5E708B1FDF7B2FE204638BD3E
:10252000704B020010B50446FFF7D8FF2046FDF7B8
:10253000A5FE204610BD0000F7B5044600250B4659
:102540004FF480520095254905F0B4FE244B042633
:1025500023606663A563E563256404F1340002210A
:10256000FFF7A2FF26656565A565E565284660213C
:102570000CF0C6F9A56DE065AE00172D0CD8102043
:10258000FDF77AFE0746002110220AF065FFE36D91
:1025900001359F510436F0E718236365012384F861
:1025A0007030104E0023A4F87430A4F87630A3677E
:1025B000002200230027C4E92023C4E9226708F091
:1025C000A3FF4FF47A7200230AF00AFA80197941C6
:1025D000C4E92001204603B0F0BD00BF884B0200D3
:1025E000704B0200C0D401002DE9F04191E8600079
:1025F0000F7A14468FB1082A23D1304605F0A8FE81
:1026000000281CDD284614494FF0FF3207F06CF813
:102610003046012105F09BFF08E00A2A19D00D2A57
:1026200012D03046214606F0B3F897B12B68284601
:102630002146BDE8F0415B684FF0FF3218470724A0
:10264000F4E70A2A02D1F1E7BDE8F0810D2AE8D1CA
:10265000ECE7BDE8F08100BF914B0200F8B50446FD
:10266000142015460F46FDF707FE8021064606F0AA
:102670003FF8A36BE26B9A4206D3616B591803D201
:1026800004F13400FFF710FFE36B226C591C52F881
:102690002330E1631F605E601D72F8BD2DE9F043D9
:1026A000CF6B85B006460D4601AC4FB94FF47A703A
:1026B00008F0BEF9204639460C220AF0CDFE47E06C
:1026C0000B6C1B6893E8070084E8070000238DF873
:1026D000033008F077F880460027EB6B9F4263D207
:1026E0002B6C4FEA870953F827301868037C33B105
:1026F00003680DF103011B680022984708B90137F0
:10270000EBE7EB6B9F422BD22B6C53F8093093E82D
:10271000070084E807009DF8032028462146FFF7BC
:1027200063FF08F0F1FE4FF47A7200230AF058F9C3
:10273000D5E9222380185941C5E92001029805F006
:1027400007FE0746029805F006FE013887420ADBBD
:1027500094E8070086E80700304605B0BDE8F0833E
:1027600005F14403D3E7D5E92223134324D008F02D
:10277000CBFE4FF47A7200230AF032F9D5E9202318
:10278000994208BF904217D308F0BEFE4FF47A7208
:1027900000230AF025F9D5E92223801859410023A6
:1027A000C5E920010193D3E708F00CF84045C5D1F5
:1027B000022008F03DF9C1E79DF803300A2B88D1CB
:1027C000C6E70000F0B5064685B020480BF0B8FF1C
:1027D00001A83146FFF762FF019C1CB91C480CF0B0
:1027E00025F830E0029F384605F0B2FD00282ADDCA
:1027F00008F08AFE0546F8B1B6F8743006F15000CC
:102800000133A6F874303946224604F0C3FF114B59
:1028100000261868009023681DF806105B682046A3
:102820004FF0FF3201369847042EF4D108F06CFEC9
:10283000411B09480BF084FF384605F08EFD2368E4
:1028400020469B689847012005B0F0BD944B0200DC
:10285000A03F02005D4B02009A4B020038B5064CC7
:10286000236833B92C20FDF707FD054606F092FEDC
:102870002560206838BD00BFF4C1072010B50446AC
:10288000FFF7ECFF03682146BDE810405B684FF09E
:10289000FF32184713B5002302AC04F8013DFFF7DF
:1028A000DDFF036821461B684FF0FF3298479DF813
:1028B000070002B010BD00002DE9F04100F1500406
:1028C0008AB000250746009520465B495B4A5C4B71
:1028D00004F07EFE009520465A495B4A5B4B04F0AB
:1028E00077FE009520465A495A4A5B4B04F070FE29
:1028F0000095204659495A4A5A4B04F069FE009502
:1029000020465949594A5A4B04F062FE0095204628
:102910005849594A594B04F05BFE009520465849E6
:10292000584A594B04F054FE009520465749584ADE
:10293000584B04F04DFE009520465749574A584BD6
:1029400004F046FE009520465649574A574B04F07E
:102950003FFE009520465649564A574B04F038FE34
:10296000009520465549564A564B04F031FE0095D5
:1029700020465549554A564B04F02AFE00952046FC
:102980005449554A554B04F023FE009520465449BE
:10299000544A554B04F01CFE009520465349544AB6
:1029A000544B04F015FE009520465349534A544BAE
:1029B00004F00EFE009520465249534A534B04F052
:1029C00007FE009520465249524A534B04F000FE40
:1029D000009520465149524A524B04F0F9FDFFF749
:1029E0003DFF4FF480734FF416412022054606F058
:1029F000B1FD804601262E744B48FDF7A3FC4B48E1
:102A0000FDF79AFC384629463246FFF727FE03A910
:102A1000082205A805F074FC05A8454905F0E3FE69
:102A200005A92A46204604F0B5FE05A805F07EFC5F
:102A300040460AB0BDE8F0810D050100FA4B0200E6
:102A4000B04B0200F9050100E74B0200EF4B02001A
:102A5000651101000D4C0200FF4B02001D06010034
:102A6000554C0200144C0200FD0801005A4C0200B3
:102A70005E4C02007D080100FD4C0200BA4C0200D1
:102A80004D0D0100FC4C0200004D0200490A0100FE
:102A90004B4D02004E4D0200C90B01007C4D02005F
:102AA000824D0200410C0100A74D0200AA4D020018
:102AB0009D0C010061660200D74D0200050C01006B
:102AC000FC4D0200FF4D0200CD0F0100224E02001E
:102AD000264E02008D0E0100D84E0200E04E02008C
:102AE000490F0100234F02002A4F0200E1060100B6
:102AF0003D4F0200414F0200790F01003E5002009D
:102B00004450020081170100EE4702006C500200A1
:102B1000B51301008A51020096500200091301000A
:102B2000F23C020053510200952801007D2801006B
:102B30007C43020010B5074C207828B1002006F035
:102B40000DF90023237010BD03490246BDE8104073
:102B500006F0B0B810C207202AC8072070B51D4D76
:102B60002C7894B91C4E20463146224606F050F887
:102B700070B373680E2B2BD1337A012B28D1174AEF
:102B80002B701370164B1C6070BD144A1378FBB188
:102B9000134914480B680078B3EB400F15DA12485C
:102BA000124A50F82340126814605C1C50F824004C
:102BB0000233506000200B6002460D4906F07AF89F
:102BC000BDE870400B480BF0BBBD002313702B70A9
:102BD00070BD00BF59C2072048C2072058C2072055
:102BE0005CC2072008C8072074C6072004C8072055
:102BF0007AC20720B051020070477047704700004A
:102C000008B5064B002118684FF0FF320B4607F05D
:102C10005DFB10B1FFF78EFFF3E708BD64C207202C
:102C200008B5064B002158684FF0FF320B4607F0FD
:102C30004DFB10B1FFF792FFF3E708BD64C2072018
:102C400008B5064B002198684FF0FF320B4607F09D
:102C50003DFB10B1FFF7D0FFF3E708BD64C20720CA
:102C600008B5064B0021D8684FF0FF320B4607F03D
:102C70002DFB10B1FFF7C1FFF3E708BD64C20720C9
:102C800010B50446FDF7FAFA204610BDF0B5064629
:102C900085B0002400942B494FF4C0620D2305F049
:102CA00009FB294B01253360F56121463462284632
:102CB000032207F006FA254F2146386003222846F2
:102CC00007F0FFF9214678600322284607F0F9F95A
:102CD0002146B8600322284607F0F3F91C4BF86040
:102CE0001D680523C5F38F058DE818002A46234685
:102CF000029403941749184807F056FC06238DE800
:102D000018002A462346029403941449144807F0F5
:102D10004BFC07238DE818002A46234602940394AF
:102D20001049114807F040FC08238DE81800029470
:102D300003940E492A4623460D4807F035FC3046D9
:102D400005B0F0BDD45102007852020064C20720E1
:102D5000AC510200DF510200012C0100E3510200DE
:102D6000212C0100E8510200412C0100EE5102002B
:102D7000612C010070B50D461A4B002453F82160F8
:102D800019494B5D0133DBB2934202D04B552046CB
:102D900070BD4C55304621462246234607F096FA30
:102DA0000146B8B1114B53F8255028460BF03EFDB3
:102DB00028460CF016F82346024629460C4801F036
:102DC00084FC0C4A0C4B9A644FF08043AA221A727E
:102DD0001C7004E030460A460B4607F0A3F90120B8
:102DE00070BD00BF64C2072060C20720C45102004A
:102DF000F5510200EFBEADDE0040024010B50321E8
:102E000001220446FFF7B6FF80B1204602210A22C4
:102E1000FFF7B0FF50B1204601210A22FFF7AAFFB9
:102E200020B1204600210A22FFF7A4FF012010BD97
:102E30007047704708B501F005FA012008BD10B5CC
:102E40000446FDF71BFA204610BD10B50446FDF7F9
:102E500015FA204610BD000073B5FEF7FDFE204DAB
:102E600028709020FDF708FA04460321FFF764FB61
:102E7000204605F0EFF93420FDF7FEF90646002460
:102E800018494FF400720423009405F013FA164B0E
:102E90003046336005F0DEF93420FDF7EDF90646E3
:102EA00012494FF47A720423009405F003FA104B90
:102EB0003046336005F0CEF93420FDF7DDF90646E3
:102EC000FFF7E4FE304605F0C5F92B781BB120462C
:102ED000214605F0CDF94FF0FF3002B070BD00BFC4
:102EE00029C80720EE470200D05202000853020012
:102EF000F052020038B5064C236833B92C20FDF798
:102F0000BBF9054606F0CEFB2560206838BD00BF42
:102F100074C20720F7B5494CFFF7ECFF21684FF466
:102F20002F724FF0FF3306F001FC002800F0838081
:102F300027680023F95C424A202903D03039D15454
:102F40000133F7E7022B137808BF52783D4E04BFD8
:102F500003EB830302EB430333703B4831780BF000
:102F6000EFFB3278AABB394B0824197881F00101B4
:102F70001970374B98781A7164F303009870D878F9
:102F80005A7162F3C7109A71DA71D87049B9012287
:102F90001A7259729972D972197359739973D973D4
:102FA00007E01A725A729A72DA721A735A739A7323
:102FB000DA73197A27480BF0C3FB002024490A2250
:102FC00005F078FE08B1244800E024480BF0B8FB77
:102FD00031E0234B002215461C460F2119719978C8
:102FE000082060F303019970D978023762F3C711A2
:102FF0005A719A71DA71D9703378B5EB430F10DAE0
:10300000384601A90CF0C4FD164B019F43F825007A
:1030100009F07EF902460B4613480BF091FB01358F
:10302000EAE70F4900200A22237205F043FE014619
:103030000E480BF085FB012003B0F0BD00C0072057
:1030400078C2072008C807201553020004C00720D3
:1030500009C807202E5302004353020067530200A1
:1030600019C8072074C607208D530200A45302001C
:1030700008B5FFF73FFF4FF416514FF42F7240236E
:1030800006F0F0FA154A092111719178002363F3D3
:1030900003019170D178537163F3C711D1709371AB
:1030A000D371137253729372D372137353739373F6
:1030B000D3730B4A102111719178082060F303013A
:1030C0009170D17853719371D37163F3C711054B2C
:1030D000D17002441A60012008BD00BF2AC8072031
:1030E0007AC2072004C80720242310B503FB01017E
:1030F00088420BD043783BB1038CD4184FF6FF7352
:10310000A34228BF234603842430F1E710BD00000A
:1031100037B5002302A840F8043D0C4B04215B683E
:1031200098470B4B019A1C680546141B1A60094806
:1031300022460421FFF7D8FF074802212246FFF765
:10314000D3FF281C18BF012003B030BD3CC80720A6
:1031500008C9072050C807202BC9072008B50B4B0A
:10316000197803788B420A4B0BBF1A889A88013270
:10317000013214BF9A801A80064B8170DB682021CF
:103180009847003018BF012008BD00BF0DC00720C0
:10319000F8C807203CC807200A4B02781B789A42DF
:1031A000094B0BBFDA881A89013201320CBFDA8071
:1031B0001A810379C3F3C202073262F3C5030371B4
:1031C000FFF7CCBF0DC00720F8C8072010B50023BB
:1031D00006499A0011F82340844201D1881810BD95
:1031E0000133042BF4D1002010BD00BF19C9072002
:1031F00070B1C3780133DBB2FF2BC37008D1002359
:10320000044A1A44D17804334908102BD170F7D1FD
:10321000704700BF19C90720242202FB01010346A1
:10322000024630B58A4206D01446243212F8235C96
:10323000002DF7D10FE0044600258B420BD01A7900
:10324000C2F3C2001A8C42EA004295423CBF1C46BF
:1032500015462433F1E7204630BD000038B5054659
:10326000C90001F10804FFF753FF1C4B1A782B78B3
:103270009A4204D102211A48FFF7CEFF0CE0194808
:103280000421FFF7C9FFEB7833B990F82330042409
:1032900043F0800380F82330002380F8203080F84A
:1032A000213002462B4690F8231080F8224021F06E
:1032B0007F01C4F306240C4380F8234005F120016C
:1032C00053F8044B8B4242F8044BF9D1064A037978
:1032D000127862F3C503037138BD00BF0DC007202B
:1032E0002BC9072050C807200CC0072010B5FFF7D6
:1032F0006DFF0446F8B9FFF769FF0446D8B90F4BD4
:10330000DA79D9788A4228BF0A46D97A34BF1C1D97
:103310001C4691422CBF1146094CDA7B094B8A426C
:1033200038BF1C460422204600210AF095F8064AC0
:10333000D37A0133D372204610BD00BF19C90720CC
:1033400021C9072025C90720F8C807202DE9F04129
:1033500005460C464FF0240808FB02188E1D444514
:1033600000F09E8094F823301A0625D5BDB12A7846
:1033700061788A4205D16F7816F8060C874200F012
:103380009180E87858B16878884208D116F8061C10
:10339000914204D1A979A279914200F0838094F8F6
:1033A0002220218C03F07F0342EA0323994274DB3D
:1033B0002046FFF7D3FE75E06278002A6DD06DB32A
:1033C000297901F0C001C02917D116F8060C6978D7
:1033D000884202D12878904264D0E778A878874262
:1033E0000CD191420AD116F8060C2978884205D1F1
:1033F000A079A979884201D154E079B1A878E1781F
:1034000088420BD16978914208D116F8060C2978C8
:10341000884203D1A079A979884249D094F8221032
:10342000208C03F07F0341EA0323984235DB00231D
:1034300084F8203084F821302379C3F3C201CFB25D
:103440001FB12046FFF7A8FE27E003F0C003C02B02
:1034500019D01C4B16F8060C1B78984213D1E37850
:10346000934210D07BB16379032262F30713637137
:10347000E1702046FFF790FE134A2379127862F339
:10348000C503237100E001276078FFF79FFE18B1A4
:103490000021042209F0E0FF27B9243424365EE736
:1034A000BDE8F08120460021242209F0D5FFF4E791
:1034B0002279002363F3C50284F8203084F8213098
:1034C0002271EAE70DC007200CC00720431EDBB2C3
:1034D000FD2B9DBF024B187001200020704700BFDC
:1034E0000DC00720014B1878704700BF0DC00720A2
:1034F00007289CBF014B1870704700BF0CC0072005
:103500002DE9F743044691461E469DF828500F4684
:10351000002963D0354B93F80080414560D00F2ED1
:103520005ED800285ED02022002109F095FFFF2FF1
:10353000237914BF09F00302002262F387130322E8
:1035400062F302032A4A6770127884F8008062F3FB
:10355000C503284A2371137884F802800133DBB253
:103560001370A3710BAB019315B94FF0010818E06C
:10357000019AE0791346526853F8081B00EB0208E1
:103580005FFA88F8013DB8F1180F0193EDB206D843
:103590000830204409F03AFF84F80780E4E74FF050
:1035A0000008DFF854900123384689F80030FFF70F
:1035B0000DFE0546FFF71CFE002389F800306379F5
:1035C00025B966F307136371E57005E0AA7862F325
:1035D000071363716B78E370404603E0084601E02F
:1035E0000020FFE703B0BDE8F08300BF0DC0072057
:1035F0000CC0072029C9072004C90720124B01224B
:1036000070B51A7004461E4608B9002518E0FFF789
:10361000A5FD05460028F8D0237903F0C003402B10
:1036200006D0C02B0AD1E37853B162789A4207D012
:10363000617920460909FFF711FE01E0802BF7D0E0
:1036400000233370284670BD04C9072082B0F0B54E
:103650001746421ED2B28DB0FD2A04460D46139382
:1036600001D900205AE0002BFBD0159B002BF8D08D
:10367000179B002BF5D0169B002BF2D0149B002B30
:10368000EFD000214822284809F0E6FE00219022D0
:10369000264809F0E1FE00211022254809F0DCFE51
:1036A00000210C22234809F0D7FE00210C222248D9
:1036B00009F0D2FE214E224B1C703446214B1D7066
:1036C00013AD0FCD0FC42B68002118221E482360B4
:1036D00009F0C2FE39461C4817220BF0C6FB002039
:1036E000B368014698470028BBD09DF8603013B9F5
:1036F000FFF70EFD12E0154A012301920622029205
:10370000009304A8FF210022FFF7FAFE0028A8D0AA
:1037100004A8FFF773FF0028A3D0E9E70DB0BDE8C8
:10372000F04002B0704700BF2BC9072050C80720E7
:1037300019C907200DC90720F8C807203CC8072071
:103740000DC007200CC90720E0C80720C75302009E
:1037500030B5182B8DB005460C4615D8B2FA82F15B
:10376000181C18BF0120490981420DD08DE80D00B9
:10377000294604A822469DF84030FFF7C1FE18B143
:1037800004A8FFF73BFF00E000200DB030BD13B5EB
:103790000446107852790B46120900920321224602
:1037A000FFF7D6FF02B010BD00231A4630B5084C13
:1037B000990014F823502DB1904201D1601830BD0A
:1037C0000132D2B20133042BF1D1002030BD00BF51
:1037D00019C9072000231846044A12F823200AB109
:1037E0000130C0B20133042BF6D1704719C907204C
:1037F0002DE9F04188B068460021202209F02CFE16
:10380000A14B1B7803F0FF04002B40F03A819F4E40
:103810006846336920219847002800F083809C4D3A
:103820006B8801336B80FFF7D5FF9DF80420A872E9
:1038300002F00703032B04D0964A137843F00103E8
:1038400009E0954B1D789DF80230AB4205D1914AB5
:10385000137843F002031370E3E0C2F3C2029DF851
:1038600000E09DF80600D7B28C4904EB440313F83E
:1038700001C0F4450AD10B445978814206D19978A8
:103880000124CF1B18BF01279A7018E00134042CC3
:10389000EAD183490B689A70804A587002F1090096
:1038A000834283F800E040F0C9800A609DF8000080
:1038B0009DF80230834240F0C480002427469DF8E2
:1038C0000200FFF713FD9DF8022002709DF8022010
:1038D000427000228270FFF78BFC04B117B39DF891
:1038E0000030AB4200F09C809DF80170FF2F1BD18F
:1038F000336868462021984720B9664A137843F018
:10390000040313709DF8053003F00F02511C61F39E
:1039100003038DF80530C3F303139A4202DA6846B5
:10392000FFF71CFC00247CE0BD422BD164B99DF85C
:1039300007304BB1336868462021984720B9554A73
:10394000137843F0040313709DF8043003F0C003B0
:10395000402B12D19DF8073013B95248182108E0C6
:103960004B480C216A46FFF712FF002858D100206F
:1039700001466A46FFF70BFF52E09DF80330002B2B
:103980004ED1F4E7484B1B78002BCBD09DF8054077
:1039900004F00F064FEA14184645C3DA013666F301
:1039A00003043846FFF712FC8DF805409DF80340EC
:1039B000A5421ED19DF8041001F0C001402906D097
:1039C000A1F180035A425A41144618B91BE0012262
:1039D000002854D0C029437805D19F4203D000333A
:1039E00018BF012300E00023134303F0010428B9AA
:1039F0000BE0ACB910B9684641460FE043788DF84A
:103A00000330857804E0C02939D000258DF80350B3
:103A10006846FFF7A3FB1CB168462946FFF71EFC6A
:103A20006C46FFF775FB204620490422FFF78EFC09
:103A300020461F490222FFF789FC22E003330B6076
:103A400034E785423FF439AFFFF750FC0446FFF7F7
:103A5000CFFB23783BB19DF80530A27803F00F032C
:103A600093423FF72AAF9DF8003023709DF8023053
:103A700063709DF80530C3F30303A3701DE703468D
:103A8000B2E708B0BDE8F08104C907203CC80720B0
:103A9000F8C807202AC907200DC007200DC9072034
:103AA00008C00720E0C807200CC9072050C807201D
:103AB0002BC9072000231846094A1A4452780AB134
:103AC0000130C0B22433902BF6D1064B5A780AB19C
:103AD0000130C0B293F825300BB10130C0B270474D
:103AE00050C807202BC9072008B5FFF76FFB064B0E
:103AF00028B18278187802FB0000C00008BD187851
:103B00001823584308BD00BF0CC0072003490B68A9
:103B100003604B6843608B6883607047F8C8072078
:103B200030B5414C4FF48035E561404CA060E06811
:103B3000C506FCD43D488068C0B20BB90C4665E0B0
:103B40000B46002A6AD0072A384C0D782FDDA56075
:103B50004D78083AA5608D78A560CD78A5600D797F
:103B6000A5604D79A5608D79A56001F10805C97939
:103B7000A1602E498C696407FBD58C681C708C6829
:103B80005C708C689C708968D9702849CC68E406A0
:103B9000FBD48C68083303F8044C8C6803F8034C9E
:103BA0008C6803F8024C896803F8011C1BE0032AA7
:103BB0001BDDA5604D78043AA5608D78A5600D1DCC
:103BC000C978A1601949CC68E406FBD48C68043339
:103BD00003F8044C8C6803F8034C8C6803F8024C1F
:103BE000896803F8011C2946ABE70131A560013A59
:103BF000E568ED06FCD40D4C0133A46803F8014CD4
:103C00009FE7DD68ED06FCD4084B9B68631A93427E
:103C100004DA14F8015B054B9D60F2E7024B4FF4A8
:103C200080329A6130BD00BF00C00920008008408A
:103C300007B5002302A9012201F8013D00F01F0091
:103C40001346FFF76DFF9DF8070003B05DF804FB16
:103C500007B502AB03F8011D00F01F001946012251
:103C6000002340F02000FFF75BFF03B05DF804FB8A
:103C700008B51720FFF7DCFFC0F3001008BD0720D0
:103C80007021FFF7E5BF03460A46A020194600232E
:103C9000FFF746BF08B50020FFF7CAFFBDE80840A0
:103CA00000F0FE010020FFF7D3BF0000024B4FF0F1
:103CB0008072DA61704700BF20C0092008B500207B
:103CC000FFF7B6FF40F00101C9B20020FFF7C0FFC7
:103CD000024B4FF080729A6108BD00BF20C00920DE
:103CE00007202021FFF7B4BF0021E1200A460B4640
:103CF000FFF716BF37B50C460546FFF7F5FF21461F
:103D00002846FFF7C0FF0D4B4FF080721C469A61AA
:103D10000022ADF80620BDF8063001339BB2ADF8A5
:103D2000063033B94FF08073E361FFF7DDFF03B076
:103D300030BDFFF79DFF0028EDD0F3E720C009203C
:103D400008B51720FFF774FF00F0010080F00100B4
:103D500008BD07204021FFF77BBF08B503460A4690
:103D6000612019460123FFF7DBFEC0F3420008BDC6
:103D70000021E2200A460B46FFF7D2BE70B5064688
:103D800000200D461446FFF753FF16B100F0BF00A8
:103D900002E040F04000C0B215B100F0DF0101E0E8
:103DA00040F0200114B101F0EF0101E041F01001F9
:103DB0000020BDE87040FFF74BBF10B5044600205F
:103DC000FFF736FF14B900F0F7010DE0012C04D124
:103DD00000F0FB0141F0080106E0022C14BF40F0A6
:103DE000080140F00C01C9B20020BDE81040FFF707
:103DF0002FBF08B50020FFF71BFFBDE8084040F0CB
:103E00000201C9B20020FFF723BF08B50020FFF769
:103E10000FFFBDE8084000F0FD010020FFF718BFCC
:103E200040F6DD13984206D840F66213B0F5166FDF
:103E300038BF184600E01846A0F51661C9B2052043
:103E4000FFF706BF10B504460620FFF7F1FEFA2C77
:103E500000F0D70102D141F0200104E0B4F5FA6F7F
:103E600008BF41F008010620BDE81040FFF7F0BE92
:103E700010B504460620FFF7DBFE032C20F00600F9
:103E800028BF032440EA4401C9B20620BDE810401F
:103E9000FFF7DEBEF9284FF0FA0305D9B0F57A6FC7
:103EA00088BF4FF47A6000E01846B0FBF3F00F29AA
:103EB00000F1FF30C0B228BF0F2141EA0011C9B2A2
:103EC0000420FFF7C5BE1130C0B2162804D820293F
:103ED00028BF2021FFF7BCBE7047032804D0042868
:103EE00014BF0321022100E001210320FFF7B0BE2F
:103EF00003460A46302019460023FFF711BE034649
:103F00000A462A2019460023FFF70ABE73B50E465B
:103F100015460446FFF72CFFFFF7E6FE2B4B4FF04C
:103F20008072DA61FFF771FF00210A460120FFF776
:103F300025FFFFF7A4FE0220FFF73FFF3046FFF703
:103F40006FFF2846FFF77EFF0320FFF791FF022057
:103F50000321FFF77DFE01200021FFF779FE4FF4DA
:103F6000FA700321FFF796FF21460020FFF7ABFF11
:103F700012200021FFF76CFE13200021FFF768FEDE
:103F800014200021FFF764FE15200021FFF760FEDA
:103F900000211620FFF75CFE0D4B18681B7900907E
:103FA00005208DF80430FFF798FF68460521FFF7DC
:103FB0009FFF68460521FFF7A2FFFFF71AFF4FF4A6
:103FC000FA6004F012FC02B070BD00BF20C00920EE
:103FD000CE53020007B5094B002102AA186842F827
:103FE000041D0B4606F037F9019B1BB1044B4FF043
:103FF00080521A6003B05DF804FB00BF7CC9072043
:1040000004ED00E070B5174E326822B9032020217C
:1040100006F057F83060144D2A6822B9012020219B
:1040200006F04FF82860114C216821B901200322C5
:1040300006F047F82060202040F6C3114FF4FA62E2
:10404000FFF764FFFFF73AFE16200121084A04F04B
:10405000BFFF306828B1286818B12068003018BF49
:10406000012070BD78C9072074C907207CC90720CA
:10407000D53F010070B506460379002203F0C00366
:10408000C02B0CBF0D4B0E4B88B01D683146284627
:10409000134606F047F8044660B9224623466946AF
:1040A000284606F013F9224623462846314606F0F4
:1040B00039F80446204608B070BD00BF74C9072017
:1040C00078C9072038B504460D46FFF70BFA237868
:1040D00083420AD0E37843B90AF0D8FBBD2300F04D
:1040E000030000FB033004F080FBFFF7DFFDFFF768
:1040F000D1FD2046A9B2FFF7FDFDFFF7F1FDFFF767
:10410000DDFD06F067FE022806D1044B0021186889
:104110000A460B4606F09FF8012038BD7CC90720EF
:1041200038B505460C46FFF70BFE48B1A1B228464C
:10413000FFF713FEFFF704FE08B9FFF70AFE0120A0
:1041400038BD2DE9704306460D46144606F042FE82
:10415000022807D1224630462946002306F0B6F849
:10416000C4B21DE007F0D0F94FF47A72002308F0D2
:1041700037FC10EB040841F10009002230462946C3
:10418000134606F0A3F8C4B254B907F0BDF94FF4D2
:104190007A72002308F024FC894508BF8045ECD2E0
:1041A0002046BDE87083042938B5054603D1041CB8
:1041B00018BF012400E0002407F0A6F92CB14FF449
:1041C0007A72002308F00CFC2860204638BD0000FD
:1041D00000B50C4B8DB009930B4B0C4A0B930C4B59
:1041E0000A930CAB43F8102D002204920FCB8DE8FC
:1041F0000F00084B0121084A6A20FFF727FA0DB08B
:104200005DF804FB0540010021410100A7410100C8
:10421000C540010075400100D353020003460A4621
:10422000024908681946FFF78CBF00BF78C907200C
:1042300003460A46024908681946FFF782BF00BFD5
:1042400074C9072008B506F0C5FD0F4B02285B694D
:1042500013D15A020DD5FFF72DFC0C4B00284FF05F
:104260000001186814BF01224FF0FF320B4606F020
:104270002DF8BDE80840FFF7BBBA5B02F9D5FFF7A0
:1042800019FC0028F5D108BD00C009207CC9072011
:1042900030B504460D46134621792A46BDE8304024
:1042A000006805F045BB1FB50A4604AB0021022497
:1042B00023F8041D01790094006805F024FB9DF8A3
:1042C0000C009DF80D3043EA002004B010BD10B57D
:1042D00004462A211922FFF7DBFF206821790D22ED
:1042E00005F015FBA0F12A035842584110BD00000B
:1042F000044A13881F2B9FBF581C1080024A42F8A3
:104300002310704784C9072088C90720144AF0B5D4
:104310001488012C20D9134B00211F46661EB14280
:1043200006DA58681D680131401B43F8040BF5E7B5
:104330007B6803EB5301002318469CB2B44209DAB0
:1043400057F8245001338D4282BF012505FA04F449
:104350002043F2E7044B186000231380F0BD00BF38
:1043600084C9072088C9072080C9072008B5022012
:10437000012107F061F8084B01209A6A22F0070238
:104380009A629A6A42F006029A62044AD36843F03B
:104390003003D36008BD00BF0080004000C0024071
:1043A00008B5044A01F07F034171D25C0321FFF795
:1043B0006FFF08BDD853020008B5044A01F07F031F
:1043C0008171D25C0221FFF763FF08BDD853020060
:1043D00038B504460068217905F0B5FA054688B17C
:1043E000204606210022FFF753FF20460721002226
:1043F000FFF74EFF20462E21FFF7D2FF20462E2149
:10440000FFF7DAFF284638BD642370B5B1FBF3F43B
:1044100004FB1311CCB20A21B4FBF1F501FB1541E9
:104420003031C9B20646FFF7C7FF092C8ABF05F134
:10443000300130463046BDE8704094BF2021C9B2FB
:10444000FFF7AEBF0120704738B50D46044606F0B1
:10445000FDFD05F00F032370114B15F0010F4FF018
:10446000010214BFDA619A61227812F0020F4FF054
:10447000020214BFDA619A61227812F0040F4FF041
:10448000100214BFDA619A61227812F0080F4FF41B
:10449000807214BFDA619A61BDE8384006F0E8BD69
:1044A00020C0092001207047022004F02FBA01200B
:1044B00070470000044B5B69C3F38130C3F34123B1
:1044C00043EA8000704700BF20C0092010B50446B1
:1044D00001218122FFF7DCFE20682179012205F00D
:1044E00016FA10F0600F14BF0120002010BD38B57F
:1044F00000210546FFF7D7FE8122012184B228461C
:10450000FFF7C6FE24B2102094FBF0F008F07EF80E
:104510004FF0765108F0CEF8A96807F0C3FF38BD18
:1045200008B5FFF7E4FF054908F0C4F8044908F0AE
:1045300075F94FF0844107F0B5FF08BD0000104148
:104540000000A0402DE9F04F0546ADF2546D0C4639
:10455000904682A8294601229946DDF878A602F005
:1045600011F8002867D121460DF22C400A2202F0F2
:1045700009F8044620B182A802F075FA20465AE0F4
:10458000834606460090019006F0BEFF4FF47A7213
:10459000002308F025FA02A907464FF4007282A80A
:1045A0006B4602F088F80546D8B9009BCBB106F0FF
:1045B000ABFF4FF47A720023F61B08F011FA0644A1
:1045C00006F0A2FF4FF47A72002308F009FA02A95C
:1045D0000746009A0DF22C4001AB02F02AF905467D
:1045E000B8B1B8F1000F01D0C8F80060B9F1000F00
:1045F00001D0C9F800B0BAF1000F01D0CAF80040EC
:1046000082A802F030FA0DF22C4002F02CFA284673
:1046100011E0019A009B9A42E3D106F075FF4FF436
:104620007A72002308F0DCF9009BBBEB070200EB79
:10463000020B1C44A8E70DF2546DBDE8F08FF0B5F5
:104640000446ADF50B7D0F46164621461D4601A8D2
:1046500000230122009301F095FF044670B91DB1BB
:1046600001A8294602F011FA01A8394632466B46E4
:1046700002F021F8044601A802F0F5F920460DF5F4
:104680000B7DF0BDF0B50446ADF50B7D0F4616462B
:1046900021461D4601A800230A22009301F072FF63
:1046A000044670B91DB101A8294602F0EEF901A82F
:1046B000394632466B4602F0BCF8044601A802F0C7
:1046C000D2F920460DF50B7DF0BDF0B50446ADF5F1
:1046D0000B7D0F46164621461D4601A800231222D7
:1046E000009301F04FFF044680B901A80DB129469F
:1046F00000E0049902F0C9F901A8394632466B4638
:1047000002F097F8044601A802F0ADF920460DF535
:104710000B7DF0BD7F2816D931B1FF2812D80A4B86
:10472000803833F810007047074A8BB232F81120F6
:10473000824203D001318029F6D10B4603F180007B
:10474000C0B2704700207047385602000023064A66
:1047500032F8132032B1904201D00133F7E7034A17
:1047600032F81300704700BF385702005854020057
:1047700010B501200C4605F048FD2060003018BF40
:10478000012010BD0120704710B5044606F022FB41
:1047900002280AD100210B4620464FF0FF3205F0D7
:1047A00095FD431E5842584110BD012010BD10B563
:1047B000044606F00FFB022807D100212046BDE881
:1047C00010400A460B4605F0ADBC10BD10B50446BE
:1047D00004F082FE24B1012C06D100F07BF901E047
:1047E00000F0EEFC044600E0042404F08DFE2046B8
:1047F00010BD28B1012801D00420704700F018BA7C
:104800007047F8B507460E4615461C4604F064FE90
:104810003FB1012F0CD130462946224600F010FA54
:1048200004E030462946224600F016FD044600E02A
:10483000042404F069FE2046F8BDF8B507460E468C
:1048400015461C4604F048FE3FB1012F0CD13046FE
:104850002946224600F042FA04E030462946224624
:1048600000F020FD044600E0042404F04DFE204644
:10487000F8BD70B506460D46144604F02DFE36B15F
:10488000012E0AD12846214600F082FA03E028468C
:10489000214600F02BFD044600E0042404F034FE21
:1048A000204670BD08B506F02FFE4FF47A72002343
:1048B00008F096F808BD000010B5044606F09CFF0D
:1048C000074BB0FBF3F00223B0FBF3F2944202D3A8
:1048D000044A136110BDB3F5807FF9D00233F3E7CA
:1048E00040420F0000000340044B9860DA68D20693
:1048F000FCD4024B9868C0B2704700BF0000034070
:1049000038B5FFF7CFFF00F5FA75FF20FFF7ECFF92
:10491000FF20FFF7E9FFFF28044606D0FFF7C2FF9C
:104920000023994208BFA842F2D3204638BD0000B8
:1049300038B5064C4FF00075E561FFF7E1FF044A1A
:10494000A561137843F00103137038BD20C009201E
:104950000EC0072070B505460E46FFF7A3FF00F115
:104960006404FF20FFF7C0FFFF2808D1FFF79AFF7C
:104970000023994208BFA042F3D3002070BDFE2857
:10498000FBD1102E06D928464FF40071002204F006
:1049900041FD19E02C1DFF20FFF7A6FF04F8040CD1
:1049A000FF20FFF7A1FF04F8030CFF20FFF79CFF97
:1049B00004F8020CFF20FFF797FF043404F8050CFD
:1049C000331D1B1BDD42E6D1FF20FFF78DFFFF20CB
:1049D000FFF78AFF012070BD70B506460D46FFF750
:1049E0008FFFFF28044619D12846FFF77DFFFD2DD4
:1049F00016D04FF400712246304604F00BFD2046DD
:104A0000FFF772FF2046FFF76FFF2046FFF76CFFAE
:104A100000F01F00431F5842584170BD002070BD78
:104A2000012070BD020638B504460D4607D5772033
:104A30000021FFF7F7FF012836D804F07F041B4B55
:104A40004FF000729A61DA61FFF75AFFFF282AD10E
:104A50002046FFF749FF280EFFF746FFC5F3074042
:104A6000FFF742FFC5F30720FFF73EFFE8B2FFF76D
:104A70003BFF402C04D0482C0CBF8720012000E0D5
:104A80009520FFF731FF4C2C02D1FF20FFF72CFFC0
:104A90000A24FF20FFF728FF030605D5013C14F088
:104AA000FF04F6D138BDFF2038BD00BF20C009206B
:104AB000064A074913784969DBB2490154BF03F03C
:104AC000FD0343F003031370704700BF0EC00720BF
:104AD00020C009202DE9F347FFF7EAFF514B1A7870
:104AE0001E4612F0020F01D0187896E00120FFF761
:104AF000E3FE0A24FF20013CFFF7F6FE14F0FF045A
:104B0000F8D1494D4FF00073EB6140202146FFF78B
:104B100089FF012801D000246EE0FFF7C3FE4FF4A7
:104B2000D57100F57A7A4820FFF77CFF01283DD146
:104B3000FF20FFF7D9FE01AF38550134042CF7D11F
:104B40009DF80630012BE6D19DF80730AA2BE2D163
:104B5000FFF7A8FE4FF00009494508BF5045D04671
:104B600006D3FFF79FFE494508BF4045D3D207E073
:104B7000E9204FF08041FFF755FF0028E8D1F0E72A
:104B80007A200021FFF74EFF0028C4D10446FF2001
:104B9000FFF7AAFE38550134042CF8D19DF80430F3
:104BA00013F0400F14BF0C24042425E02146E92013
:104BB000FFF738FF022835BF02240124E9274127E7
:104BC000FFF770FE4FF00009494508BF5045D04639
:104BD0000BD3FFF767FE494508BF40450CD34FF4A0
:104BE00000715020FFF71EFF06E038460021FFF756
:104BF00019FF0028E4D1ECE70C4B1C704FF0007358
:104C0000AB613CB13378182003F0FE033370FFF73B
:104C100053FE01E0FFF78CFE3078C0B202B0BDE871
:104C2000F08700BF0EC0072020C0092008CA072057
:104C300008B5FFF73DFF014B187808BD0EC00720EF
:104C4000F8B5144607460E46FFF732FF002C3AD05F
:104C50001F4B1B78DB0738D41E4B4FF00072DA6114
:104C60001D4A1D46127812F0080F08BF7602012C6B
:104C70000DD151203146FFF7D5FEE8B938464FF443
:104C80000071FFF767FEB0FA80F4640914E0522067
:104C90003146FFF7C7FE78B938464FF40071FFF789
:104CA00059FE28B1013C14F0FF0407F50077F3D159
:104CB0004C200021FFF7B6FE4FF00073201CAB61C3
:104CC00018BF0120F8BD0420F8BD0320F8BD00BFC7
:104CD0000EC0072020C0092008CA0720F8B51446D6
:104CE00007460E46FFF7E4FE002C45D0254B1A7808
:104CF000D20743D41B785B0742D4234B4FF000729A
:104D0000DA61224A1D46127812F0080F08BF7602B7
:104D1000012C0CD158203146FFF784FE28BB3846C1
:104D2000FE21FFF759FEB0FA80F464091DE012F08D
:104D3000060F03D0D7202146FFF774FE59203146D5
:104D4000FFF770FE88B93846FC21FFF745FE28B111
:104D5000013C14F0FF0407F50077F4D10020FD2199
:104D6000FFF73AFE002808BF01244FF00073201C13
:104D7000AB6118BF0120F8BD0420F8BD0320F8BDC9
:104D80000220F8BD0EC0072020C0092008CA072055
:104D90007FB504460D46FFF78BFE052C1AD12B7804
:104DA000012B00F0FD8003D3022B0BD00420FAE08E
:104DB0007E4B586910F0806440F0F280FFF7B8FD38
:104DC0002046F0E0794B5B6983F08063C3F3806336
:104DD0006B70E5E0764B1B78DB0700F1E3800E2C6F
:104DE00000F2D880DFE804F008124F53D6D6D6D6AA
:104DF000D6D6A3A8AAB4C4006C4B4FF00072DA61F7
:104E0000FFF77EFDFF3818BF0120C4E049200021D4
:104E1000FFF708FE044608B10120BCE068461021F7
:104E2000FFF798FD0028F7D09DF800309DF80900A5
:104E30009B09012B9DF8083005D1013000EB0323BD
:104E40009BB29B021CE09DF80710890001EB9313B5
:104E50005A1C9DF806309DF8051003F0030302EB81
:104E600083239DF80A2001F00F0101EBD212911C5F
:104E700000F0030201EB4202D2B29BB2093A934026
:104E80002B60204687E04FF400732B8052E0494EA0
:104E9000337803F0040303F0FF01DBB1CD200021E0
:104EA000FFF7C0FD0028B7D1FF20FFF71DFD6846C2
:104EB0001021FFF74FFD0028AED03024FF20FFF770
:104EC00013FD601E10F0FF04F8D19DF80A20102396
:104ED0001209D4E74920FFF7A5FD044600289BD11D
:104EE00068461021FFF736FD002895D031789DF8EF
:104EF0000A2001F0020101F0FF009DF80B3051B1D2
:104F000002F03F02DB0903EB42039DF80D20013361
:104F10009209013AB3E7C2F3840103F003045A098A
:104F200002EBC402531C01FB03332B6033E0214B23
:104F30001B782B7000202EE0492000E04A20002141
:104F4000FFF770FD00287FF467AF284610211BE0B3
:104F50007A200021FFF766FD00287FF45DAF2C1D4D
:104F6000FF20FFF7C1FC05F8010BA542F8D1E1E7EE
:104F7000CD200021FFF756FD00287FF44DAFFF2024
:104F8000FFF7B2FC28464021FFF7E4FCB0FA80F0BE
:104F9000400900E00420054B4FF000729A6102E0E6
:104FA000002000E0032004B070BD00BF20C0092035
:104FB0000EC0072008CA0720054B1B78253BDBB233
:104FC000032B9ABF034A52F823000020704700BF0A
:104FD0000CCA0720205902001B4B2DE9F0411D8807
:104FE0000646B5F5007F0F46144602D10846114625
:104FF0000AE0B5F5807F09D1084611462A46B04738
:1050000007F5807004F580712A4617E0B5F5047F36
:1050100005D1510A384689024FF400720EE0B5F509
:10502000847F0FD1140A08464FF480726102B047A2
:10503000611C07F5807049024FF480723346BDE869
:10504000F0411847BDE8F0810ACA0720034610B5B1
:1050500000295DDD07291A782E4C2FDDA2605A78D1
:105060000839A2609A78A260DA78A2601A79A26000
:105070005A79A2609A79A26003F10802DB79A360F1
:10508000244B9C696407FBD59C6804709C68447041
:105090009C6884709B68C3701E4BDC68E406FBD47C
:1050A0009C68083000F8044C9C6800F8034C9C682D
:1050B00000F8024C9B6800F8013C1BE003291BDD53
:1050C000A2605A780439A2609A78A2601A1DDB782F
:1050D000A360104BDC68E406FBD49C68043000F845
:1050E000044C9C6800F8034C9C6800F8024C9B68D8
:1050F00000F8013C1346ABE70133A2600139E268D6
:10510000D206FCD4034A0130926800F8012C9FE7D4
:1051100010BD00BF0000034007B50B0C8DF8040064
:105120008DF805308DF807100B0A01A804218DF8C1
:105130000630FFF78BFF03B05DF804FBF7B51646AA
:1051400007460E4C40250323E5618DF804300B0C17
:105150008DF805308DF807100B0A01A804218DF891
:105160000630FFF773FF38463146002204F052F94B
:10517000A561A561A56103B0F0BD00BF00C0092015
:105180000D4B4022DA610D4BD7229A60DA68D106C6
:10519000FCD40A4B9B68094BFF229A60DA68D2065E
:1051A000FCD4064B98680306F5D5034B40229A6160
:1051B000C0B29A619A61704700C0092000000340A4
:1051C000F7B5FFF7DDFF1F4C002323801E4B1F4E5A
:1051D00040271A889B78F7610546032101A8ADF89E
:1051E00004208DF80630FFF731FF9DF805209DF86B
:1051F00006301F2AB761B761B7611CD1A3F1250240
:10520000032A18D8124A252B137005F0010006D185
:10521000002814BF4FF480734FF4847305E0002816
:1052200014BF4FF400734FF404732380FFF7C4FEE0
:10523000084B400A18602088B0FA80F0400903B09B
:10524000F0BD00BF0ACA07201859020000C009209B
:105250000CCA072010CA07202DE9F0418B18174609
:105260000E4A013B12688046934214D84D024446D0
:10527000FFF786FF0026C8EB0502BE42224407DA8C
:1052800021460748FFF7A8FE04F500740136F2E74F
:105290000020BDE8F0810120BDE8F08110CA0720A0
:1052A0003D5101002DE9F0418B1817460D4A013B95
:1052B00012688046934212D804464D020026C8EB7D
:1052C0000502BE42224407DA21460748FFF784FE62
:1052D00004F500740136F2E70020BDE8F0810120FA
:1052E000BDE8F08110CA0720CD53010010B50C466F
:1052F000072805D8DFE800F006090E12141414146C
:10530000042010BDFFF73CFF0AE0FFF755FE400AFE
:10531000206005E04FF400730B8001E001230B6077
:10532000002010BD70B590B003466A466E4600F18D
:105330004005144618685968083303C4AB42224636
:10534000F7D1084D4024EC619B200021FFF7E4FEDB
:1053500030462146FFF77AFEAC61AC61AC6110B01B
:1053600070BD00BF00C0092070B50646074D40243F
:1053700077200021EC61FFF7CFFE30462146FFF792
:1053800065FEAC61AC61AC6170BD00BF00C00920BE
:10539000064B10B51C8834F01F0404D0FFF70CFE38
:1053A000B0FBF4F010BD204610BD00BF0ACA0720B4
:1053B000014B1888704700BF0ACA0720024B1878B3
:1053C000003018BF012070470ACA07202DE9F743B3
:1053D0004FF0FF330F46904601938146FFF7D0FE12
:1053E000FFF7ECFF0646B0B1194C4025194BE561BB
:1053F0001B880320B3F5847F0CBF4FF480714FF4FA
:1054000000713943FFF788FE01A80421FFF71EFE53
:10541000A561A561A5610E4C402382203946E36158
:10542000FFF77AFE48464146012203F0F3FF3EB102
:10543000019B02A8013340F8043D0421FFF706FE5A
:105440004023A361A361A36103B0BDE8F08300BF63
:1054500000C009200ACA0720F7B5124B07461B886F
:10546000B3F5847F4FF0FF330CBF4FF480764FF4D9
:1054700000760193FFF7A2FF70B10B4C402503208B
:1054800046EA4721E561FFF747FE01A80421FFF73F
:10549000DDFDA561A561A5610198431C08BF002041
:1054A00003B0F0BD0ACA072000C0092037B5074B7A
:1054B000074C1868402501900421E56101A8FFF719
:1054C000C5FDA561A561A56103B030BD1B590200F2
:1054D00000C009201FB501A803F0C0FE9DF80930E7
:1054E0009DF8082003F00F0302F01F025B0543EA5A
:1054F00002419DF806309DF8040003F01F0341EAC5
:10550000C3229DF80530C0F3440003F03F0342EA94
:105510004313BDF80A201843520602F10842104313
:1055200005B05DF804FB30B504460D1F131B0344A2
:10553000032B04D955F8043F44F8043BF6E722F066
:105540000303194402F00302013B18440A44914248
:1055500004D011F8013B00F8013FF8E730BD0244E8
:10556000904202D000F8011BFAE7704700F10B01EE
:105570000023DA0142EA530310F8012B1344884256
:1055800003F0FF03F5D118467047026810B50446D2
:10559000BAB11346184613F8011B1F2902D93A293C
:1055A000F8D101E0002010BD114611F8013B8842FE
:1055B00007D1303BD9B2012903D802321846226004
:1055C00010BD4FF0FF3010BD03692DE9F04101F12E
:1055D00009020D4653B3416900244E1E16F8013FDF
:1055E0000134202B18D0052B47D0092C02D12E27AF
:1055F00017700132A3F14107192F0BD8082C0F7B2C
:105600008CBF4FF0100E4FF0080E1EEA070F1CBFA4
:105610002033DBB2137001320B2CDFD1CB7A2B722B
:10562000CB692B600B8BAB80CB8AEB800024147092
:10563000AE693EB303690BB900241AE0EB69002B95
:10564000FAD04FF6FF73028C9A42F5D0D0F81C8046
:10565000771E38F8140060B10021FFF75BF80028CE
:10566000EAD0EB69013B9C42E6D2013407F8010F16
:10567000EFE700233355BDE8F081092C4FF0E50337
:10568000C8D1B4E7BDE8F081F8B5037904460BB999
:105690000020F8BD056B00F13407394640782A46F2
:1056A0000123FFF7CAF890B9636AE269EB1A9342E3
:1056B0002071EDD2E678012EEAD9E36960781D44C5
:1056C00039462A460123FFF7B8F8013EF3E70120E7
:1056D000F8BD0000F8B50446FFF7D6FF05468DBBC0
:1056E0002378032B26D16679012E23D104F13407C8
:1056F000384629464FF40072FFF731FF4AF655232A
:10570000A4F83232104B226A636303F1FF5303F5AE
:1057100000532033C4F8183263690132C4F81C32D4
:1057200023692263C4F82032607839463346FFF794
:1057300084F86571002160780A46FFF79AF8003016
:1057400018BF0120F8BD00BF52526141036B70B514
:10575000994205460E4610D0FFF796FF044608B161
:1057600001240BE0687805F1340132460123FFF78C
:1057700048F80028F4D12E6300E00024204670BDD4
:10578000002310B503714FF0FF3303630446FFF7A6
:10579000DDFFA0B94AF65523B4F832229A4210D15F
:1057A000D4F86A30084A23F07F4393420AD0D4F8F1
:1057B000860020F07F40801A18BF012010BD032012
:1057C00010BD022010BD00BF46415400F0B50023BB
:1057D000036085B0074608461546FFF7D6FE061E4D
:1057E000C0F2F2807E4B53F82640002C00F0EE8091
:1057F000E068FEF7C9FF002800F0EA803C602378EB
:1058000083B16078FEF7F5FFC1070BD4002D00F0DF
:10581000D98000F0040303F0FF00002B00F0DD80CE
:105820000A20DAE00023F0B223706070FEF7CEFFAA
:10583000C20700F1CF800DB14307F1D4204600210B
:10584000FFF79EFF01281CD12146002291F8F63176
:105850000BB1D1F8FA314DF822300132042A01F1AE
:105860001001F3D100265DF826502DB120462946BF
:10587000FFF786FF08B90BE002200136042EF2D1B3
:1058800000E00025032800F0A78008B10D20A4E067
:10589000B4F83F30B3F5007FF8D1B4F84A0000B94E
:1058A000A06D94F844E0E0610EF1FF33012B84F821
:1058B00003E0EBD894F84130A370002BE6D05A1ED9
:1058C0001A42E3D1B4F845C01CF00F0FA4F808C089
:1058D000DCD1B4F8472002B9626DB4F84210002957
:1058E000D4D00EFB00FE01EB1C177744BA42CDD397
:1058F000D21BB2FBF3F3002BC8D040F6F5729342F3
:1059000006D94FF6F576B3428CBF0326022600E097
:105910000126023329442F44032EA36125626162CC
:10592000E76206D1BCF1000FB0D1226E9B00A262EB
:1059300010E0BCF1000FA9D0022E4FEA43020CBFC9
:105940001346D218714418BF03F00103A16218BFB7
:1059500003EB520303F2FF13B0EB532F96D34FF038
:10596000FF3363612361032E4FF08003637122D103
:10597000B4F86430012B1ED12046691CFFF7E6FE07
:10598000C8B94AF65523B4F8322260719A4212D14E
:10599000626B144B9A420ED103F1FF53D4F81822D4
:1059A00003F5005320339A4201BFD4F81C326361DF
:1059B000D4F8203223610C4A2670138801339BB23D
:1059C0001380E380002008E00B2006E00C2004E0B8
:1059D0000F2002E0032000E0012005B0F0BD00BF71
:1059E00018CA07205252614114CA072010B5044654
:1059F000A8B103689BB11A788AB1D988828891428C
:105A00000DD1D868FEF7C0FE58B123685878FEF76C
:105A1000F0FE10F0010F14BF0320002010BD09207C
:105A200010BD0F2010BD50B1A1F10B03012B06D901
:105A3000092904D00F2902D0C068FEF7B8BE70470C
:105A400083690239023B99423DBF8278C36A02FBF7
:105A50000130002070470129F8B507460C464BD9A4
:105A60008369994248D20378022B29D0032B34D082
:105A7000012B41D101EB5106416A01EB5621FFF7A1
:105A800065FE10B14FF0FF30F8BD796AC6F3080328
:105A900001363B44384601EB562193F83450FFF76A
:105AA00055FE0028EED1C6F308063E4496F83400B1
:105AB000E30745EA00204CBF0009C0F30B00F8BD26
:105AC000416A01EB1421FFF741FE0028DAD163009F
:105AD00003F4FF73FE18B08EF8BD416A01EBD411D8
