:020000021000EC
:10000000E03F082093010100FB000100E100010036
:10001000090101001901010029010100000000008F
:10002000000000000000000000000000DDB0010042
:1000300039010100000000006DB10100590101000B
:100040000DB701000DB701000DB701000DB701009C
:100050000DB701000DB701000DB701000DB701008C
:100060000DB701000DB701000DB701000DB701007C
:100070000DB701000DB701000DB701000DB701006C
:100080000DB701000DB701000DB701000DB701005C
:100090000DB701000DB701000DB701000DB701004C
:1000A0000DB701000DB701000DB701000DB701003C
:1000B0000DB701000DB701000DB701000DB701002C
:1000C0000DB701000DB701000DB70100A8690200CE
:1000D00000C00720C4010000C8C10720340A000086
:1000E00004207146084203D0EFF309800BF02CBBCB
:1000F000EFF308800BF028BB704708B5014807F004
:10010000CBFEFEE73A63020008B5024807F0C4FEE2
:10011000FEE700BF4563020008B5024807F0BCFED9
:10012000FEE700BF5063020008B5024807F0B4FEC6
:10013000FEE700BF5B63020008B5024807F0ACFEB3
:10014000FEE700BF6863020008B5024807F0A4FE9E
:10015000FEE700BF7663020008B50AF085FF0BF0EA
:1001600027F8BDE808400AF093BF0B4610B55C1AAB
:10017000944204D2441AE45843F8044BF7E710BD04
:1001800003461A1A8A4203D2002243F8042BF8E7E6
:10019000704716480BF08EF814480BF08EF8144C8C
:1001A000144B9C4207D294E803000C3454F8042CFE
:1001B000FFF7DBFFF4E7104B9C4206D254F8080B24
:1001C00054F8041CFFF7DCFFF5E70DF049F80BF0DD
:1001D0008BF801F0BDFE02F071FE4FF416400BF0FB
:1001E000D1FB064807F058FEFEE700BFE03F0820BD
:1001F000CC000100D8000100E00001008A63020089
:10020000144A70B51368014613B94FF08053136058
:100210001068114B4518114E2B44B34298BF104B38
:100220000C4C96BFC81825602060126898BF18460D
:100230000C4B9A4281BF0C4A064B00201A6039B120
:100240000A4A136801331360094B1860094B19609F
:1002500070BD00BFCCC10720FF7FFFEFFE3F07103E
:10026000FCCB0720FF3F082000400820D4C1072016
:10027000C8C10720D0C107200DF00EB90DF014B988
:100280000DF012B910B504468AB068460DF0B0FB07
:10029000204A214B2260089A2049A260079A626096
:1002A00052B90A681E4882428ABF02F1604202F1D6
:1002B0007042A2F5E82262606268B2F5803F82BFB8
:1002C00002F17042A2F5E82262600022E2600A6850
:1002D00013498A4205D8C3F1405303F50C239B1AF6
:1002E00009E010498A4207D8C3F1804303F580131F
:1002F0009B1A002B00DDE36020460B4BE2611B687C
:10030000A3610A4B1B686361094B1B6823610AB038
:1003100010BD00BFFC0B0000FCCB0720CCC10720A8
:1003200000800010FF3F0820C8C10720D0C107206F
:10033000D4C10720FEE70000014B1860704700BFE2
:10034000DCC10720014B1860704700BFD8C10720EF
:1003500008B502480EF0DEFAFEE700BF10380200D2
:1003600008B502480EF0D6FAFEE700BF2A380200B0
:100370000020704701207047F8B5084B16461A68F0
:100380000F461C4642B10D46EB1BB34204DA23680C
:1003900015F8010B9847F7E73046F8BDDCC1072098
:1003A000F8B5094B0F46186816461C4658B10D465D
:1003B000EB1BB34205DA23680020984705F8010BD0
:1003C000F6E726EAE670F8BDD8C10720704700209E
:1003D00070470000074B1B689A68824207D05A6832
:1003E000824204D0DB681B1A5842584170470120F2
:1003F000704700BF48C107200020704700207047A9
:1004000030B504468DB0A8B3684608F09BFF9DF850
:100410000030002503F03F0303939DF8013003A84B
:1004200003F03F0304939DF802300B9503F01F0384
:1004300005939DF8043003F01F0306939DF80530E3
:1004400003F00F03013B0793BDF80630C3F30B0322
:10045000A3F26C7308939DF8033003F0070309932C
:10046000BDF80830C3F30B03013B0A930DF046F9C6
:1004700084E8210000200DB030BD000070B50F4DA4
:100480000F4E2C6814F0010415D128460BF040FBE8
:1004900088B14FF40E70FFF7EFFE302380F835324D
:1004A0003A2380F8344280F8363280F837423060A0
:1004B00028460BF039FB306870BD00BFFCC1072037
:1004C000E4C1072070B50F4D0F4E2B6813F00104E7
:1004D00016D128460BF01CFB90B14FF40E70FFF7BD
:1004E000CBFE012380F83432312380F835323A23B1
:1004F00080F8363280F83742306028460BF014FB23
:10050000306870BDF8C10720E0C107202DE9F04731
:10051000ADF50A7D0F4608F024F9041E04DD0AF04B
:100520006BFD20460AF0F8FA0DF1140844462B4DF5
:100530000FCD0FC42B68102123600DEB01020024A6
:100540000AA804940AF012FB25498146254A384638
:1005500009F088F926460AAD4FF0000ACA451ED0B8
:100560006B69A34217D1AA69049B164423B1642185
:10057000B3FBF1F3B2FBF3F395F80CE00094A98B15
:100580000293890001910392384617496A6858F826
:100590002E3009F067F90AF1010A2035DEE701344F
:1005A000052CD8D1049B64229E1BB3FBF2F30F49A8
:1005B0000F4AB6FBF3F30096384609F053F90AF0F8
:1005C0008DF9102804D938460A49102209F04AF951
:1005D00001200DF50A7DBDE8F08700BF4438020018
:1005E000633802008A3802008F380200AC380200FB
:1005F000CB380200D638020010B50C46ADF5007DB0
:1006000068460BF009F8204669464FF0FF3209F0C2
:10061000F3F801200DF5007D10BD000030B50C464B
:1006200091B02C49054607F0A8FF002847D008AB39
:10063000009309AB01930AAB02930BAB03930CAB92
:1006400004932846244906AA07AB07F0FEFE0728B4
:1006500001D000203BE09DF83930069A0DA862F3E6
:1006600003038DF83930079A9DF8383062F304039C
:100670008DF83830089ABDF83A3062F30B03ADF8C4
:100680003A30099A9DF8363062F304038DF836301B
:100690000A9A9DF8353062F305038DF835300B9AD0
:1006A0009DF8343062F305038DF834300C9A9DF8D0
:1006B000373062F302038DF8373008F06BFE08F034
:1006C00005FF06490246204609F0CCF8012011B08A
:1006D00030BD00BF00390200043902005D5B02003A
:1006E000F7B50D465149044608F037F8064640B1C3
:1006F00007F066FA28464E494FF0FF3209F07CF8C1
:1007000090E020464B4908F028F860B307F07CFAE7
:1007100049490246284609F0A5F807F081FA4749F9
:100720000246284609F09EF807F074FA444902464A
:10073000284609F097F8304607F05CFA0646012093
:1007400007F058FA0446022007F054FA074603203F
:1007500007F050FA009701903A492846324623465E
:1007600009F080F85EE02046374907F006FF50B1F7
:1007700001212022204607F09EFF204607F0EFFFD0
:1007800007F06AFB4EE02046304907F0F6FE0646C9
:1007900020B920462E4907F0F0FE88B301212046FB
:1007A000202207F088FF20462A4907F0FDFE60B9A5
:1007B0002046294907F0F8FE28B92046274907F0C6
:1007C000F3FE044602E0032400E002242046314602
:1007D00007F098FA224A234B002E18BF1A463CB164
:1007E000012C07D01C491B4B022C18BF0B4602E002
:1007F0001D4B00E0194B28461C4909F033F811E065
:10080000204607F0ACFF1A491A4A0090F72301204E
:1008100007F086FA204607F0A2FF1749024628464D
:1008200009F020F8012003B0F0BD00BF3F390200FD
:10083000453902005E390200653902007A3902004A
:100840008F390200AE390200DE390200E2390200BF
:10085000EA3902003A39020034390200E24C02005F
:10086000253902001D3902002E390200F339020039
:100870000C3A0200583802003F3A020030B589B005
:1008800004AB002400930D460222194903AB0394E4
:10089000049407F0E8FD022827D107AB009305AACE
:1008A0000398049906AB05940694079403F0BEFEE2
:1008B000024638B1049B284600930E49039B08F07A
:1008C000D1FF10E0059A069B002A079C08BF012271
:1008D000002B08BF012328460749B4FBF2F2B4FB02
:1008E000F3F308F0BFFF012000E0204609B030BD5F
:1008F0007A4C02004D3A02006C3A02002DE9F047B2
:100900000C46ADF5866D4A49064607F0C0FE4949DA
:100910008146304607F0E4FE3046464907F000FFC6
:100920000023454920468DF8073008F09BFF2368D7
:1009300020461B680DF107014FF0FF3298479DF8E4
:100940000730782B6FD0304607F009FF01220146AF
:1009500083A805F08BFE054640B1304607F0FFFE48
:1009600036490246204608F07DFF5CE00DF10C0A96
:1009700029464FF4007250460CF0E2FD02950AF051
:1009800037FEA84606460F4683A851464FF400722C
:1009900002AB05F004FF08B9029B33BB83A806F045
:1009A000D6F8B9F1000F19D00AF022FE4FF47A728E
:1009B00000230CF089F8002305464FF47A72304684
:1009C00039460CF081F8281A14BF0346012320464B
:1009D0001B494246B8FBF3F308F044FF204619498F
:1009E0004FF0FF3208F008FF1DE09844B9F1000F06
:1009F000CAD14D46029B9D42236808D21AF80510C1
:100A00005B6820464FF0FF3298470135F2E71B68DC
:100A100020460DF107014FF0FF3298479DF807304F
:100A2000782BB1D1BAE701200DF5866DBDE8F087CE
:100A30009A3A02007A4C0200A33A0200E63A020017
:100A4000FA3A0200884002002DE9F0470023BEB0C8
:100A50000C46554905460C9307F07FFE20B9284601
:100A600007F07DFE064600E0504E15A8314606F020
:100A700026F9054620462DB14D4932462B4608F051
:100A8000F1FE8CE04B49324608F0ECFEA8461EAF62
:100A9000802315A80DA91397149306F054F9002884
:100AA00065D19DF83D30002B61D09DF83C10DDF8FC
:100AB00034C011F0100F09BF0C9B442263440C9307
:100AC0000ABF2D22013508F1010811F0010F14BFF2
:100AD00052232D2311F0020F14BF4FF0480A4FF09C
:100AE0002D0A11F0040F14BF4FF053094FF02D09D8
:100AF00011F0200FBDF8381014BF4FF0410E4FF029
:100B00002D0ECDF808E04FEA612EBDF83A000EF246
:100B1000BC7ECDF80CE0C1F3431E01F01F0105912E
:100B2000C1120691C0F345100DF13D01CDF810E062
:100B3000CDF820C007900991CDF800A0CDF8049021
:100B400020461D4908F08EFE20461C494FF0FF321A
:100B500008F03EFE394620464FF0FF3208F038FEDE
:100B6000204611494FF0FF3208F046FE8FE700950E
:100B70003EAD55F8C83D12494246204608F072FE87
:100B8000304629460BAA06F00DF940B90B9B2046CA
:100B90009A780C9B0B495A43520808F063FE0120D7
:100BA0003EB0BDE8F08700BF88400200153B020060
:100BB000183B02003C3B0200573B0200843B020012
:100BC000883B0200B23B020070B50D46064607F0B6
:100BD000C6FD0446304607F0C2FD06F0A5F9064AF8
:100BE000064B0749002818BF13462846224608F03E
:100BF00039FE012070BD00BF723D0200683D020059
:100C0000C63B020070B50D46064607F0A8FD044637
:100C1000304607F0A4FD06F02AF9064A064B0749BC
:100C2000002818BF13462846224608F01BFE012064
:100C300070BD00BF723D0200683D0200E23B020051
:100C40007FB503AB002400930E4602220F4902AB8E
:100C50000294039407F007FC022814D1029D039C20
:100C60002846214606F00AFA094B0A492A46002876
:100C70000CBF08461846084900902346304608F045
:100C8000F1FD012000E0204604B070BD7A4C020066
:100C9000723D0200683D0200F43B020030B5ADF544
:100CA0000D7D0C46054607F05AFD0A22014603A8B1
:100CB00005F0DCFC40B1284607F051FD1F49024613
:100CC000204608F0CFFD35E08DF8070002901C4962
:100CD00020467E2242F2107308F0C4FD20461949D6
:100CE00008F0C0FD236820461B680DF1070142F2A1
:100CF0001072984718B19DF807307E2B03D103A8D6
:100D000005F025FF16E003A80DF10701012202AB53
:100D100005F003FE10B9029B012B02D020460A49C0
:100D2000DEE7236820465B689DF807104FF0FF322E
:100D30009847D7E701200DF50D7D30BD0C3C020032
:100D4000333C02006B3C02008B3C02002DE9F04773
:100D5000ADF5407D002304AC236003930D46009461
:100D60004249022203AB07F07EFB022806D0284648
:100D70003F494FF0FF3208F03FFD71E017A82168AE
:100D800005F09DFF18B128463A49226807E017A8E8
:100D9000039905F094FF28B128463749039A08F0D3
:100DA00061FD5DE040A94FF4807205A807F01CFBCF
:100DB0000AA880A94FF4807207F016FB20AB1593A8
:100DC00017A880230FA9169305F0BDFF002841D175
:100DD0009DF84530002B3DD09DF8443003F01003C2
:100DE00003F0FF06002BE9D1039A0DF1450305A896
:100DF000224907F0FEFC22680DF145031F490AA8AD
:100E000007F0F7FC05A807F0AAFC80460AA807F03F
:100E1000A6FC074605A8DDF83C9007F0A0FC82463A
:100E20000AA807F09CFC324601463346009650461D
:100E300003F0FCFB124A134BCDF8009000280CBFC6
:100E40001846104610490190424628463B4608F095
:100E500009FDB3E70AA807F0DDFA05A807F0DAFAFA
:100E600001200DF5407DBDE8F08700BF7A4C0200FF
:100E7000B23C0200F73C02001C3D02003C3D020077
:100E8000723D0200683D0200423D0200F8B50D4689
:100E90002349064607F061FC0446074628B1FFF7E0
:100EA00011FB002100F235200AE030461D4907F011
:100EB00054FC044650B1FFF7E1FA394600F2352000
:100EC0000A4606F06BF91849184B1EE030461849DF
:100ED00007F043FC044648B1FFF7F4FA012200F2A0
:100EE000352105F085FB1349134B0EE030461349BD
:100EF00007F033FC044680B1FFF7C0FA012200F28C
:100F0000352105F075FB0E490E4B002808BF194628
:100F10004FF0FF32284608F06FFC2046F8BD00BFB6
:100F2000C93D0200D33D02006B3D0200613D02005D
:100F3000E03D0200883D0200783D0200E93D0200EC
:100F4000AD3D02009F3D020008B508464FF0FF325C
:100F5000084908F051FC06F033FE4FF4FA6009F03E
:100F6000DBFD4FF08043AA221A7200221A70012082
:100F700008BD00BFF53D020010B501200C4607F08A
:100F800027FA38B100210A460B4609F03FF92046FE
:100F9000044901E0204604494FF0FF3208F02CFCE0
:100FA000012010BD063E02001C3E020038B5064C72
:100FB000236833B91C20FFF75FF9054608F0CAF82B
:100FC0002560206838BD00BFF0C107202DE9F04F33
:100FD0000D46C7B05549814607F0E6FA54498246A6
:100FE000484607F0E1FA53498346484607F0DCFAE1
:100FF00000270DF1100805AE044602970397C8F8C4
:1010000000703760BAF1000F45D0009648464A4953
:1010100002AA03AB07F019FA012807DC2846474962
:101020004FF0FF3208F0E8FB38467CE00DF118087D
:101030004FF480744046394622460CF081FA3368FA
:1010400013B90123336003E0B3F5807F88BF3460B8
:10105000FFF7ACFF33689DF808109DF80C20009353
:10106000434608F0C4FC364A364B3749002808BFCF
:1010700013462846029A08F0F5FB002433689C4288
:101080004ED2039A18F80430224428462F4908F01B
:10109000E9FB0134F2E7BBF1000F2CD0CDF8008062
:1010A00048462B4902AA03AB07F0CFF9032807D023
:1010B000284628494FF0FF3208F09EFB504632E0A8
:1010C000FFF774FF9DF808109DF80C2098F8003089
:1010D00008F0A2FC48B1039B284600931E49D8F8AB
:1010E0000020029B08F0BEFB1AE028461B49029A2A
:1010F00008F0B8FB14E0A8B102230293029BFE2B78
:1011000010DCFFF753FF9DF8081008F090FC20B1A9
:1011100028461349029A08F0A5FB029B0233ECE72C
:10112000012000E0204647B0BDE8F08F9D4D020051
:10113000553E02005B3E0200643E0200733E020028
:10114000723D0200683D0200943E0200B83E02007B
:10115000C83E0200D83E0200FF3E0200193F0200D6
:10116000363F02002DE9F04F5F4C91B023680E46E8
:1011700033B92C20FFF780F8054608F07FFA256088
:101180002768FFF77BF90DF1400B00244BF80C4D5D
:1011900000F2352059460CAA05F004FE48B90C9A15
:1011A0000D9C95699378023D5C435D4364086D082E
:1011B00000E025464D4B1A6898467AB90C20FFF797
:1011C0005BF88146FFF7F2FE902389F80430002394
:1011D000C9F80000C9F80830C8F80090D8F8000035
:1011E00003F012FA80460BF029FC82460BF082FADB
:1011F000014640460BF0C8F93D490BF0CFFA0BF021
:101200001DFC814658460AF065F804F04BF950B3CE
:1012100008F0D6F904F030F90023024698469B46C0
:1012200093420DD018460B920A9304F089F90A9B59
:10123000584588BF98460B9A88BF83460133EFE72D
:1012400008F0D6F9642303FB0BF32A4A3046B3FBBC
:10125000F2F3C3F164038DE80809274922462B46BF
:1012600008F000FB05E03046244922462B4608F0F2
:10127000F9FA234C23681BB90120FEF7FDFF20601B
:10128000206803F085F9044608F020F99DF839300C
:10129000019003F00F0302939DF83830009403F09F
:1012A0001F030393BDF83A303046C3F30B03049396
:1012B0009DF83630134903F01F0305939DF8353030
:1012C000524603F03F0306939DF8343003F03F038A
:1012D0000793BB8C0893FB8C09934B4608F0C2FA2A
:1012E000012011B0BDE8F08FF4C10720E8C107204C
:1012F00000002041A08601005C3F0200903F0200F8
:10130000ECC107209E3F020070B5ADF50A7D054691
:101310000C4607F091F80B2803DD204620490C22EB
:1013200037E0284607F01BFA0122014601A805F024
:101330009DF9064638BB01A805F009FC284607F0D0
:101340000EFA18490246049B204608F08BFA2368DF
:1013500020469B6898470A2009F0DEFB09F0DEFE74
:10136000284607F0FCF902460F4B0068516803C39A
:1013700090680E4A186043F80C2C4FF08043AA2264
:101380001A721E7007E0284607F0E9F90246204667
:10139000074908F067FA01200DF50A7D70BD00BF0E
:1013A0001B40020042400200484002400DD0ADDE2A
:1013B00089400200F0B5404CA5B023680646DB0723
:1013C0000D460CD420460AF0A3FB40B14FF48060D8
:1013D0000CF062F8394B186020460AF0A5FB304645
:1013E000374907F0E1F80746044610B30021802290
:1013F00004A80CF0A5F800230293039303AB009319
:10140000304904AA02AB304607F01FF82B4A029B72
:10141000116804A8039A13B903F0A8F901E003F0D6
:10142000C8F90346284A29492846002B18BF114607
:1014300037E03046264907F0B7F80746002838D08D
:10144000304604AB234903AA039404948DF8084062
:1014500006F0FBFF039E049B3344B3F5806F0DDD64
:1014600028461D494FF4806221E0144B9DF8082066
:101470001B689A559DF8083001361C44039B049A5A
:10148000F31A934210DAB6F5806F0DDA2B6828460E
:101490001B6802A94FF4FA6298470028E5D1284654
:1014A0000E4908F0DFF904E0284622460C4908F00E
:1014B000D9F9384625B0F0BD04C2072000C2072084
:1014C000B4400200BB400200A24002009E40020065
:1014D000CB400200D2400200DC400200004102008A
:1014E0001041020030B50C46054687B00A4908F0A5
:1014F000B9F9A17A62880091E17A23880191E188A3
:101500002846029121890391A1880491034908F09A
:10151000A9F907B030BD00BF2141020057410200C8
:101520001FB501A80C4602F065FB02F04FF801A9B7
:1015300002462046FFF7D6FF012004B010BD000090
:101540002DE9F0418CB003AB002400930E46154604
:101550003A49022202AB0294039406F084FFA042AF
:1015600039DD02980BF08DFD5FFA80F8039818B111
:101570000DF0ABFCC4B200E0044604A8002102F068
:10158000C1FE30B130462E494FF0FF3208F034F939
:10159000F3E7003518BF0125022300934046294692
:1015A000039A234602F048F9074638B930462549E0
:1015B0004FF0FF3208F020F901273BE0002D39D031
:1015C00004A84FF47A7102F0A7FE70B39DF81030B2
:1015D00043452AD101E027462CE09DF817300C2B1B
:1015E00004D1304606A94246FFF77CFF3046B4B925
:1015F000154908F037F99DF817309C420ADA33682C
:1016000004AA2244117A5B6830464FF0FF329847B3
:101610000134F0E730460D4908F024F90AE00C499E
:101620004FF0FF3208F0E8F804E030460949029A2A
:1016300008F018F938460CB0BDE8F0817A4C020089
:101640007541020097410200BF4102006C4902004F
:10165000D3410200F041020038B50D4607F081F891
:101660000446C0B201F0A6FF054A064B0649002811
:1016700008BF13462846224608F0F4F8012038BD7A
:1016800016420200683D02001D42020037B50C46BA
:1016900002F014F905461649204608F0E3F815490A
:1016A00020462A4608F0DEF82046114908F0DAF80C
:1016B000D5B11149204608F0D5F820460C4908F06C
:1016C000D1F80025E8B202F0E3F8013540B18178A5
:1016D0000278437800912046084908F0C3F8F1E702
:1016E0002046034908F0BEF8012003B030BD00BF1A
:1016F000344202004F42020069420200844202006A
:1017000030B58BB00AAA4FF47A730C4642F8243DE8
:10171000174906F09AFE002502A8019902F0F2FD91
:10172000D8B1204613499DF8082008F09BF8002501
:101730009DF80F309D420ADA236802AA2A44117AE2
:101740005B6820464FF0FF3298470135F0E72046AE
:10175000094908F087F80125DEE72DB92046074939
:101760004FF0FF3208F048F801200BB030BD00BF49
:10177000D94002009F42020087400200B6420200A8
:101780002DE9F3473C4C074626688946002E62D176
:101790002420FEF771FD0423054680E8480086609A
:1017A000C660202130460DF01FF9AE68E8604FEAB0
:1017B0008608072E0ED81020FEF75EFD8246002117
:1017C00010220BF0BDFEEB68013643F808A008F1CB
:1017D0000408EEE7002608234FF001086B6085F847
:1017E000208028462549264A264B0096256005F08C
:1017F00063FF20682449254A254B009605F05CFFCD
:1018000020682449244A254B009605F055FF20689E
:101810002349244A244B009605F04EFF20682349B3
:10182000234A244B009605F047FF20682249234AAB
:10183000234BCDF8008005F03FFF20681E49214A68
:10184000214B009605F038FF009620681F49204A7A
:10185000204B05F031FF38461F4906F07EFF18B1D6
:1018600038461E4907F033F839464A46206802B028
:10187000BDE8F04706F002B80CC207202D1B01009E
:10188000C7420200CE4202000119010008430200D3
:101890001143020001170100654302006843020082
:1018A000591601004C4A02008B4302008D160100BC
:1018B000D1430200B5430200411501001A44020061
:1018C000D8430200194402001E4402002115010001
:1018D0005E44020043440200884002006444020067
:1018E00038B5064C236833B95820FEF7C5FC0546C9
:1018F00007F008FD2560206838BD00BF08C207203A
:101900002DE9F04F0446ADF2DC5D80220DF1B40903
:1019100088460DA800210BF013FE002180224846C6
:101920000BF00EFE06AE002333602046009675498C
:101930000DAA4B4606F089FD032801D00020DDE00A
:10194000EDA80DA9012204F091FE05460028F5D16D
:10195000FFF7C6FF33684DA980F853308022044654
:1019600008A88DF81750079506F03EFDCDF80090B9
:10197000404665490DAA336807F074FF2F46EDA86D
:101980006DA94FF4007207AB04F009FF38B1EDA860
:1019900005F0DDF808A806F03DFD0120AEE0079B4C
:1019A000002BF4D06E1C5949079A204607F05AFFC5
:1019B000236820469B6898476DAB9B46751E4FF089
:1019C000000A0799C3EB0B028A4222680FD20393E5
:1019D000CDF808B0D2F804C020464FF0FF321BF813
:1019E000011BE047029B1A78039B9244E9E7936846
:1019F0002046984708A806F0B2FE834608A806F0DD
:101A00001EFD4FF47A7302465946204607F002FF46
:101A10000121202208A806F04EFE08A806F0A1FE2B
:101A2000504520D008A806F09CFE3949034652468E
:101A3000404607F017FF2046364907F013FF23689A
:101A400020469B689847236820461B680DF11701C4
:101A50004FF47A7298470028F5D1022E06F101035F
:101A600095D81E469FE7079B2B494A460093204680
:101A70003B4607F0F7FE236820469B68984708A876
:101A800006F06DFE824608A806F0D9FC51460246D3
:101A90004FF47A73204607F0BDFE08A81F4906F0F0
:101AA0005AFDD0B908A806F05AFE1D490246404624
:101AB00007F0D8FE2046174907F0D4FE23682046D9
:101AC0009B689847236820461B680DF117014FF467
:101AD0007A7298470028F5D1BFE708A8114906F0A7
:101AE000F6FE079B40461F440F493A46F09B07F01D
:101AF000B9FE002D3FF443AF013D40E70DF2DC5D40
:101B0000BDE8F08F69440200784402008F4402006F
:101B1000A144020087400200C8440200DE440200E3
:101B2000E144020088400200194502002DE9F0411D
:101B3000074686B006AA002442F80C4D0E463C49E2
:101B400006F083FC38460121202206F0B4FD039BF9
:101B5000002B63D0384606F06FFC00285ED0FFF7FC
:101B6000BFFE05468DF80B402B6828461B680DF11B
:101B70000B010522984704460028F5D1039B3846FF
:101B800085F8533006F0EBFD274601464FF0FF3253
:101B9000284607F031FE2B6828469B689847254B5E
:101BA0000594186804902B6828461B680DF10B01FA
:101BB0004FF47A72984778B10DF11501032205A808
:101BC0000BF0A3FC9DF80B8005A804A904228DF856
:101BD00017800BF07FFC38B91822B7FBF2F302FB39
:101BE000137262B101330AE0336830465B684146E4
:101BF0000122013798470028D5D10134D3E7304678
:101C00000D493A4607F02EFE74B161230093304629
:101C10000A4922460A4B07F025FE05E030460949ED
:101C20004FF0FF3207F0E8FD012006B0BDE8F0817B
:101C3000D94002001D410200254502004C4502002A
:101C40000546020041460200014B01221A7070470E
:101C500010C2072070470000F0B587B009F0C8FC3B
:101C6000514B4FF400720093504B064601930F46C0
:101C700000206421134606F079FF04464C480CF01E
:101C800049FE4CB94B4B032000934B494B4A33233D
:101C900006F046F8204685E049480CF0C5FD0221D3
:101CA000002007F0DBF80E21ADF81000002007F04F
:101CB000D5F81321ADF81200002007F0CFF84FF649
:101CC000FF71ADF81400002007F0C8F80024224688
:101CD00023460421ADF81600009401940294039465
:101CE00004A8384D07F0D4F8204607F0ABF80523D8
:101CF0002B71AB78214664F30303AB70EB78324869
:101D000064F3C713EB706C71AC71EC712C726C7274
:101D1000AC72EC722C736C73AC73EC730CF084FDCE
:101D2000294620460A2207F039F8044627480CF0D5
:101D30007BFD254821460CF077FD0CB1244808E0D6
:101D4000244B032000931C491C4A552305F0E8FF4F
:101D500021480CF069FD304639464FF47A72002371
:101D60000AF0B2FE10F57A7441F1000509F040FC6A
:101D70004FF47A7200230AF0A7FEA94208BFA042DE
:101D8000F4D3002015490A2206F0B6FF0446144891
:101D90000CF04AFD14B113480CF046FD12480CF04B
:101DA000B9FD012007B0F0BD491C0100551C010020
:101DB00087460200CA460200984602006D460200AD
:101DC0000147020011C20720164702002B470200FC
:101DD0003B470200584702007D47020021C207200E
:101DE000BF47020093470200A647020001480CF0DB
:101DF00091BD00BFCF47020038B504460D4609F03B
:101E00006FFD074BB0FBF3F00223B0FBF3F29542FA
:101E100001D3236138BDB3F5807FFAD00233F4E7F4
:101E200040420F007FB500F235260C4601223146B4
:101E300004F0DEFB054650BB04A941F8040D02AADC
:101E4000304604F0AFFF00BB029A039B9078926982
:101E500003FB00F1023A42435208B2F5004F10482A
:101E600034BF01254FF480654FEA51010D4BB1FBA2
:101E7000F5F128BF0346B2FBF5F28DE80A000A48E7
:101E800021460CF0D1FC012008E0084B00E0084B93
:101E9000084821462A460CF0C7FC002004B070BD5B
:101EA0000D4802000A4802001748020010480200CC
:101EB000144802004548020038B5074C23684BB966
:101EC0000820FEF7D9F90546FFF770F8402328608F
:101ED0002B712560206838BD3CC2072038B5054C01
:101EE000256825B90120FEF7C7F905702060206834
:101EF00038BD00BF38C2072038B5084C23685BB92D
:101F00000C20FEF7B9F90546FFF750F890232B7126
:101F100000232860AB602560206838BDE8C1072039
:101F200010B5044C23681BB90120FEF7A5F9206009
:101F3000206810BDECC1072010B5044C23681BB904
:101F40000120FEF799F92060206810BD34C20720F7
:101F5000AD49AE4A4023F0B58B614FF000739361F9
:101F60004FF480338B61AA4BADF5057D18680725CA
:101F700020F0F00018601868022440F0500018604B
:101F8000186820F440501860086840F0400008606D
:101F9000186820F47C201860186840F42820186025
:101FA000186820F470001860186840F42000186069
:101FB000186820F040401860186840F00040186031
:101FC000586820F03C005860586840F0280058607D
:101FD000586820F003005860086840F480300860BA
:101FE000586820F440505860086820F48000086069
:101FF000D96821F44031D960116841F080711160D5
:10200000596821F440215960596841F48021596090
:102010009868804901409960116841F4897141F0E4
:1020200001011160996821F470119960996821F09B
:1020300070419960116821F446411160D96821F01E
:102040003001D960D96841F03001D960D96821F4F4
:102050007011D960136843F000731360136823F0A4
:102060008063136006F08CFC0A20012109F058FA05
:102070000A20012109F06CFA6748012105604460DB
:10208000FFF7BAFE07F02CFA1520012109F048FAF3
:102090001520012109F05CFA6048012105604460C7
:1020A000FFF7AAFEFEF782FF642107F01DF810B9C2
:1020B0005B480CF02FFC09F071FA02F0FDF810B942
:1020C00058480CF027FC4FF4FA6006F017FCFFF7B5
:1020D0008DFE09F005FC0AF009FB53490AF012FCD9
:1020E0000AF08AF902460B4650480CF09DFB09F0B5
:1020F000EBF8052804AC14D1002363604C4B1B683B
:102100002360FFF773FE4B4B4B48D96C1A6D5B6D28
:1021100000940CF089FBFFF769FE41F2883006F06D
:10212000EDFBFEF7ABF94549FFF77CFE054668BBC2
:1021300043480CF079FB03F02DFAFEF79FF929468E
:102140002A4600F2352005F029F83E4B3E4A002889
:102150000CBF104618460CF0DDFBFEF78FF937492F
:10216000FFF760FE90B939480CF0D4FB03F094F906
:10217000014637480CF058FB03F07EF9054603F0A2
:102180008BF905FB00F133480CF04EFB324E334F18
:10219000336813F0010516D1304609F0B9FC90B14F
:1021A0004FF40E70FEF768F8012380F834323123C3
:1021B00080F835323A2380F8363280F8375238606A
:1021C000304609F0B1FC26493868264DFFF72AFE53
:1021D00011481821FFF710FEFFF708FE2B684BB9D6
:1021E0000820FEF749F80646FEF7E0FE3823306087
:1021F00033712E60286802F0DEF80546B0BB1A483D
:102200000CF088FB33E000BF00C0092020C009208B
:1022100000C00240F0FCFCFF0000034000800840CA
:1022200089480200BA48020000247449DF480200CD
:102230004440024000400240F74802006F4902005B
:10224000774902007D48020078480200B449020044
:10225000D3490200E2490200F8C10720E0C107208B
:10226000973D020044C20720FD4902000125FFF707
:1022700043FE02F09FF9064618B972480CF04AFB7B
:102280003546FFF719FE02F017F9064618B96E48F1
:102290000CF040FB35466D4E33681BB90120FDF74D
:1022A000EBFF3060306802F0D5F8FFF739FE02F03E
:1022B0006DF9FFF713FE02F039F9FFF73DFE02F06A
:1022C0006AF9FFF70BFE002102F032F98DB9FFF732
:1022D0008DFDFFF7F1FD2D2102F0D6F8FFF7ECFDA3
:1022E0002D2102F0DDF8FFF7F9FDFF2102F020F9C2
:1022F0000CE0FFF7E1FD0546FFF7FEFD02F084F973
:102300000AF0C2FBC1B2284602F0F2F80021102206
:1023100020460BF015F94E4821460F22002302F00B
:1023200002FA80B920460AF0ACFEC5B2284601F098
:1023300041F9484A484B2946002808BF13464748F8
:10234000434A0CF071FAFFF7EBFD02F021F9054664
:1023500000200DF079FD28440CF0E4FA4FF40072EF
:10236000002120460BF0ECF8204609F055F92146F3
:102370003B480CF059FAFFF739FD80220021204636
:102380000BF0DEF8204603F063F82278FF2A04D031
:10239000214634480CF048FA29E0FFF7CDFD02F061
:1023A000FDF809281DD130480CF0B4FA21462F4819
:1023B0000CF0ECFB21462E480CF036FA2D480CF0C0
:1023C000A9FA00232C4803A903930CF0DFFB9DF826
:1023D0000C30592B03D1204603F018F807E02748AA
:1023E00003E027480CF096FA26480CF093FA4FF2D7
:1023F00008031C684FF20C031D684FF210031E689F
:102400004FF2040319684FF470431A68A40AAD0A26
:102410001D480CF009FA224629461C480CF004FA23
:1024200031461B480CF000FAFFF7E0FC012005F0F4
:10243000FDFB18480CF06EFAFFF7D8FC0DF5057D92
:10244000F0BD00BF184A0200324A020040C2072015
:102450004B4A02001642020083480200514A020021
:102460005D5B0200854A0200A14A0200C34A0200E5
:10247000C84A0200E34A0200264B02002A4B02002F
:10248000424B0200704B0200A24B0200CE4B0200F6
:10249000FB4B0200184C02000120704701207047DE
:1024A0000120704710B5044C23681BB90120FDF7CB
:1024B000E3FE2060206810BD40C207200120704765
:1024C000F8B504460E46C06889000CF08DFAA56880
:1024D000E060AF00B5420BD20C20FDF7CDFE00232B
:1024E000036043600372E3680135D8510437F1E7B4
:1024F0006660F8BD38B504460F4B00250360636D78
:10250000E06D9D4205D250F82500FDF7B7FE01357C
:10251000F5E708B1FDF7B4FE0025A36B206C9D42E2
:1025200005D250F82500FDF7A9FE0135F5E708B101
:10253000FDF7A6FE204638BD584C020010B50446F3
:10254000FFF7D8FF2046FDF799FE204610BD00009A
:10255000F7B5044600250B464FF4805200952549F7
:1025600005F01CFF244B042623606663A563E56326
:10257000256404F134000221FFF7A2FF266565659A
:10258000A565E565284660210CF02EFAA56DE0658D
:10259000AE00172D0CD81020FDF76EFE0746002167
:1025A00010220AF0CDFFE36D01359F510436F0E7AC
:1025B00018236365012384F87030104E0023A4F8BB
:1025C0007430A4F87630A367002200230027C4E902
:1025D0002023C4E9226709F00BF84FF47A72002334
:1025E0000AF072FA80197941C4E92001204603B04B
:1025F000F0BD00BF704C0200584C0200C0D4010076
:102600002DE9F04191E860000F7A14468FB1082A55
:1026100023D1304605F010FF00281CDD2846144960
:102620004FF0FF3207F0D4F83046012106F003F8EE
:1026300008E00A2A19D00D2A12D03046214606F0A9
:102640001BF997B12B6828462146BDE8F0415B682D
:102650004FF0FF3218470724F4E70A2A02D1F1E7C6
:10266000BDE8F0810D2AE8D1ECE7BDE8F08100BFBC
:10267000794C0200F8B50446142015460F46FDF7C4
:10268000FBFD8021064606F0A7F8A36BE26B9A4299
:1026900006D3616B591803D204F13400FFF710FF21
:1026A000E36B226C591C52F82330E1631F605E60BB
:1026B0001D72F8BD2DE9F043CF6B85B006460D467F
:1026C00001AC4FB94FF47A7008F026FA204639462B
:1026D0000C220AF035FF47E00B6C1B6893E80700FB
:1026E00084E8070000238DF8033008F0DFF8804607
:1026F0000027EB6B9F4263D22B6C4FEA870953F89C
:1027000027301868037C33B103680DF103011B689F
:102710000022984708B90137EBE7EB6B9F422BD2B9
:102720002B6C53F8093093E8070084E807009DF804
:10273000032028462146FFF763FF08F059FF4FF4B6
:102740007A7200230AF0C0F9D5E922238018594192
:10275000C5E92001029805F06FFE0746029805F0D2
:102760006EFE013887420ADB94E8070086E807001E
:10277000304605B0BDE8F08305F14403D3E7D5E961
:102780002223134324D008F033FF4FF47A7200233E
:102790000AF09AF9D5E92023994208BF904217D34D
:1027A00008F026FF4FF47A7200230AF08DF9D5E97C
:1027B0002223801859410023C5E920010193D3E762
:1027C00008F074F84045C5D1022008F0A5F9C1E72A
:1027D0009DF803300A2B88D1C6E70000F0B5064605
:1027E00085B020480CF020F801A83146FFF762FFC1
:1027F000019C1CB91C480CF08DF830E0029F384653
:1028000005F01AFE00282ADD08F0F2FE0546F8B1B0
:10281000B6F8743006F150000133A6F8743039462A
:10282000224605F02BF8114B00261868009023680B
:102830001DF806105B6820464FF0FF3201369847BE
:10284000042EF4D108F0D4FE411B09480BF0ECFF34
:10285000384605F0F6FD236820469B68984701201E
:1028600005B0F0BD7C4C020088400200454C0200DF
:10287000824C020038B5064C236833B92C20FDF792
:10288000FBFC054606F0FAFE2560206838BD00BF57
:10289000F4C1072010B50446FFF7ECFF036821469A
:1028A000BDE810405B684FF0FF32184713B50023B6
:1028B00002AC04F8013DFFF7DDFF036821461B6809
:1028C0004FF0FF3298479DF8070002B010BD00009E
:1028D0002DE9F04100F150048AB00025074600952B
:1028E00020465B495B4A5C4B04F0E6FE00952046BF
:1028F0005A495B4A5B4B04F0DFFE009520465A497B
:102900005A4A5B4B04F0D8FE0095204659495A4A72
:102910005A4B04F0D1FE009520465949594A5A4B6A
:1029200004F0CAFE009520465849594A594B04F014
:10293000C3FE009520465849584A594B04F0BCFE46
:10294000009520465749584A584B04F0B5FE00956B
:1029500020465749574A584B04F0AEFE0095204692
:102960005649574A574B04F0A7FE00952046564952
:10297000564A574B04F0A0FE009520465549564A4A
:10298000564B04F099FE009520465549554A564B42
:1029900004F092FE009520465449554A554B04F0E8
:1029A0008BFE009520465449544A554B04F084FE52
:1029B000009520465349544A544B04F07DFE00953F
:1029C00020465349534A544B04F076FE0095204666
:1029D0005249534A534B04F06FFE0095204652492A
:1029E000524A534B04F068FE009520465149524A22
:1029F000524B04F061FEFFF73DFF4FF480734FF43C
:102A000016412022054606F019FE804601262E7446
:102A10004B48FDF797FC4B48FDF78EFC384629469E
:102A20003246FFF727FE03A9082205A805F0DCFCC3
:102A300005A8454905F04BFF05A92A46204604F0A4
:102A40001DFF05A805F0E6FC40460AB0BDE8F08190
:102A50000D050100E24C0200984C0200F90501004E
:102A6000CF4C0200D74C020065110100F54C02006A
:102A7000E74C02001D0601003D4D0200FC4C020027
:102A8000FD080100424D0200464D02007D08010094
:102A9000E54D0200A24D02004D0D0100E44D020083
:102AA000E84D0200490A0100334E0200364E020092
:102AB000C90B0100644E02006A4E0200410C010085
:102AC0008F4E0200924E02009D0C010061670200D1
:102AD000BF4E0200050C0100E44E0200E74E02006A
:102AE000CD0F01000A4F02000E4F02008D0E0100B3
:102AF000C04F0200C84F0200490F01000B500200F6
:102B000012500200E1060100255002002950020087
:102B1000790F0100265102002C510200811701009B
:102B2000D648020054510200B5130100725202004F
:102B30007E51020009130100DA3D02003B520200FF
:102B4000AD280100952801006444020010B50F4C27
:102B5000207828B1002006F075F90023237003E0E7
:102B60000B49024606F01AF90A4B1B786BB10A4C66
:102B70000A49002021600246083906F0BDF82268A3
:102B8000074B1168196052685A6010BD10C20720C7
:102B900046C8072004C0072048C2072064C2072097
:102BA00074C2072070B5214D2C78B4B9204E204650
:102BB0003146224606F0A0F8002835D073680E2B67
:102BC00032D1367A012E2FD11A480BF02DFE1A4B36
:102BD0002E701E70194B1C6070BD174A13781BB302
:102BE000164917480B680078B3EB400F19DA1548FF
:102BF000154A50F82340126814605C1C50F82400F9
:102C00000233506000200B600246104906F0C6F8FF
:102C10000F480BF009FE0F4A012313700E4A137080
:102C200070BD002313702B7070BD00BF6DC20720F4
:102C30004CC20720985202006CC2072070C20720C5
:102C400024C8072090C6072020C8072096C2072066
:102C5000A652020006C0072004C007207047704734
:102C60007047000008B5064B002118684FF0FF328E
:102C70000B4607F09FFB10B1FFF768FFF3E708BDB5
:102C800080C2072008B5064B002158684FF0FF327C
:102C90000B4607F08FFB10B1FFF784FFF3E708BD89
:102CA00080C2072008B5064B002198684FF0FF321C
:102CB0000B4607F07FFB10B1FFF7D0FFF3E708BD2D
:102CC00080C2072008B5064B0021D8684FF0FF32BC
:102CD0000B4607F06FFB10B1FFF7C1FFF3E708BD2C
:102CE00080C2072010B50446FDF7C8FA204610BD83
:102CF000F0B5064685B0002400942B494FF4C0621D
:102D00000D2305F04BFB294B01253360F56121466E
:102D100034622846032207F048FA254F21463860DE
:102D20000322284607F041FA21467860032228460C
:102D300007F03BFA2146B8600322284607F035FA2F
:102D40001C4BF8601D680523C5F38F058DE818003E
:102D50002A462346029403941749184807F098FC22
:102D600006238DE818002A4623460294039414494A
:102D7000144807F08DFC07238DE818002A462346E7
:102D8000029403941049114807F082FC08238DE84F
:102D90001800029403940E492A4623460D4807F072
:102DA00077FC304605B0F0BDC852020070530200F7
:102DB00080C2072094520200D3520200652C010009
:102DC000D7520200852C0100DC520200A52C010024
:102DD000E2520200C52C010070B50D461A4B0024CA
:102DE00053F8216019494B5D0133DBB2934202D0A5
:102DF0004B55204670BD4C55304621462246234651
:102E000007F0D8FA0146B8B1114B53F825502846BF
:102E10000BF080FD28460CF058F823460246294660
:102E20000C4801F0C6FC0C4A0C4B9A644FF08043EE
:102E3000AA221A721C7004E030460A460B4607F0BC
:102E4000E5F9012070BD00BF80C207207CC20720C9
:102E5000B8520200E9520200EFBEADDE004002406F
:102E600010B5032101220446FFF7B6FF80B12046CA
:102E700002210A22FFF7B0FF50B1204601210A22A9
:102E8000FFF7AAFF20B1204600210A22FFF7A4FF86
:102E9000012010BD7047704708B501F047FA0120C6
:102EA00008BD10B50446FDF7E9F9204610BD10B580
:102EB0000446FDF7E3F9204610BD000073B5FEF7A8
:102EC000CBFE204D28709020FDF7D6F90446032153
:102ED000FFF73EFB204605F031FA3420FDF7CCF930
:102EE0000646002418494FF400720423009405F0AC
:102EF00055FA164B3046336005F020FA3420FDF7C2
:102F0000BBF9064612494FF47A720423009405F087
:102F100045FA104B3046336005F010FA3420FDF7C7
:102F2000ABF90646FFF7E4FE304605F007FA2B78CA
:102F30001BB12046214605F00FFA4FF0FF3002B0DA
:102F400070BD00BF45C80720D6480200C853020024
:102F500000540200E853020038B5064C236833B928
:102F60002C20FDF789F9054606F010FC2560206845
:102F700038BD00BF90C207202DE9F04385B0FFF7B0
:102F8000EBFF634C4FF42F7221684FF0FF3307467D
:102F900006F040FC002800F0B78024680023E15CC4
:102FA0005C4A202903D03039D1540133F7E7022B92
:102FB000137808BF5278584E04BF03EB830302EB2B
:102FC00043033370554831780BF02EFC3578002DD3
:102FD00068D1534B534C1A78082182F001021A70C1
:102FE000A278DFF86C8161F30302A270E2782571A8
:102FF00065F3C712E27098F800206571A571E5715C
:103000001E468AB3DFF84C91D9F8000009F0F4F9B4
:103010000B460246444968460BF0A0FE69464FF055
:10302000FF32384606F0D4FB4FF0FF323F493846B6
:1030300006F0CEFBD9F8040009F0DEF90B46024693
:10304000394968460BF08AFE69464FF0FF32384630
:1030500006F0BEFB384635494FF0FF3206F0B8FBAC
:10306000334B88F800501D70337813B90122227257
:1030700001E000232372217A2E486372A372E37267
:1030800023736373A373E3730BF0CEFB0020254916
:103090000A2205F083FE08B1274800E027480BF01C
:1030A000C3FB31E0264B0022A71C15461C460F210E
:1030B00019719978082060F303019970D9785A71D1
:1030C00062F3C7119A71DA71D9703378B5EB430F97
:1030D00010DA384669460CF0CFFD1A4B009F43F8D2
:1030E000250009F089F902460B4617480BF09CFBB6
:1030F0000135EAE7124900200A22237205F04EFE4C
:10310000014612480BF090FB012005B0BDE8F083AA
:1031100000C0072094C2072024C807200D540200D5
:1031200005C0072025C807202654020029540200A4
:1031300004C007202C5402004154020065540200D0
:1031400035C8072090C607208B540200A254020005
:1031500006C0072074C2072008B5FFF7FDFE4FF434
:1031600016514FF42F72402306F0F0FA154A092148
:1031700011719178002363F303019170D178537139
:1031800063F3C711D1709371D37113725372937239
:10319000D372137353739373D3730B4A102111714A
:1031A0009178082060F303019170D1785371937185
:1031B000D37163F3C711054BD17002441A6001202B
:1031C00008BD00BF46C8072096C2072020C80720B8
:1031D000242310B503FB010188420BD043783BB197
:1031E000038CD4184FF6FF73A34228BF23460384F1
:1031F0002430F1E710BD000037B5002302A840F8E5
:10320000043D0C4B04215B6898470B4B019A1C68EA
:103210000546141B1A60094822460421FFF7D8FF0F
:10322000074802212246FFF7D3FF281C18BF0120C0
:1032300003B030BD58C8072024C907206CC8072038
:1032400047C9072008B50B4B197803788B420A4B06
:103250000BBF1A889A880132013214BF9A801A80F3
:10326000064B8170DB6820219847003018BF012091
:1032700008BD00BF0DC0072014C9072058C807208B
:103280000A4B02781B789A42094B0BBFDA881A89DD
:10329000013201320CBFDA801A810379C3F3C20212
:1032A000073262F3C5030371FFF7CCBF0DC00720DF
:1032B00014C9072010B5002306499A0011F82340CD
:1032C000844201D1881810BD0133042BF4D10020B1
:1032D00010BD00BF35C9072070B1C3780133DBB220
:1032E000FF2BC37008D10023044A1A44D178043359
:1032F0004908102BD170F7D1704700BF35C907209E
:10330000242202FB01010346024630B58A4206D060
:103310001446243212F8235C002DF7D10FE0044646
:1033200000258B420BD01A79C2F3C2001A8C42EAF4
:10333000004295423CBF1C4615462433F1E7204627
:1033400030BD000038B50546C90001F10804FFF79B
:1033500053FF1C4B1A782B789A4204D102211A4849
:10336000FFF7CEFF0CE019480421FFF7C9FFEB7807
:1033700033B990F82330042443F0800380F82330DD
:10338000002380F8203080F8213002462B4690F848
:10339000231080F8224021F07F01C4F306240C435F
:1033A00080F8234005F1200153F8044B8B4242F88A
:1033B000044BF9D1064A0379127862F3C50303710D
:1033C00038BD00BF0DC0072047C907206CC80720C3
:1033D0000CC0072010B5FFF76DFF0446F8B9FFF7E2
:1033E00069FF0446D8B90F4BDA79D9788A4228BFE9
:1033F0000A46D97A34BF1C1D1C4691422CBF114687
:10340000094CDA7B094B8A4238BF1C46042220460D
:1034100000210AF095F8064AD37A0133D372204688
:1034200010BD00BF35C907203DC9072041C907208D
:1034300014C907202DE9F04105460C464FF0240839
:1034400008FB02188E1D444500F09E8094F823303E
:103450001A0625D5BDB12A7861788A4205D16F78E0
:1034600016F8060C874200F09180E87858B1687829
:10347000884208D116F8061C914204D1A979A27994
:10348000914200F0838094F82220218C03F07F0386
:1034900042EA0323994274DB2046FFF7D3FE75E02E
:1034A0006278002A6DD06DB3297901F0C001C0297E
:1034B00017D116F8060C6978884202D12878904214
:1034C00064D0E778A87887420CD191420AD116F8E7
:1034D000060C2978884205D1A079A979884201D1C2
:1034E00054E079B1A878E17888420BD169789142AB
:1034F00008D116F8060C2978884203D1A079A97959
:10350000884249D094F82210208C03F07F0341EACE
:103510000323984235DB002384F8203084F82130DF
:103520002379C3F3C201CFB21FB12046FFF7A8FE33
:1035300027E003F0C003C02B19D01C4B16F8060C73
:103540001B78984213D1E378934210D07BB1637912
:10355000032262F307136371E1702046FFF790FEC8
:10356000134A2379127862F3C503237100E001271F
:103570006078FFF79FFE18B10021042209F0E0FFF8
:1035800027B9243424365EE7BDE8F08120460021C7
:10359000242209F0D5FFF4E72279002363F3C50262
:1035A00084F8203084F821302271EAE70DC007202A
:1035B0000CC00720431EDBB2FD2B9DBF024B1870D1
:1035C00001200020704700BF0DC00720014B187874
:1035D000704700BF0DC0072007289CBF014B187023
:1035E000704700BF0CC007202DE9F7430446914601
:1035F0001E469DF828500F46002963D0354B93F89E
:103600000080414560D00F2E5ED800285ED0202279
:10361000002109F095FFFF2F237914BF09F0030261
:10362000002262F38713032262F302032A4A6770BF
:10363000127884F8008062F3C503284A2371137856
:1036400084F802800133DBB21370A3710BAB0193DA
:1036500015B94FF0010818E0019AE0791346526855
:1036600053F8081B00EB02085FFA88F8013DB8F137
:10367000180F0193EDB206D80830204409F03AFF44
:1036800084F80780E4E74FF00008DFF85490012346
:10369000384689F80030FFF70DFE0546FFF71CFE9F
:1036A000002389F80030637925B966F30713637145
:1036B000E57005E0AA7862F3071363716B78E37035
:1036C000404603E0084601E00020FFE703B0BDE804
:1036D000F08300BF0DC007200CC0072045C907209C
:1036E00020C90720124B012270B51A7004461E46ED
:1036F00008B9002518E0FFF7A5FD05460028F8D019
:10370000237903F0C003402B06D0C02B0AD1E37805
:1037100053B162789A4207D0617920460909FFF7D0
:1037200011FE01E0802BF7D000233370284670BDD6
:1037300020C9072082B0F0B51746421ED2B28DB024
:10374000FD2A04460D46139301D900205AE0002BB0
:10375000FBD0159B002BF8D0179B002BF5D0169BA8
:10376000002BF2D0149B002BEFD0002148222848D8
:1037700009F0E6FE00219022264809F0E1FE002132
:103780001022254809F0DCFE00210C22234809F014
:10379000D7FE00210C22224809F0D2FE214E224BF6
:1037A0001C703446214B1D7013AD0FCD0FC42B6818
:1037B000002118221E48236009F0C2FE39461C4829
:1037C00017220BF0C6FB0020B3680146984700287B
:1037D000BBD09DF8603013B9FFF70EFD12E0154A1B
:1037E0000123019206220292009304A8FF210022E5
:1037F000FFF7FAFE0028A8D004A8FFF773FF0028FF
:10380000A3D0E9E70DB0BDE8F04002B0704700BFBB
:1038100047C907206CC8072035C9072029C90720D8
:1038200014C9072058C807200DC0072028C9072041
:10383000FCC80720C554020030B5182B8DB00546D2
:103840000C4615D8B2FA82F1181C18BF012049099C
:1038500081420DD08DE80D00294604A822469DF82E
:103860004030FFF7C1FE18B104A8FFF73BFF00E0AE
:1038700000200DB030BD13B50446107852790B46C8
:103880001209009203212246FFF7D6FF02B010BDB5
:1038900000231A4630B5084C990014F823502DB176
:1038A000904201D1601830BD0132D2B20133042BF5
:1038B000F1D1002030BD00BF35C9072000231846D4
:1038C000044A12F823200AB10130C0B20133042B9C
:1038D000F6D1704735C907202DE9F04188B0684618
:1038E0000021202209F02CFEA14B1B7803F0FF04DD
:1038F000002B40F03A819F4E68463369202198475B
:10390000002800F083809C4D6B8801336B80FFF7AB
:10391000D5FF9DF80420A87202F00703032B04D002
:10392000964A137843F0010309E0954B1D789DF802
:103930000230AB4205D1914A137843F00203137071
:10394000E3E0C2F3C2029DF800E09DF80600D7B2A2
:103950008C4904EB440313F801C0F4450AD10B442D
:103960005978814206D199780124CF1B18BF0127CD
:103970009A7018E00134042CEAD183490B689A70DC
:10398000804A587002F10900834283F800E040F059
:10399000C9800A609DF800009DF80230834240F023
:1039A000C480002427469DF80200FFF713FD9DF810
:1039B000022002709DF80220427000228270FFF700
:1039C0008BFC04B117B39DF80030AB4200F09C8033
:1039D0009DF80170FF2F1BD133686846202198475E
:1039E00020B9664A137843F0040313709DF805303C
:1039F00003F00F02511C61F303038DF80530C3F38C
:103A000003139A4202DA6846FFF71CFC00247CE0AC
:103A1000BD422BD164B99DF807304BB1336868467D
:103A20002021984720B9554A137843F004031370B6
:103A30009DF8043003F0C003402B12D19DF80730ED
:103A400013B95248182108E04B480C216A46FFF789
:103A500012FF002858D1002001466A46FFF70BFFED
:103A600052E09DF80330002B4ED1F4E7484B1B7811
:103A7000002BCBD09DF8054004F00F064FEA141838
:103A80004645C3DA013666F303043846FFF712FCF5
:103A90008DF805409DF80340A5421ED19DF8041005
:103AA00001F0C001402906D0A1F180035A425A41D9
:103AB000144618B91BE00122002854D0C0294378CD
:103AC00005D19F4203D0003318BF012300E000233B
:103AD000134303F0010428B90BE0ACB910B96846F0
:103AE00041460FE043788DF80330857804E0C02923
:103AF00039D000258DF803506846FFF7A3FB1CB1B1
:103B000068462946FFF71EFC6C46FFF775FB20460A
:103B100020490422FFF78EFC20461F490222FFF7AE
:103B200089FC22E003330B6034E785423FF439AF70
:103B3000FFF750FC0446FFF7CFFB23783BB19DF81D
:103B40000530A27803F00F0393423FF72AAF9DF8A8
:103B5000003023709DF8023063709DF80530C3F388
:103B60000303A3701DE70346B2E708B0BDE8F08188
:103B700020C9072058C8072014C9072046C90720B4
:103B80000DC0072029C9072008C00720FCC807204E
:103B900028C907206CC8072047C9072000231846FA
:103BA000094A1A4452780AB10130C0B22433902B2A
:103BB000F6D1064B5A780AB10130C0B293F82530DD
:103BC0000BB10130C0B270476CC8072047C907204D
:103BD00008B5FFF76FFB064B28B18278187802FB17
:103BE0000000C00008BD18781823584308BD00BF66
:103BF0000CC0072003490B6803604B6843608B6867
:103C00008360704714C9072030B5414C4FF48035AC
:103C1000E561404CA060E068C506FCD43D48806882
:103C2000C0B20BB90C4665E00B46002A6AD0072AE1
:103C3000384C0D782FDDA5604D78083AA5608D7859
:103C4000A560CD78A5600D79A5604D79A5608D79C9
:103C5000A56001F10805C979A1602E498C69640746
:103C6000FBD58C681C708C685C708C689C70896853
:103C7000D9702849CC68E406FBD48C68083303F873
:103C8000044C8C6803F8034C8C6803F8024C896878
:103C900003F8011C1BE0032A1BDDA5604D78043AE4
:103CA000A5608D78A5600D1DC978A1601949CC6803
:103CB000E406FBD48C68043303F8044C8C6803F8E6
:103CC000034C8C6803F8024C896803F8011C2946F0
:103CD000ABE70131A560013AE568ED06FCD40D4C77
:103CE0000133A46803F8014C9FE7DD68ED06FCD4BE
:103CF000084B9B68631A934204DA14F8015B054B86
:103D00009D60F2E7024B4FF480329A6130BD00BFF4
:103D100000C009200080084007B5002302A9012245
:103D200001F8013D00F01F001346FFF76DFF9DF8FD
:103D3000070003B05DF804FB07B502AB03F8011DF3
:103D400000F01F0019460122002340F02000FFF779
:103D50005BFF03B05DF804FB08B51720FFF7DCFF3D
:103D6000C0F3001008BD07207021FFF7E5BF034630
:103D70000A46A02019460023FFF746BF08B50020D9
:103D8000FFF7CAFFBDE8084000F0FE010020FFF782
:103D9000D3BF0000024B4FF08072DA61704700BF62
:103DA00020C0092008B50020FFF7B6FF40F0010150
:103DB000C9B20020FFF7C0FF024B4FF080729A613A
:103DC00008BD00BF20C0092007202021FFF7B4BF95
:103DD0000021E1200A460B46FFF716BF37B50C4617
:103DE0000546FFF7F5FF21462846FFF7C0FF0D4BBC
:103DF0004FF080721C469A610022ADF80620BDF893
:103E0000063001339BB2ADF8063033B94FF0807302
:103E1000E361FFF7DDFF03B030BDFFF79DFF002832
:103E2000EDD0F3E720C0092008B51720FFF774FF95
:103E300000F0010080F0010008BD07204021FFF7DD
:103E40007BBF08B503460A46612019460123FFF7E8
:103E5000DBFEC0F3420008BD0021E2200A460B460B
:103E6000FFF7D2BE70B5064600200D461446FFF798
:103E700053FF16B100F0BF0002E040F04000C0B2B6
:103E800015B100F0DF0101E040F0200114B101F0B4
:103E9000EF0101E041F010010020BDE87040FFF7A4
:103EA0004BBF10B504460020FFF736FF14B900F0F1
:103EB000F7010DE0012C04D100F0FB0141F00801F5
:103EC00006E0022C14BF40F0080140F00C01C9B21A
:103ED0000020BDE81040FFF72FBF08B50020FFF716
:103EE0001BFFBDE8084040F00201C9B20020FFF707
:103EF00023BF08B50020FFF70FFFBDE8084000F022
:103F0000FD010020FFF718BF40F6DD13984206D8E8
:103F100040F66213B0F5166F38BF184600E0184639
:103F2000A0F51661C9B20520FFF706BF10B504461B
:103F30000620FFF7F1FEFA2C00F0D70102D141F084
:103F4000200104E0B4F5FA6F08BF41F00801062033
:103F5000BDE81040FFF7F0BE10B504460620FFF79D
:103F6000DBFE032C20F0060028BF032440EA4401B6
:103F7000C9B20620BDE81040FFF7DEBEF9284FF0B9
:103F8000FA0305D9B0F57A6F88BF4FF47A6000E084
:103F90001846B0FBF3F00F2900F1FF30C0B228BF84
:103FA0000F2141EA0011C9B20420FFF7C5BE11304C
:103FB000C0B2162804D8202928BF2021FFF7BCBE94
:103FC0007047032804D0042814BF0321022100E015
:103FD00001210320FFF7B0BE03460A4630201946F0
:103FE0000023FFF711BE03460A462A201946002384
:103FF000FFF70ABE73B50E4615460446FFF72CFFC1
:10400000FFF7E6FE2B4B4FF08072DA61FFF771FF8E
:1040100000210A460120FFF725FFFFF7A4FE02203A
:10402000FFF73FFF3046FFF76FFF2846FFF77EFFA1
:104030000320FFF791FF02200321FFF77DFE0120FF
:104040000021FFF779FE4FF4FA700321FFF796FF86
:1040500021460020FFF7ABFF12200021FFF76CFE86
:1040600013200021FFF768FE14200021FFF764FEF3
:1040700015200021FFF760FE00211620FFF75CFEEF
:104080000D4B18681B79009005208DF80430FFF760
:1040900098FF68460521FFF79FFF68460521FFF757
:1040A000A2FFFFF71AFF4FF4FA6004F012FC02B00F
:1040B00070BD00BF20C00920CC54020007B5094BD9
:1040C000002102AA186842F8041D0B4606F037F9D1
:1040D000019B1BB1044B4FF080521A6003B05DF896
:1040E00004FB00BF98C9072004ED00E070B5174E2F
:1040F000326822B90320202106F057F83060144DB1
:104100002A6822B90120202106F04FF82860114CBE
:10411000216821B90120032206F047F82060202001
:1041200040F6C3114FF4FA62FFF764FFFFF73AFE5F
:1041300016200121084A04F0BFFF306828B1286822
:1041400018B12068003018BF012070BD94C9072045
:1041500090C9072098C90720BD40010070B50646E8
:104160000379002203F0C003C02B0CBF0D4B0E4B94
:1041700088B01D6831462846134606F047F80446C5
:1041800060B9224623466946284606F013F92246BE
:1041900023462846314606F039F80446204608B042
:1041A00070BD00BF90C9072094C9072038B50446E8
:1041B0000D46FFF70BFA237883420AD0E37843B920
:1041C0000AF0D8FBBD2300F0030000FB033004F02D
:1041D00080FBFFF7DFFDFFF7D1FD2046A9B2FFF717
:1041E000FDFDFFF7F1FDFFF7DDFD06F067FE02289C
:1041F00006D1044B002118680A460B4606F09FF8CA
:10420000012038BD98C9072038B505460C46FFF790
:104210000BFE48B1A1B22846FFF713FEFFF704FEDC
:1042200008B9FFF70AFE012038BD2DE970430646A4
:104230000D46144606F042FE022807D122463046BB
:104240002946002306F0B6F8C4B21DE007F0D0F905
:104250004FF47A72002308F037FC10EB040841F1A8
:104260000009002230462946134606F0A3F8C4B2DE
:1042700054B907F0BDF94FF47A72002308F024FC1A
:10428000894508BF8045ECD22046BDE870830429EB
:1042900038B5054603D1041C18BF012400E00024F2
:1042A00007F0A6F92CB14FF47A72002308F00CFC49
:1042B0002860204638BD000000B50C4B8DB0099336
:1042C0000B4B0C4A0B930C4B0A930CAB43F8102D81
:1042D000002204920FCB8DE80F00084B0121084A01
:1042E0006A20FFF727FA0DB05DF804FBED400100EE
:1042F000094201008F420100AD4101005D41010012
:10430000D154020003460A46024908681946FFF7DD
:104310008CBF00BF94C9072003460A4602490868BB
:104320001946FFF782BF00BF90C9072008B506F005
:10433000C5FD0F4B02285B6913D15A020DD5FFF75B
:104340002DFC0C4B00284FF00001186814BF01220F
:104350004FF0FF320B4606F02DF8BDE80840FFF79E
:10436000BBBA5B02F9D5FFF719FC0028F5D108BDEF
:1043700000C0092098C9072030B504460D461346F1
:1043800021792A46BDE83040006805F045BB1FB5DD
:104390000A4604AB0021022423F8041D017900948D
:1043A000006805F024FB9DF80C009DF80D3043EAF1
:1043B000002004B010BD10B504462A211922FFF7D1
:1043C000DBFF206821790D2205F015FBA0F12A03FF
:1043D0005842584110BD0000044A13881F2B9FBF4C
:1043E000581C1080024A42F823107047A0C90720C9
:1043F000A4C90720144AF0B51488012C20D9134B06
:1044000000211F46661EB14206DA58681D68013158
:10441000401B43F8040BF5E77B6803EB53010023D3
:1044200018469CB2B44209DA57F8245001338D4241
:1044300082BF012505FA04F42043F2E7044B18601B
:1044400000231380F0BD00BFA0C90720A4C9072026
:104450009CC9072008B50220012107F061F8084B2C
:1044600001209A6A22F007029A629A6A42F00602D2
:104470009A62044AD36843F03003D36008BD00BF9A
:104480000080004000C0024008B5044A01F07F03EC
:104490004171D25C0321FFF76FFF08BDD6540200C3
:1044A00008B5044A01F07F038171D25C0221FFF755
:1044B00063FF08BDD654020038B504460068217970
:1044C00005F0B5FA054688B1204606210022FFF71F
:1044D00053FF204607210022FFF74EFF20462E21E2
:1044E000FFF7D2FF20462E21FFF7DAFF284638BD1E
:1044F000642370B5B1FBF3F404FB1311CCB20A21B1
:10450000B4FBF1F501FB15413031C9B20646FFF7A6
:10451000C7FF092C8ABF05F1300130463046BDE89F
:10452000704094BF2021C9B2FFF7AEBF0120704791
:1045300038B50D46044606F0FDFD05F00F03237067
:10454000114B15F0010F4FF0010214BFDA619A61AF
:10455000227812F0020F4FF0020214BFDA619A6162
:10456000227812F0040F4FF0100214BFDA619A6142
:10457000227812F0080F4FF4807214BFDA619A614A
:10458000BDE8384006F0E8BD20C009200120704792
:10459000022004F02FBA012070470000044B5B6931
:1045A000C3F38130C3F3412343EA8000704700BF67
:1045B00020C0092010B5044601218122FFF7DCFE4E
:1045C00020682179012205F016FA10F0600F14BF5F
:1045D0000120002010BD38B500210546FFF7D7FEA9
:1045E0008122012184B22846FFF7C6FE24B21020A2
:1045F00094FBF0F008F07EF84FF0765108F0CEF81A
:10460000A96807F0C3FF38BD08B5FFF7E4FF054907
:1046100008F0C4F8044908F075F94FF0844107F038
:10462000B5FF08BD000010410000A0402DE9F04F8B
:104630000546ADF2546D0C46904682A829460122EB
:104640009946DDF878A602F011F8002867D12146D6
:104650000DF22C400A2202F009F8044620B182A88B
:1046600002F075FA20465AE0834606460090019013
:1046700006F0BEFF4FF47A72002308F025FA02A973
:1046800007464FF4007282A86B4602F088F8054690
:10469000D8B9009BCBB106F0ABFF4FF47A72002380
:1046A000F61B08F011FA064406F0A2FF4FF47A72E6
:1046B000002308F009FA02A90746009A0DF22C40DF
:1046C00001AB02F02AF90546B8B1B8F1000F01D0EC
:1046D000C8F80060B9F1000F01D0C9F800B0BAF114
:1046E000000F01D0CAF8004082A802F030FA0DF2A3
:1046F0002C4002F02CFA284611E0019A009B9A42C5
:10470000E3D106F075FF4FF47A72002308F0DCF96C
:10471000009BBBEB070200EB020B1C44A8E70DF269
:10472000546DBDE8F08FF0B50446ADF50B7D0F4636
:10473000164621461D4601A800230122009301F0E0
:1047400095FF044670B91DB101A8294602F011FA7F
:1047500001A8394632466B4602F021F8044601A80A
:1047600002F0F5F920460DF50B7DF0BDF0B50446DD
:10477000ADF50B7D0F46164621461D4601A80023C8
:104780000A22009301F072FF044670B91DB101A81E
:10479000294602F0EEF901A8394632466B4602F08E
:1047A000BCF8044601A802F0D2F920460DF50B7DB5
:1047B000F0BDF0B50446ADF50B7D0F46164621461B
:1047C0001D4601A800231222009301F04FFF04466A
:1047D00080B901A80DB1294600E0049902F0C9F999
:1047E00001A8394632466B4602F097F8044601A804
:1047F00002F0ADF920460DF50B7DF0BD7F2816D9EE
:1048000031B1FF2812D80A4B803833F810007047B6
:10481000074A8BB232F81120824203D0013180293D
:10482000F6D10B4603F18000C0B2704700207047FC
:10483000365702000023064A32F8132032B1904264
:1048400001D00133F7E7034A32F81300704700BF85
:10485000365802005655020010B501200C4605F0EE
:1048600048FD2060003018BF012010BD01207047B6
:1048700010B5044606F022FB02280AD100210B469F
:1048800020464FF0FF3205F095FD431E5842584137
:1048900010BD012010BD10B5044606F00FFB022824
:1048A00007D100212046BDE810400A460B4605F01E
:1048B000ADBC10BD10B5044604F082FE24B1012C3D
:1048C00006D100F07BF901E000F0EEFC044600E0C8
:1048D000042404F08DFE204610BD28B1012801D02B
:1048E0000420704700F018BA7047F8B507460E4626
:1048F00015461C4604F064FE3FB1012F0CD1304632
:104900002946224600F010FA04E0304629462246A5
:1049100000F016FD044600E0042404F069FE204681
:10492000F8BDF8B507460E4615461C4604F048FE8D
:104930003FB1012F0CD130462946224600F042FA01
:1049400004E030462946224600F020FD044600E0FF
:10495000042404F04DFE2046F8BD70B506460D4611
:10496000144604F02DFE36B1012E0AD12846214608
:1049700000F082FA03E02846214600F02BFD0446B1
:1049800000E0042404F034FE204670BD08B506F0B3
:104990002FFE4FF47A72002308F096F808BD00004D
:1049A00010B5044606F09CFF074BB0FBF3F0022362
:1049B000B0FBF3F2944202D3044A136110BDB3F585
:1049C000807FF9D00233F3E740420F00000003403C
:1049D000044B9860DA68D206FCD4024B9868C0B2E7
:1049E000704700BF0000034038B5FFF7CFFF00F568
:1049F000FA75FF20FFF7ECFFFF20FFF7E9FFFF2824
:104A0000044606D0FFF7C2FF0023994208BFA84220
:104A1000F2D3204638BD000038B5064C4FF0007583
:104A2000E561FFF7E1FF044AA561137843F0010354
:104A3000137038BD20C009200EC0072070B5054690
:104A40000E46FFF7A3FF00F16404FF20FFF7C0FF4D
:104A5000FF2808D1FFF79AFF0023994208BFA04220
:104A6000F3D3002070BDFE28FBD1102E06D92846B6
:104A70004FF40071002204F041FD19E02C1DFF20CD
:104A8000FFF7A6FF04F8040CFF20FFF7A1FF04F8CE
:104A9000030CFF20FFF79CFF04F8020CFF20FFF738
:104AA00097FF043404F8050C331D1B1BDD42E6D1CF
:104AB000FF20FFF78DFFFF20FFF78AFF012070BD69
:104AC00070B506460D46FFF78FFFFF28044619D143
:104AD0002846FFF77DFFFD2D16D04FF400712246CA
:104AE000304604F00BFD2046FFF772FF2046FFF72B
:104AF0006FFF2046FFF76CFF00F01F00431F584276
:104B0000584170BD002070BD012070BD020638B54F
:104B100004460D4607D577200021FFF7F7FF01284F
:104B200036D804F07F041B4B4FF000729A61DA61B3
:104B3000FFF75AFFFF282AD12046FFF749FF280E2A
:104B4000FFF746FFC5F30740FFF742FFC5F3072015
:104B5000FFF73EFFE8B2FFF73BFF402C04D0482CA4
:104B60000CBF8720012000E09520FFF731FF4C2C7F
:104B700002D1FF20FFF72CFF0A24FF20FFF728FFB8
:104B8000030605D5013C14F0FF04F6D138BDFF2023
:104B900038BD00BF20C00920064A0749137849697B
:104BA000DBB2490154BF03F0FD0343F0030313706C
:104BB000704700BF0EC0072020C009202DE9F34731
:104BC000FFF7EAFF514B1A781E4612F0020F01D090
:104BD000187896E00120FFF7E3FE0A24FF20013C4D
:104BE000FFF7F6FE14F0FF04F8D1494D4FF00073C3
:104BF000EB6140202146FFF789FF012801D0002406
:104C00006EE0FFF7C3FE4FF4D57100F57A7A4820C5
:104C1000FFF77CFF01283DD1FF20FFF7D9FE01AF50
:104C200038550134042CF7D19DF80630012BE6D11C
:104C30009DF80730AA2BE2D1FFF7A8FE4FF000093C
:104C4000494508BF5045D04606D3FFF79FFE49456A
:104C500008BF4045D3D207E0E9204FF08041FFF77D
:104C600055FF0028E8D1F0E77A200021FFF74EFF3A
:104C70000028C4D10446FF20FFF7AAFE38550134AE
:104C8000042CF8D19DF8043013F0400F14BF0C240D
:104C9000042425E02146E920FFF738FF022835BF2C
:104CA00002240124E9274127FFF770FE4FF0000995
:104CB000494508BF5045D0460BD3FFF767FE49452D
:104CC00008BF40450CD34FF400715020FFF71EFF82
:104CD00006E038460021FFF719FF0028E4D1ECE791
:104CE0000C4B1C704FF00073AB613CB13378182053
:104CF00003F0FE033370FFF753FE01E0FFF78CFE75
:104D00003078C0B202B0BDE8F08700BF0EC0072007
:104D100020C0092024CA072008B5FFF73DFF014B3A
:104D2000187808BD0EC00720F8B5144607460E4691
:104D3000FFF732FF002C3AD01F4B1B78DB0738D42B
:104D40001E4B4FF00072DA611D4A1D46127812F0B8
:104D5000080F08BF7602012C0DD151203146FFF714
:104D6000D5FEE8B938464FF40071FFF767FEB0FA98
:104D700080F4640914E052203146FFF7C7FE78B989
:104D800038464FF40071FFF759FE28B1013C14F08A
:104D9000FF0407F50077F3D14C200021FFF7B6FEA2
:104DA0004FF00073201CAB6118BF0120F8BD042038
:104DB000F8BD0320F8BD00BF0EC0072020C00920A9
:104DC00024CA0720F8B5144607460E46FFF7E4FE4E
:104DD000002C45D0254B1A78D20743D41B785B07AB
:104DE00042D4234B4FF00072DA61224A1D461278FA
:104DF00012F0080F08BF7602012C0CD15820314662
:104E0000FFF784FE28BB3846FE21FFF759FEB0FAB3
:104E100080F464091DE012F0060F03D0D72021466C
:104E2000FFF774FE59203146FFF770FE88B9384607
:104E3000FC21FFF745FE28B1013C14F0FF0407F503
:104E40000077F4D10020FD21FFF73AFE002808BFCB
:104E500001244FF00073201CAB6118BF0120F8BD86
:104E60000420F8BD0320F8BD0220F8BD0EC00720C5
:104E700020C0092024CA07207FB504460D46FFF74D
:104E80008BFE052C1AD12B78012B00F0FD8003D36B
:104E9000022B0BD00420FAE07E4B586910F080649E
:104EA00040F0F280FFF7B8FD2046F0E0794B5B69F7
:104EB00083F08063C3F380636B70E5E0764B1B780F
:104EC000DB0700F1E3800E2C00F2D880DFE804F06D
:104ED00008124F53D6D6D6D6D6D6A3A8AAB4C400A5
:104EE0006C4B4FF00072DA61FFF77EFDFF3818BFA0
:104EF0000120C4E049200021FFF708FE044608B164
:104F00000120BCE068461021FFF798FD0028F7D08B
:104F10009DF800309DF809009B09012B9DF8083091
:104F200005D1013000EB03239BB29B021CE09DF8EE
:104F30000710890001EB93135A1C9DF806309DF869
:104F4000051003F0030302EB83239DF80A2001F010
:104F50000F0101EBD212911C00F0030201EB42029F
:104F6000D2B29BB2093A93402B60204687E04FF4BF
:104F700000732B8052E0494E337803F0040303F0B2
:104F8000FF01DBB1CD200021FFF7C0FD0028B7D124
:104F9000FF20FFF71DFD68461021FFF74FFD002899
:104FA000AED03024FF20FFF713FD601E10F0FF0489
:104FB000F8D19DF80A2010231209D4E74920FFF701
:104FC000A5FD044600289BD168461021FFF736FD59
:104FD000002895D031789DF80A2001F0020101F0F7
:104FE000FF009DF80B3051B102F03F02DB0903EBEB
:104FF00042039DF80D2001339209013AB3E7C2F351
:10500000840103F003045A0902EBC402531C01FBA0
:1050100003332B6033E0214B1B782B7000202EE0F4
:10502000492000E04A200021FFF770FD00287FF4AE
:1050300067AF284610211BE07A200021FFF766FDAC
:1050400000287FF45DAF2C1DFF20FFF7C1FC05F8A1
:10505000010BA542F8D1E1E7CD200021FFF756FD75
:1050600000287FF44DAFFF20FFF7B2FC2846402117
:10507000FFF7E4FCB0FA80F0400900E00420054BA3
:105080004FF000729A6102E0002000E0032004B0BB
:1050900070BD00BF20C009200EC0072024CA072011
:1050A000054B1B78253BDBB2032B9ABF034A52F812
:1050B00023000020704700BF28CA0720205A0200A2
:1050C0001B4B2DE9F0411D880646B5F5007F0F46C4
:1050D000144602D1084611460AE0B5F5807F09D191
:1050E000084611462A46B04707F5807004F58071DE
:1050F0002A4617E0B5F5047F05D1510A38468902E2
:105100004FF400720EE0B5F5847F0FD1140A084603
:105110004FF480726102B047611C07F5807049024C
:105120004FF480723346BDE8F0411847BDE8F08186
:1051300026CA0720034610B500295DDD07291A7825
:105140002E4C2FDDA2605A780839A2609A78A260AE
:10515000DA78A2601A79A2605A79A2609A79A2607C
:1051600003F10802DB79A360244B9C696407FBD53B
:105170009C6804709C6844709C6884709B68C370D1
:105180001E4BDC68E406FBD49C68083000F8044C35
:105190009C6800F8034C9C6800F8024C9B6800F87F
:1051A000013C1BE003291BDDA2605A780439A26090
:1051B0009A78A2601A1DDB78A360104BDC68E406C5
:1051C000FBD49C68043000F8044C9C6800F8034C45
:1051D0009C6800F8024C9B6800F8013C1346ABE762
:1051E0000133A2600139E268D206FCD4034A0130DF
:1051F000926800F8012C9FE710BD00BF000003403B
:1052000007B50B0C8DF804008DF805308DF80710EC
:105210000B0A01A804218DF80630FFF78BFF03B0BD
:105220005DF804FBF7B5164607460E4C40250323F0
:10523000E5618DF804300B0C8DF805308DF8071002
:105240000B0A01A804218DF80630FFF773FF3846DA
:105250003146002204F052F9A561A561A56103B0B1
:10526000F0BD00BF00C009200D4B4022DA610D4B9C
:10527000D7229A60DA68D106FCD40A4B9B68094BA6
:10528000FF229A60DA68D206FCD4064B98680306BF
:10529000F5D5034B40229A61C0B29A619A6170477A
:1052A00000C0092000000340F7B5FFF7DDFF1F4CE9
:1052B000002323801E4B1F4E40271A889B78F761DE
:1052C0000546032101A8ADF804208DF80630FFF74C
:1052D00031FF9DF805209DF806301F2AB761B761A0
:1052E000B7611CD1A3F12502032A18D8124A252B35
:1052F000137005F0010006D1002814BF4FF480732D
:105300004FF4847305E0002814BF4FF400734FF48A
:1053100004732380FFF7C4FE084B400A18602088FE
:10532000B0FA80F0400903B0F0BD00BF26CA0720E4
:10533000165A020000C0092028CA07202CCA0720DC
:105340002DE9F0418B1817460E4A013B1268804642
:10535000934214D84D024446FFF786FF0026C8EB5F
:105360000502BE42224407DA21460748FFF7A8FE9D
:1053700004F500740136F2E70020BDE8F081012059
:10538000BDE8F0812CCA0720255201002DE9F0412B
:105390008B1817460D4A013B12688046934212D87B
:1053A00004464D020026C8EB0502BE42224407DA3D
:1053B00021460748FFF784FE04F500740136F2E742
:1053C0000020BDE8F0810120BDE8F0812CCA072053
:1053D000B554010010B50C46072805D8DFE800F0E9
:1053E00006090E1214141414042010BDFFF73CFF1C
:1053F0000AE0FFF755FE400A206005E04FF4007315
:105400000B8001E001230B60002010BD70B590B04F
:1054100003466A466E4600F140051446186859680E
:10542000083303C4AB422246F7D1084D4024EC6157
:105430009B200021FFF7E4FE30462146FFF77AFE6D
:10544000AC61AC61AC6110B070BD00BF00C00920A0
:1054500070B50646074D402477200021EC61FFF728
:10546000CFFE30462146FFF765FEAC61AC61AC6112
:1054700070BD00BF00C00920064B10B51C8834F079
:105480001F0404D0FFF70CFEB0FBF4F010BD204663
:1054900010BD00BF26CA0720014B1888704700BF07
:1054A00026CA0720024B1878003018BF0120704729
:1054B00026CA07202DE9F7434FF0FF330F469046E9
:1054C00001938146FFF7D0FEFFF7ECFF0646B0B12F
:1054D000194C4025194BE5611B880320B3F5847FE7
:1054E0000CBF4FF480714FF400713943FFF788FE11
:1054F00001A80421FFF71EFEA561A561A5610E4C60
:10550000402382203946E361FFF77AFE4846414650
:10551000012203F0F3FF3EB1019B02A8013340F8E2
:10552000043D0421FFF706FE4023A361A361A361AC
:1055300003B0BDE8F08300BF00C0092026CA0720E1
:10554000F7B5124B07461B88B3F5847F4FF0FF3346
:105550000CBF4FF480764FF400760193FFF7A2FF63
:1055600070B10B4C4025032046EA4721E561FFF767
:1055700047FE01A80421FFF7DDFDA561A561A56136
:105580000198431C08BF002003B0F0BD26CA0720C5
:1055900000C0092037B5074B074C1868402501901B
:1055A0000421E56101A8FFF7C5FDA561A561A5611D
:1055B00003B030BD195A020000C009201FB501A870
:1055C00003F0C0FE9DF809309DF8082003F00F039A
:1055D00002F01F025B0543EA02419DF806309DF888
:1055E000040003F01F0341EAC3229DF80530C0F315
:1055F000440003F03F0342EA4313BDF80A20184376
:10560000520602F10842104305B05DF804FB30B5C4
:1056100004460D1F131B0344032B04D955F8043F04
:1056200044F8043BF6E722F00303194402F00302B6
:10563000013B18440A44914204D011F8013B00F8A0
:10564000013FF8E730BD0244904202D000F8011B50
:10565000FAE7704700F10B010023DA0142EA530335
:1056600010F8012B1344884203F0FF03F5D11846CC
:105670007047026810B50446BAB11346184613F8CD
:10568000011B1F2902D93A29F8D101E0002010BDE1
:10569000114611F8013B884207D1303BD9B20129AC
:1056A00003D802321846226010BD4FF0FF3010BD03
:1056B00003692DE9F04101F109020D4653B3416937
:1056C00000244E1E16F8013F0134202B18D0052B64
:1056D00047D0092C02D12E2717700132A3F14107C0
:1056E000192F0BD8082C0F7B8CBF4FF0100E4FF0EA
:1056F000080E1EEA070F1CBF2033DBB21370013205
:105700000B2CDFD1CB7A2B72CB692B600B8BAB8050
:10571000CB8AEB8000241470AE693EB303690BB9E9
:1057200000241AE0EB69002BFAD04FF6FF73028CCD
:105730009A42F5D0D0F81C80771E38F8140060B17A
:105740000021FFF75BF80028EAD0EB69013B9C429F
:10575000E6D2013407F8010FEFE700233355BDE827
:10576000F081092C4FF0E503C8D1B4E7BDE8F08122
:10577000F8B5037904460BB90020F8BD056B00F1BC
:105780003407394640782A460123FFF7CAF890B912
:10579000636AE269EB1A93422071EDD2E678012E3A
:1057A000EAD9E36960781D4439462A460123FFF7A8
:1057B000B8F8013EF3E70120F8BD0000F8B5044653
:1057C000FFF7D6FF05468DBB2378032B26D16679DC
:1057D000012E23D104F13407384629464FF40072D4
:1057E000FFF731FF4AF65523A4F83232104B226AF4
:1057F000636303F1FF5303F500532033C4F81832F9
:1058000063690132C4F81C3223692263C4F8203270
:10581000607839463346FFF784F865710021607877
:105820000A46FFF79AF8003018BF0120F8BD00BF04
:1058300052526141036B70B5994205460E4610D035
:10584000FFF796FF044608B101240BE0687805F1E4
:10585000340132460123FFF748F80028F4D12E63C3
:1058600000E00024204670BD002310B503714FF006
:10587000FF3303630446FFF7DDFFA0B94AF6552363
:10588000B4F832229A4210D1D4F86A30084A23F090
:105890007F4393420AD0D4F8860020F07F40801ADC
:1058A00018BF012010BD032010BD022010BD00BF95
:1058B00046415400F0B50023036085B00746084612
:1058C0001546FFF7D6FE061EC0F2F2807E4B53F857
:1058D0002640002C00F0EE80E068FEF7C9FF0028AB
:1058E00000F0EA803C60237883B16078FEF7F5FF32
:1058F000C1070BD4002D00F0D98000F0040303F0A1
:10590000FF00002B00F0DD800A20DAE00023F0B277
:1059100023706070FEF7CEFFC20700F1CF800DB19B
:105920004307F1D420460021FFF79EFF01281CD138
:105930002146002291F8F6310BB1D1F8FA314DF839
:1059400022300132042A01F11001F3D100265DF862
:1059500026502DB120462946FFF786FF08B90BE0F7
:1059600002200136042EF2D100E00025032800F0C9
:10597000A78008B10D20A4E0B4F83F30B3F5007F54
:10598000F8D1B4F84A0000B9A06D94F844E0E061A1
:105990000EF1FF33012B84F803E0EBD894F841308B
:1059A000A370002BE6D05A1E1A42E3D1B4F845C0CA
:1059B0001CF00F0FA4F808C0DCD1B4F8472002B9DE
:1059C000626DB4F842100029D4D00EFB00FE01EB4A
:1059D0001C177744BA42CDD3D21BB2FBF3F3002B92
:1059E000C8D040F6F572934206D94FF6F576B34229
:1059F0008CBF0326022600E00126023329442F44EF
:105A0000032EA36125626162E76206D1BCF1000F3B
:105A1000B0D1226E9B00A26210E0BCF1000FA9D0B1
:105A2000022E4FEA43020CBF1346D218714418BF2E
:105A300003F00103A16218BF03EB520303F2FF134B
:105A4000B0EB532F96D34FF0FF3363612361032EE6
:105A50004FF08003637122D1B4F86430012B1ED162
:105A60002046691CFFF7E6FEC8B94AF65523B4F88C
:105A7000322260719A4212D1626B144B9A420ED15B
:105A800003F1FF53D4F8182203F5005320339A4250
:105A900001BFD4F81C326361D4F8203223610C4A70
:105AA0002670138801339BB21380E380002008E046
:105AB0000B2006E00C2004E00F2002E0032000E0B1
:105AC000012005B0F0BD00BF34CA07205252614129
:105AD00030CA072010B50446A8B103689BB11A78F4
