:020000021000EC
:10000000E03F082093010100FB000100E100010036
:10001000090101001901010029010100000000008F
:1000200000000000000000000000000001B101001D
:10003000390101000000000091B1010059010100E7
:1000400031B7010031B7010031B7010031B701000C
:1000500031B7010031B7010031B7010031B70100FC
:1000600031B7010031B7010031B7010031B70100EC
:1000700031B7010031B7010031B7010031B70100DC
:1000800031B7010031B7010031B7010031B70100CC
:1000900031B7010031B7010031B7010031B70100BC
:1000A00031B7010031B7010031B7010031B70100AC
:1000B00031B7010031B7010031B7010031B701009C
:1000C00031B7010031B7010031B70100186A0200F1
:1000D00000C00720C4010000C8C10720340A000086
:1000E00004207146084203D0EFF309800BF03EBBB9
:1000F000EFF308800BF03ABB704708B5014807F0F2
:10010000DDFEFEE7AA63020008B5024807F0D6FE4E
:10011000FEE700BFB563020008B5024807F0CEFE57
:10012000FEE700BFC063020008B5024807F0C6FE44
:10013000FEE700BFCB63020008B5024807F0BEFE31
:10014000FEE700BFD863020008B5024807F0B6FE1C
:10015000FEE700BFE663020008B50AF097FF0BF068
:1001600039F8BDE808400AF0A5BF0B4610B55C1A87
:10017000944204D2441AE45843F8044BF7E710BD04
:1001800003461A1A8A4203D2002243F8042BF8E7E6
:10019000704716480BF0A0F814480BF0A0F8144C68
:1001A000144B9C4207D294E803000C3454F8042CFE
:1001B000FFF7DBFFF4E7104B9C4206D254F8080B24
:1001C00054F8041CFFF7DCFFF5E70DF05BF80BF0CB
:1001D0009DF801F0BDFE02F065FE4FF416400BF0F5
:1001E000E3FB064807F06AFEFEE700BFE03F082099
:1001F000CC000100D8000100E0000100FA63020019
:10020000144A70B51368014613B94FF08053136058
:100210001068114B4518114E2B44B34298BF104B38
:100220000C4C96BFC81825602060126898BF18460D
:100230000C4B9A4281BF0C4A064B00201A6039B120
:100240000A4A136801331360094B1860094B19609F
:1002500070BD00BFCCC10720FF7FFFEFFE3F07103E
:10026000FCCB0720FF3F082000400820D4C1072016
:10027000C8C10720D0C107200DF020B90DF026B964
:100280000DF024B910B504468AB068460DF0C2FBE3
:10029000204A214B2260089A2049A260079A626096
:1002A00052B90A681E4882428ABF02F1604202F1D6
:1002B0007042A2F5E82262606268B2F5803F82BFB8
:1002C00002F17042A2F5E82262600022E2600A6850
:1002D00013498A4205D8C3F1405303F50C239B1AF6
:1002E00009E010498A4207D8C3F1804303F580131F
:1002F0009B1A002B00DDE36020460B4BE2611B687C
:10030000A3610A4B1B686361094B1B6823610AB038
:1003100010BD00BFFC0B0000FCCB0720CCC10720A8
:1003200000800010FF3F0820C8C10720D0C107206F
:10033000D4C10720FEE70000014B1860704700BFE2
:10034000DCC10720014B1860704700BFD8C10720EF
:1003500008B502480EF0F0FAFEE700BF30380200A0
:1003600008B502480EF0E8FAFEE700BF4A3802007E
:100370000020704701207047F8B5084B16461A68F0
:100380000F461C4642B10D46EB1BB34204DA23680C
:1003900015F8010B9847F7E73046F8BDDCC1072098
:1003A000F8B5094B0F46186816461C4658B10D465D
:1003B000EB1BB34205DA23680020984705F8010BD0
:1003C000F6E726EAE670F8BDD8C10720704700209E
:1003D00070470000074B1B689A68824207D05A6832
:1003E000824204D0DB681B1A5842584170470120F2
:1003F000704700BF48C107200020704700207047A9
:1004000030B504468DB0A8B3684608F0ADFF9DF83E
:100410000030002503F03F0303939DF8013003A84B
:1004200003F03F0304939DF802300B9503F01F0384
:1004300005939DF8043003F01F0306939DF80530E3
:1004400003F00F03013B0793BDF80630C3F30B0322
:10045000A3F26C7308939DF8033003F0070309932C
:10046000BDF80830C3F30B03013B0A930DF058F9B4
:1004700084E8210000200DB030BD000070B50F4DA4
:100480000F4E2C6814F0010415D128460BF052FBD6
:1004900088B14FF40E70FFF7EFFE302380F835324D
:1004A0003A2380F8344280F8363280F837423060A0
:1004B00028460BF04BFB306870BD00BFFCC1072025
:1004C000E4C1072070B50F4D0F4E2B6813F00104E7
:1004D00016D128460BF02EFB90B14FF40E70FFF7AB
:1004E000CBFE012380F83432312380F835323A23B1
:1004F00080F8363280F83742306028460BF026FB11
:10050000306870BDF8C10720E0C107202DE9F04731
:10051000ADF50A7D0F4608F036F9041E04DD0AF039
:100520007DFD20460AF00AFB0DF1140844462B4DD0
:100530000FCD0FC42B68102123600DEB01020024A6
:100540000AA804940AF024FB25498146254A384626
:1005500009F09AF926460AAD4FF0000ACA451ED0A6
:100560006B69A34217D1AA69049B164423B1642185
:10057000B3FBF1F3B2FBF3F395F80CE00094A98B15
:100580000293890001910392384617496A6858F826
:100590002E3009F079F90AF1010A2035DEE701343D
:1005A000052CD8D1049B64229E1BB3FBF2F30F49A8
:1005B0000F4AB6FBF3F30096384609F065F90AF0E6
:1005C0009FF9102804D938460A49102209F05CF92D
:1005D00001200DF50A7DBDE8F08700BF64380200F8
:1005E00083380200AA380200AF380200CC3802007B
:1005F000EB380200F638020010B50C46ADF5007D70
:1006000068460BF01BF8204669464FF0FF3209F0B0
:1006100005F901200DF5007D10BD000030B50C4638
:1006200091B02C49054607F0BAFF002847D008AB27
:10063000009309AB01930AAB02930BAB03930CAB92
:1006400004932846244906AA07AB07F010FF0728A1
:1006500001D000203BE09DF83930069A0DA862F3E6
:1006600003038DF83930079A9DF8383062F304039C
:100670008DF83830089ABDF83A3062F30B03ADF8C4
:100680003A30099A9DF8363062F304038DF836301B
:100690000A9A9DF8353062F305038DF835300B9AD0
:1006A0009DF8343062F305038DF834300C9A9DF8D0
:1006B000373062F302038DF8373008F07DFE08F022
:1006C00017FF06490246204609F0DEF8012011B066
:1006D00030BD00BF2039020024390200CD5B02008A
:1006E000F7B50D465149044608F049F8064640B1B1
:1006F00007F078FA28464E494FF0FF3209F08EF89D
:1007000090E020464B4908F03AF860B307F08EFAC3
:1007100049490246284609F0B7F807F093FA4749D5
:100720000246284609F0B0F807F086FA4449024626
:10073000284609F0A9F8304607F06EFA064601206F
:1007400007F06AFA0446022007F066FA074603201B
:1007500007F062FA009701903A492846324623464C
:1007600009F092F85EE02046374907F018FF50B1D3
:1007700001212022204607F0B0FF204608F001F8B2
:1007800007F07CFB4EE02046304907F008FF0646A4
:1007900020B920462E4907F002FF88B301212046E8
:1007A000202207F09AFF20462A4907F00FFF60B980
:1007B0002046294907F00AFF28B92046274907F0B3
:1007C00005FF044602E0032400E0022420463146EF
:1007D00007F0AAFA224A234B002E18BF1A463CB152
:1007E000012C07D01C491B4B022C18BF0B4602E002
:1007F0001D4B00E0194B28461C4909F045F811E053
:10080000204607F0BEFF1A491A4A0090F72301203C
:1008100007F098FA204607F0B4FF17490246284629
:1008200009F032F8012003B0F0BD00BF5F390200CB
:10083000653902007E390200853902009A390200CA
:10084000AF390200CE390200FE390200023A02003E
:100850000A3A02005A39020054390200024D0200DD
:10086000453902003D3902004E390200133A0200B8
:100870002C3A0200783802005F3A020030B589B0A5
:1008800004AB002400930D460222194903AB0394E4
:10089000049407F0FAFD022827D107AB009305AABC
:1008A0000398049906AB05940694079403F0D0FED0
:1008B000024638B1049B284600930E49039B08F07A
:1008C000E3FF10E0059A069B002A079C08BF01225F
:1008D000002B08BF012328460749B4FBF2F2B4FB02
:1008E000F3F308F0D1FF012000E0204609B030BD4D
:1008F0009A4C02006D3A02008C3A02002DE9F04752
:100900000C46ADF5866D4A49064607F0D2FE4949C8
:100910008146304607F0F6FE3046464907F012FFA2
:100920000023454920468DF8073008F0ADFF2368C5
:1009300020461B680DF107014FF0FF3298479DF8E4
:100940000730782B6FD0304607F01BFF012201469D
:1009500083A805F09DFE054640B1304607F011FF23
:1009600036490246204608F08FFF5CE00DF10C0A84
:1009700029464FF4007250460CF0F4FD02950AF03F
:1009800049FEA84606460F4683A851464FF400721A
:1009900002AB05F016FF08B9029B33BB83A806F033
:1009A000E8F8B9F1000F19D00AF034FE4FF47A726A
:1009B00000230CF09BF8002305464FF47A72304672
:1009C00039460CF093F8281A14BF03460123204639
:1009D0001B494246B8FBF3F308F056FF204619497D
:1009E0004FF0FF3208F01AFF1DE09844B9F1000FF4
:1009F000CAD14D46029B9D42236808D21AF80510C1
:100A00005B6820464FF0FF3298470135F2E71B68DC
:100A100020460DF107014FF0FF3298479DF807304F
:100A2000782BB1D1BAE701200DF5866DBDE8F087CE
:100A3000BA3A02009A4C0200C33A0200063B020096
:100A40001A3B0200A84002002DE9F0470023BEB087
:100A50000C46554905460C9307F091FE20B92846EF
:100A600007F08FFE064600E0504E15A8314606F00E
:100A700038F9054620462DB14D4932462B4608F03F
:100A800003FF8CE04B49324608F0FEFEA8461EAF3D
:100A9000802315A80DA91397149306F066F9002872
:100AA00065D19DF83D30002B61D09DF83C10DDF8FC
:100AB00034C011F0100F09BF0C9B442263440C9307
:100AC0000ABF2D22013508F1010811F0010F14BFF2
:100AD00052232D2311F0020F14BF4FF0480A4FF09C
:100AE0002D0A11F0040F14BF4FF053094FF02D09D8
:100AF00011F0200FBDF8381014BF4FF0410E4FF029
:100B00002D0ECDF808E04FEA612EBDF83A000EF246
:100B1000BC7ECDF80CE0C1F3431E01F01F0105912E
:100B2000C1120691C0F345100DF13D01CDF810E062
:100B3000CDF820C007900991CDF800A0CDF8049021
:100B400020461D4908F0A0FE20461C494FF0FF3208
:100B500008F050FE394620464FF0FF3208F04AFEBA
:100B6000204611494FF0FF3208F058FE8FE70095FC
:100B70003EAD55F8C83D12494246204608F084FE75
:100B8000304629460BAA06F01FF940B90B9B2046B8
:100B90009A780C9B0B495A43520808F075FE0120C5
:100BA0003EB0BDE8F08700BFA8400200353B020020
:100BB000383B02005C3B0200773B0200A43B020092
:100BC000A83B0200D23B020070B50D46064607F076
:100BD000D8FD0446304607F0D4FD06F0B7F9064AC2
:100BE000064B0749002818BF13462846224608F03E
:100BF0004BFE012070BD00BF923D0200883D020007
:100C0000E63B020070B50D46064607F0BAFD044605
:100C1000304607F0B6FD06F03CF9064A064B074998
:100C2000002818BF13462846224608F02DFE012052
:100C300070BD00BF923D0200883D0200023C0200F0
:100C40007FB503AB002400930E4602220F4902AB8E
:100C50000294039407F019FC022814D1029D039C0E
:100C60002846214606F01CFA094B0A492A46002864
:100C70000CBF08461846084900902346304608F045
:100C800003FE012000E0204604B070BD9A4C020033
:100C9000923D0200883D0200143C020030B5ADF5E3
:100CA0000D7D0C46054607F06CFD0A22014603A89F
:100CB00005F0EEFC40B1284607F063FD1F490246EF
:100CC000204608F0E1FD35E08DF8070002901C4950
:100CD00020467E2242F2107308F0D6FD20461949C4
:100CE00008F0D2FD236820461B680DF1070142F28F
:100CF0001072984718B19DF807307E2B03D103A8D6
:100D000005F037FF16E003A80DF10701012202AB41
:100D100005F015FE10B9029B012B02D020460A49AE
:100D2000DEE7236820465B689DF807104FF0FF322E
:100D30009847D7E701200DF50D7D30BD2C3C020012
:100D4000533C02008B3C0200AB3C02002DE9F04713
:100D5000ADF5407D002304AC236003930D46009461
:100D60004249022203AB07F090FB022806D0284636
:100D70003F494FF0FF3208F051FD71E017A821689C
:100D800005F0AFFF18B128463A49226807E017A8D6
:100D9000039905F0A6FF28B128463749039A08F0C1
:100DA00073FD5DE040A94FF4807205A807F02EFBAB
:100DB0000AA880A94FF4807207F028FB20AB159396
:100DC00017A880230FA9169305F0CFFF002841D163
:100DD0009DF84530002B3DD09DF8443003F01003C2
:100DE00003F0FF06002BE9D1039A0DF1450305A896
:100DF000224907F010FD22680DF145031F490AA89A
:100E000007F009FD05A807F0BCFC80460AA807F01A
:100E1000B8FC074605A8DDF83C9007F0B2FC824616
:100E20000AA807F0AEFC324601463346009650460B
:100E300003F00EFC124A134BCDF8009000280CBFB3
:100E40001846104610490190424628463B4608F095
:100E50001BFDB3E70AA807F0EFFA05A807F0ECFAC4
:100E600001200DF5407DBDE8F08700BF9A4C0200DF
:100E7000D23C0200173D02003C3D02005C3D0200F6
:100E8000923D0200883D0200623D0200F8B50D4629
:100E90002349064607F073FC0446074628B1FFF7CE
:100EA00011FB002100F235200AE030461D4907F011
:100EB00066FC044650B1FFF7E1FA394600F23520EE
:100EC0000A4606F07DF91849184B1EE030461849CD
:100ED00007F055FC044648B1FFF7F4FA012200F28E
:100EE000352105F097FB1349134B0EE030461349AB
:100EF00007F045FC044680B1FFF7C0FA012200F27A
:100F0000352105F087FB0E490E4B002808BF194616
:100F10004FF0FF32284608F081FC2046F8BD00BFA4
:100F2000E93D0200F33D02008B3D0200813D0200DD
:100F3000003E0200A83D0200983D0200093E02006A
:100F4000CD3D0200BF3D020008B508464FF0FF321C
:100F5000084908F063FC06F045FE4FF4FA6009F01A
:100F6000EDFD4FF08043AA221A7200221A70012070
:100F700008BD00BF153E020010B501200C4607F069
:100F800039FA38B100210A460B4609F051F92046DA
:100F9000044901E0204604494FF0FF3208F03EFCCE
:100FA000012010BD263E02003C3E020038B5064C32
:100FB000236833B91C20FFF75FF9054608F0DCF819
:100FC0002560206838BD00BFF0C107202DE9F04F33
:100FD0000D46C7B05549814607F0F8FA5449824694
:100FE000484607F0F3FA53498346484607F0EEFABD
:100FF00000270DF1100805AE044602970397C8F8C4
:1010000000703760BAF1000F45D0009648464A4953
:1010100002AA03AB07F02BFA012807DC2846474950
:101020004FF0FF3208F0FAFB38467CE00DF118086B
:101030004FF480744046394622460CF093FA3368E8
:1010400013B90123336003E0B3F5807F88BF3460B8
:10105000FFF7ACFF33689DF808109DF80C20009353
:10106000434608F0D6FC364A364B3749002808BFBD
:1010700013462846029A08F007FC002433689C4275
:101080004ED2039A18F80430224428462F4908F01B
:10109000FBFB0134F2E7BBF1000F2CD0CDF8008050
:1010A00048462B4902AA03AB07F0E1F9032807D011
:1010B000284628494FF0FF3208F0B0FB504632E096
:1010C000FFF774FF9DF808109DF80C2098F8003089
:1010D00008F0B4FC48B1039B284600931E49D8F899
:1010E0000020029B08F0D0FB1AE028461B49029A18
:1010F00008F0CAFB14E0A8B102230293029BFE2B66
:1011000010DCFFF753FF9DF8081008F0A2FC20B197
:1011100028461349029A08F0B7FB029B0233ECE71A
:10112000012000E0204647B0BDE8F08FBD4D020031
:10113000753E02007B3E0200843E0200933E0200A8
:10114000923D0200883D0200B43E0200D83E0200FB
:10115000E83E0200F83E02001F3F0200393F020055
:10116000563F02002DE9F04F5F4C91B023680E46C8
:1011700033B92C20FFF780F8054608F091FA256076
:101180002768FFF77BF90DF1400B00244BF80C4D5D
:1011900000F2352059460CAA05F016FE48B90C9A03
:1011A0000D9C95699378023D5C435D4364086D082E
:1011B00000E025464D4B1A6898467AB90C20FFF797
:1011C0005BF88146FFF7F2FE902389F80430002394
:1011D000C9F80000C9F80830C8F80090D8F8000035
:1011E00003F024FA80460BF03BFC82460BF094FAA5
:1011F000014640460BF0DAF93D490BF0E1FA0BF0FD
:101200002FFC814658460AF077F804F05DF950B398
:1012100008F0E8F904F042F90023024698469B469C
:1012200093420DD018460B920A9304F09BF90A9B47
:10123000584588BF98460B9A88BF83460133EFE72D
:1012400008F0E8F9642303FB0BF32A4A3046B3FBAA
:10125000F2F3C3F164038DE80809274922462B46BF
:1012600008F012FB05E03046244922462B4608F0E0
:101270000BFB234C23681BB90120FEF7FDFF206008
:10128000206803F097F9044608F032F99DF83930E8
:10129000019003F00F0302939DF83830009403F09F
:1012A0001F030393BDF83A303046C3F30B03049396
:1012B0009DF83630134903F01F0305939DF8353030
:1012C000524603F03F0306939DF8343003F03F038A
:1012D0000793BB8C0893FB8C09934B4608F0D4FA18
:1012E000012011B0BDE8F08FF4C10720E8C107204C
:1012F00000002041A08601007C3F0200B03F0200B8
:10130000ECC10720BE3F020070B5ADF50A7D054671
:101310000C4607F0A3F80B2803DD204620490C22D9
:1013200037E0284607F02DFA0122014601A805F012
:10133000AFF9064638BB01A805F01BFC284607F0AC
:1013400020FA18490246049B204608F09DFA2368BB
:1013500020469B6898470A2009F0F0FB09F0F0FE50
:10136000284607F00EFA02460F4B0068516803C387
:1013700090680E4A186043F80C2C4FF08043AA2264
:101380001A721E7007E0284607F0FBF90246204655
:10139000074908F079FA01200DF50A7D70BD00BFFC
:1013A0003B40020062400200484002400DD0ADDEEA
:1013B000A9400200F0B5404CA5B023680646DB0703
:1013C0000D460CD420460AF0B5FB40B14FF48060C6
:1013D0000CF074F8394B186020460AF0B7FB304621
:1013E000374907F0F3F80746044610B3002180227E
:1013F00004A80CF0B7F800230293039303AB009307
:10140000304904AA02AB304607F031F82B4A029B60
:10141000116804A8039A13B903F0BAF901E003F0C4
:10142000DAF90346284A29492846002B18BF1146F5
:1014300037E03046264907F0C9F80746002838D07B
:10144000304604AB234903AA039404948DF8084062
:1014500007F00DF8039E049B3344B3F5806F0DDD58
:1014600028461D494FF4806221E0144B9DF8082066
:101470001B689A559DF8083001361C44039B049A5A
:10148000F31A934210DAB6F5806F0DDA2B6828460E
:101490001B6802A94FF4FA6298470028E5D1284654
:1014A0000E4908F0F1F904E0284622460C4908F0FC
:1014B000EBF9384625B0F0BD04C2072000C2072072
:1014C000D4400200DB400200C2400200BE400200E5
:1014D000EB400200F2400200FC400200204102000A
:1014E0003041020030B50C46054687B00A4908F085
:1014F000CBF9A17A62880091E17A23880191E18891
:101500002846029121890391A1880491034908F09A
:10151000BBF907B030BD00BF414102007741020076
:101520001FB501A80C4602F077FB02F061F801A993
:1015300002462046FFF7D6FF012004B010BD000090
:101540002DE9F0418CB003AB002400930E46154604
:101550003A49022202AB0294039406F096FFA0429D
:1015600039DD02980BF09FFD5FFA80F8039818B1FF
:101570000DF0BDFCC4B200E0044604A8002102F056
:10158000D3FE30B130462E494FF0FF3208F046F915
:10159000F3E7003518BF0125022300934046294692
:1015A000039A234602F05AF9074638B930462549CE
:1015B0004FF0FF3208F032F901273BE0002D39D01F
:1015C00004A84FF47A7102F0B9FE70B39DF81030A0
:1015D00043452AD101E027462CE09DF817300C2B1B
:1015E00004D1304606A94246FFF77CFF3046B4B925
:1015F000154908F049F99DF817309C420ADA33681A
:1016000004AA2244117A5B6830464FF0FF329847B3
:101610000134F0E730460D4908F036F90AE00C498C
:101620004FF0FF3208F0FAF804E030460949029A18
:1016300008F02AF938460CB0BDE8F0819A4C020057
:1016400095410200B7410200DF4102008C490200CF
:10165000F34102001042020038B50D4607F093F83E
:101660000446C0B201F0B8FF054A064B06490028FF
:1016700008BF13462846224608F006F9012038BD67
:1016800036420200883D02003D42020037B50C465A
:1016900002F026F905461649204608F0F5F81549E6
:1016A00020462A4608F0F0F82046114908F0ECF8E8
:1016B000D5B11149204608F0E7F820460C4908F05A
:1016C000E3F80025E8B202F0F5F8013540B1817881
:1016D0000278437800912046084908F0D5F8F1E7F0
:1016E0002046034908F0D0F8012003B030BD00BF08
:1016F000544202006F42020089420200A4420200EA
:1017000030B58BB00AAA4FF47A730C4642F8243DE8
:10171000174906F0ACFE002502A8019902F004FE6C
:10172000D8B1204613499DF8082008F0ADF80025EF
:101730009DF80F309D420ADA236802AA2A44117AE2
:101740005B6820464FF0FF3298470135F0E72046AE
:10175000094908F099F80125DEE72DB92046074927
:101760004FF0FF3208F05AF801200BB030BD00BF37
:10177000F9400200BF420200A7400200D642020028
:101780002DE9F3473C4C074626688946002E62D176
:101790002420FEF771FD0423054680E8480086609A
:1017A000C660202130460DF031F9AE68E8604FEA9E
:1017B0008608072E0ED81020FEF75EFD8246002117
:1017C00010220BF0CFFEEB68013643F808A008F1B9
:1017D0000408EEE7002608234FF001086B6085F847
:1017E000208028462549264A264B0096256005F08C
:1017F00075FF20682449254A254B009605F06EFFA9
:1018000020682449244A254B009605F067FF20688C
:101810002349244A244B009605F060FF20682349A1
:10182000234A244B009605F059FF20682249234A99
:10183000234BCDF8008005F051FF20681E49214A56
:10184000214B009605F04AFF009620681F49204A68
:10185000204B05F043FF38461F4906F090FF18B1B2
:1018600038461E4907F045F839464A46206802B016
:10187000BDE8F04706F014B80CC207202D1B01008C
:10188000E7420200EE420200011901002843020073
:101890003143020001170100854302008843020022
:1018A000591601006C4A0200AB4302008D1601007C
:1018B000F1430200D5430200411501003A44020001
:1018C000F8430200394402003E44020021150100A1
:1018D0007E44020063440200A840020084440200E7
:1018E00038B5064C236833B95820FEF7C5FC0546C9
:1018F00007F01AFD2560206838BD00BF08C2072028
:101900002DE9F04F0446ADF2DC5D80220DF1B40903
:1019100088460DA800210BF025FE002180224846B4
:101920000BF020FE06AE002333602046009675497A
:101930000DAA4B4606F09BFD032801D00020DDE0F8
:10194000EDA80DA9012204F0A3FE05460028F5D15B
:10195000FFF7C6FF33684DA980F853308022044654
:1019600008A88DF81750079506F050FDCDF80090A7
:10197000404665490DAA336807F086FF2F46EDA85B
:101980006DA94FF4007207AB04F01BFF38B1EDA84E
:1019900005F0EFF808A806F04FFD0120AEE0079B28
:1019A000002BF4D06E1C5949079A204607F06CFFB3
:1019B000236820469B6898476DAB9B46751E4FF089
:1019C000000A0799C3EB0B028A4222680FD20393E5
:1019D000CDF808B0D2F804C020464FF0FF321BF813
:1019E000011BE047029B1A78039B9244E9E7936846
:1019F0002046984708A806F0C4FE834608A806F0CB
:101A000030FD4FF47A7302465946204607F014FF22
:101A10000121202208A806F060FE08A806F0B3FE07
:101A2000504520D008A806F0AEFE3949034652467C
:101A3000404607F029FF2046364907F025FF236876
:101A400020469B689847236820461B680DF11701C4
:101A50004FF47A7298470028F5D1022E06F101035F
:101A600095D81E469FE7079B2B494A460093204680
:101A70003B4607F009FF236820469B68984708A863
:101A800006F07FFE824608A806F0EBFC51460246AF
:101A90004FF47A73204607F0CFFE08A81F4906F0DE
:101AA0006CFDD0B908A806F06CFE1D490246404600
:101AB00007F0EAFE2046174907F0E6FE23682046B5
:101AC0009B689847236820461B680DF117014FF467
:101AD0007A7298470028F5D1BFE708A8114906F0A7
:101AE00008FF079B40461F440F493A46F09B07F00A
:101AF000CBFE002D3FF443AF013D40E70DF2DC5D2E
:101B0000BDE8F08F8944020098440200AF4402000F
:101B1000C1440200A7400200E8440200FE44020063
:101B200001450200A8400200394502002DE9F041BC
:101B3000074686B006AA002442F80C4D0E463C49E2
:101B400006F095FC38460121202206F0C6FD039BD5
:101B5000002B63D0384606F081FC00285ED0FFF7EA
:101B6000BFFE05468DF80B402B6828461B680DF11B
:101B70000B010522984704460028F5D1039B3846FF
:101B800085F8533006F0FDFD274601464FF0FF3241
:101B9000284607F043FE2B6828469B689847254B4C
:101BA0000594186804902B6828461B680DF10B01FA
:101BB0004FF47A72984778B10DF11501032205A808
:101BC0000BF0B5FC9DF80B8005A804A904228DF844
:101BD00017800BF091FC38B91822B7FBF2F302FB27
:101BE000137262B101330AE0336830465B684146E4
:101BF0000122013798470028D5D10134D3E7304678
:101C00000D493A4607F040FE74B161230093304617
:101C10000A4922460A4B07F037FE05E030460949DB
:101C20004FF0FF3207F0FAFD012006B0BDE8F08169
:101C3000F94002003D410200454502006C450200AA
:101C40002546020061460200014B01221A707047CE
:101C500010C2072070470000F0B587B009F0DAFC29
:101C6000514B4FF400720093504B064601930F46C0
:101C700000206421134606F08BFF04464C480CF00C
:101C80005BFE4CB94B4B032000934B494B4A33232B
:101C900006F058F8204685E049480CF0D7FD0221AF
:101CA000002007F0EDF80E21ADF81000002007F03D
:101CB000E7F81321ADF81200002007F0E1F84FF625
:101CC000FF71ADF81400002007F0DAF80024224676
:101CD00023460421ADF81600009401940294039465
:101CE00004A8384D07F0E6F8204607F0BDF80523B4
:101CF0002B71AB78214664F30303AB70EB78324869
:101D000064F3C713EB706C71AC71EC712C726C7274
:101D1000AC72EC722C736C73AC73EC730CF096FDBC
:101D2000294620460A2207F04BF8044627480CF0C3
:101D30008DFD254821460CF089FD0CB1244808E0B2
:101D4000244B032000931C491C4A552305F0FAFF3D
:101D500021480CF07BFD304639464FF47A7200235F
:101D60000AF0C4FE10F57A7441F1000509F052FC46
:101D70004FF47A7200230AF0B9FEA94208BFA042CC
:101D8000F4D3002015490A2206F0C8FF044614487F
:101D90000CF05CFD14B113480CF058FD12480CF027
:101DA000CBFD012007B0F0BD491C0100551C01000E
:101DB000A7460200EA460200B84602008D4602002D
:101DC0002147020011C20720364702004B4702009C
:101DD0005B470200784702009D47020021C20720AE
:101DE000DF470200B3470200C647020001480CF07B
:101DF000A3BD00BFEF47020038B504460D4609F009
:101E000081FD074BB0FBF3F00223B0FBF3F29542E8
:101E100001D3236138BDB3F5807FFAD00233F4E7F4
:101E200040420F007FB500F235260C4601223146B4
:101E300004F0F0FB054650BB04A941F8040D02AACA
:101E4000304604F0C1FF00BB029A039B9078926970
:101E500003FB00F1023A42435208B2F5004F10482A
:101E600034BF01254FF480654FEA51010D4BB1FBA2
:101E7000F5F128BF0346B2FBF5F28DE80A000A48E7
:101E800021460CF0E3FC012008E0084B00E0084B81
:101E9000084821462A460CF0D9FC002004B070BD49
:101EA0002D4802002A48020037480200304802004C
:101EB000344802006548020038B5074C23684BB926
:101EC0000820FEF7D9F90546FFF770F8402328608F
:101ED0002B712560206838BD3CC2072038B5054C01
:101EE000256825B90120FEF7C7F905702060206834
:101EF00038BD00BF38C2072038B5084C23685BB92D
:101F00000C20FEF7B9F90546FFF750F890232B7126
:101F100000232860AB602560206838BDE8C1072039
:101F200010B5044C23681BB90120FEF7A5F9206009
:101F3000206810BDECC1072010B5044C23681BB904
:101F40000120FEF799F92060206810BD34C20720F7
:101F5000AD49AE4A4023F0B58B614FF000739361F9
:101F60004FF480338B61AA4BADF5057D18680725CA
:101F700020F0F00018601868022440F0500018604B
:101F8000186820F440501860086840F0400008606D
:101F9000186820F47C201860186840F42820186025
:101FA000186820F470001860186840F42000186069
:101FB000186820F040401860186840F00040186031
:101FC000586820F03C005860586840F0280058607D
:101FD000586820F003005860086840F480300860BA
:101FE000586820F440505860086820F48000086069
:101FF000D96821F44031D960116841F080711160D5
:10200000596821F440215960596841F48021596090
:102010009868804901409960116841F4897141F0E4
:1020200001011160996821F470119960996821F09B
:1020300070419960116821F446411160D96821F01E
:102040003001D960D96841F03001D960D96821F4F4
:102050007011D960136843F000731360136823F0A4
:102060008063136006F09EFC0A20012109F06AFAE1
:102070000A20012109F07EFA6748012105604460C9
:10208000FFF7BAFE07F03EFA1520012109F05AFACF
:102090001520012109F06EFA6048012105604460B5
:1020A000FFF7AAFEFEF782FF642107F02FF810B9B0
:1020B0005B480CF041FC09F083FA02F00FF910B90B
:1020C00058480CF039FC4FF4FA6006F029FCFFF791
:1020D0008DFE09F017FC0AF01BFB53490AF024FCA3
:1020E0000AF09CF902460B4650480CF0AFFB09F091
:1020F000FDF8052804AC14D1002363604C4B1B6829
:102100002360FFF773FE4B4B4B48D96C1A6D5B6D28
:1021100000940CF09BFBFFF769FE41F2883006F05B
:10212000FFFBFEF7ABF94549FFF77CFE054668BBB0
:1021300043480CF08BFB03F03FFAFEF79FF929466A
:102140002A4600F2352005F03BF83E4B3E4A002877
:102150000CBF104618460CF0EFFBFEF78FF937491D
:10216000FFF760FE90B939480CF0E6FB03F0A6F9E2
:10217000014637480CF06AFB03F090F9054603F07E
:102180009DF905FB00F133480CF060FB324E334FF4
:10219000336813F0010516D1304609F0CBFC90B13D
:1021A0004FF40E70FEF768F8012380F834323123C3
:1021B00080F835323A2380F8363280F8375238606A
:1021C000304609F0C3FC26493868264DFFF72AFE41
:1021D00011481821FFF710FEFFF708FE2B684BB9D6
:1021E0000820FEF749F80646FEF7E0FE3823306087
:1021F00033712E60286802F0F0F80546B0BB1A482B
:102200000CF09AFB33E000BF00C0092020C0092079
:1022100000C00240F0FCFCFF0000034000800840CA
:10222000A9480200DA48020000247449FF4802006D
:102230004440024000400240174902008F4902001A
:10224000974902009D48020098480200D4490200C4
:10225000F3490200024A0200F8C10720E0C107204A
:10226000B73D020044C207201D4A02000125FFF7C6
:1022700043FE02F0B1F9064618B972480CF05CFB57
:102280003546FFF719FE02F029F9064618B96E48DF
:102290000CF052FB35466D4E33681BB90120FDF73B
:1022A000EBFF3060306802F0E7F8FFF739FE02F02C
:1022B0007FF9FFF713FE02F04BF9FFF73DFE02F046
:1022C0007CF9FFF70BFE002102F044F98DB9FFF70E
:1022D0008DFDFFF7F1FD2D2102F0E8F8FFF7ECFD91
:1022E0002D2102F0EFF8FFF7F9FDFF2102F032F99E
:1022F0000CE0FFF7E1FD0546FFF7FEFD02F096F961
:102300000AF0D4FBC1B2284602F004F900211022E1
:1023100020460BF027F94E4821460F22002302F0F9
:1023200014FA80B920460AF0BEFEC5B2284601F074
:1023300053F9484A484B2946002808BF13464748E6
:10234000434A0CF083FAFFF7EBFD02F033F9054640
:1023500000200DF089FD28440CF0F6FA4FF40072CD
:10236000002120460BF0FEF8204609F067F92146CF
:102370003B480CF06BFAFFF739FD80220021204624
:102380000BF0F0F8204603F075F82278FF2A04D00D
:10239000214634480CF05AFA29E0FFF7CDFD02F04F
:1023A0000FF909281DD130480CF0C6FA21462F48F4
:1023B0000CF0FEFB21462E480CF048FA2D480CF09C
:1023C000BBFA00232C4803A903930CF0F1FB9DF802
:1023D0000C30592B03D1204603F02AF807E0274898
:1023E00003E027480CF0A8FA26480CF0A5FA4FF2B3
:1023F00008031C684FF20C031D684FF210031E689F
:102400004FF2040319684FF470431A68A40AAD0A26
:102410001D480CF01BFA224629461C480CF016FAFF
:1024200031461B480CF012FAFFF7E0FC012005F0E2
:102430000FFC18480CF080FAFFF7D8FC0DF5057D6D
:10244000F0BD00BF384A0200524A020040C20720D5
:102450006B4A020036420200A3480200714A0200A1
:10246000CD5B0200A54A0200C14A0200E34A020015
:10247000E84A0200034B0200464B02004A4B0200AE
:10248000624B0200904B0200C24B0200EE4B020076
:102490001B4C0200384C020001207047012070479D
:1024A0000120704710B5044C23681BB90120FDF7CB
:1024B000E3FE2060206810BD40C207200120704765
:1024C000F8B504460E46C06889000CF09FFAA5686E
:1024D000E060AF00B5420BD20C20FDF7CDFE00232B
:1024E000036043600372E3680135D8510437F1E7B4
:1024F0006660F8BD38B504460F4B00250360636D78
:10250000E06D9D4205D250F82500FDF7B7FE01357C
:10251000F5E708B1FDF7B4FE0025A36B206C9D42E2
:1025200005D250F82500FDF7A9FE0135F5E708B101
:10253000FDF7A6FE204638BD784C020010B50446D3
:10254000FFF7D8FF2046FDF799FE204610BD00009A
:10255000F7B5044600250B464FF4805200952549F7
:1025600005F02EFF244B042623606663A563E56314
:10257000256404F134000221FFF7A2FF266565659A
:10258000A565E565284660210CF040FAA56DE0657B
:10259000AE00172D0CD81020FDF76EFE0746002167
:1025A00010220AF0DFFFE36D01359F510436F0E79A
:1025B00018236365012384F87030104E0023A4F8BB
:1025C0007430A4F87630A367002200230027C4E902
:1025D0002023C4E9226709F01DF84FF47A72002322
:1025E0000AF084FA80197941C4E92001204603B039
:1025F000F0BD00BF904C0200784C0200C0D4010036
:102600002DE9F04191E860000F7A14468FB1082A55
:1026100023D1304605F022FF00281CDD284614494E
:102620004FF0FF3207F0E6F83046012106F015F8CA
:1026300008E00A2A19D00D2A12D03046214606F0A9
:102640002DF997B12B6828462146BDE8F0415B681B
:102650004FF0FF3218470724F4E70A2A02D1F1E7C6
:10266000BDE8F0810D2AE8D1ECE7BDE8F08100BFBC
:10267000994C0200F8B50446142015460F46FDF7A4
:10268000FBFD8021064606F0B9F8A36BE26B9A4287
:1026900006D3616B591803D204F13400FFF710FF21
:1026A000E36B226C591C52F82330E1631F605E60BB
:1026B0001D72F8BD2DE9F043CF6B85B006460D467F
:1026C00001AC4FB94FF47A7008F038FA2046394619
:1026D0000C220AF047FF47E00B6C1B6893E80700E9
:1026E00084E8070000238DF8033008F0F1F88046F5
:1026F0000027EB6B9F4263D22B6C4FEA870953F89C
:1027000027301868037C33B103680DF103011B689F
:102710000022984708B90137EBE7EB6B9F422BD2B9
:102720002B6C53F8093093E8070084E807009DF804
:10273000032028462146FFF763FF08F06BFF4FF4A4
:102740007A7200230AF0D2F9D5E922238018594180
:10275000C5E92001029805F081FE0746029805F0C0
:1027600080FE013887420ADB94E8070086E807000C
:10277000304605B0BDE8F08305F14403D3E7D5E961
:102780002223134324D008F045FF4FF47A7200232C
:102790000AF0ACF9D5E92023994208BF904217D33B
:1027A00008F038FF4FF47A7200230AF09FF9D5E958
:1027B0002223801859410023C5E920010193D3E762
:1027C00008F086F84045C5D1022008F0B7F9C1E706
:1027D0009DF803300A2B88D1C6E70000F0B5064605
:1027E00085B020480CF032F801A83146FFF762FFAF
:1027F000019C1CB91C480CF09FF830E0029F384641
:1028000005F02CFE00282ADD08F004FF0546F8B18B
:10281000B6F8743006F150000133A6F8743039462A
:10282000224605F03DF8114B0026186800902368F9
:102830001DF806105B6820464FF0FF3201369847BE
:10284000042EF4D108F0E6FE411B09480BF0FEFF10
:10285000384605F008FE236820469B68984701200B
:1028600005B0F0BD9C4C0200A8400200654C02007F
:10287000A24C020038B5064C236833B92C20FDF772
:10288000FBFC054606F00CFF2560206838BD00BF44
:10289000F4C1072010B50446FFF7ECFF036821469A
:1028A000BDE810405B684FF0FF32184713B50023B6
:1028B00002AC04F8013DFFF7DDFF036821461B6809
:1028C0004FF0FF3298479DF8070002B010BD00009E
:1028D0002DE9F04100F150048AB00025074600952B
:1028E00020465B495B4A5C4B04F0F8FE00952046AD
:1028F0005A495B4A5B4B04F0F1FE009520465A4969
:102900005A4A5B4B04F0EAFE0095204659495A4A60
:102910005A4B04F0E3FE009520465949594A5A4B58
:1029200004F0DCFE009520465849594A594B04F002
:10293000D5FE009520465849584A594B04F0CEFE22
:10294000009520465749584A584B04F0C7FE009559
:1029500020465749574A584B04F0C0FE0095204680
:102960005649574A574B04F0B9FE00952046564940
:10297000564A574B04F0B2FE009520465549564A38
:10298000564B04F0ABFE009520465549554A564B30
:1029900004F0A4FE009520465449554A554B04F0D6
:1029A0009DFE009520465449544A554B04F096FE2E
:1029B000009520465349544A544B04F08FFE00952D
:1029C00020465349534A544B04F088FE0095204654
:1029D0005249534A534B04F081FE00952046524918
:1029E000524A534B04F07AFE009520465149524A10
:1029F000524B04F073FEFFF73DFF4FF480734FF42A
:102A000016412022054606F02BFE804601262E7434
:102A10004B48FDF797FC4B48FDF78EFC384629469E
:102A20003246FFF727FE03A9082205A805F0EEFCB1
:102A300005A8454905F05DFF05A92A46204604F092
:102A40002FFF05A805F0F8FC40460AB0BDE8F0816C
:102A50000D050100024D0200B84C0200F90501000D
:102A6000EF4C0200F74C020065110100154D020009
:102A7000074D02001D0601005D4D02001C4D0200C5
:102A8000FD080100624D0200664D02007D08010054
:102A9000054E0200C24D02004D0D0100044E020021
:102AA000084E0200490A0100534E0200564E020031
:102AB000C90B0100844E02008A4E0200410C010045
:102AC000AF4E0200B24E02009D0C0100D167020021
:102AD000DF4E0200050C0100044F0200074F020008
:102AE000CD0F01002A4F02002E4F02008D0E010073
:102AF000E04F0200E84F0200490F01002B50020096
:102B000032500200E1060100455002004950020027
:102B1000790F0100465102004C510200811701005B
:102B2000F648020074510200B513010092520200EF
:102B30009E51020009130100FA3D02005B5202009F
:102B4000AD280100952801008444020010B50E4C08
:102B5000207828B1002006F087F90023237003E0D5
:102B60000A49024606F02CF9094C0A490020216066
:102B70000246083906F0D2F82268074B116819603E
:102B800052685A6010BD00BF10C2072046C8072017
:102B900048C2072064C2072074C2072070B51F4DC9
:102BA0002C78B4B91E4E20463146224606F0B6F8BF
:102BB000002831D073680E2B2ED1367A012E2BD1FE
:102BC00018480BF043FE184B2E701E70174B1C60FC
:102BD00070BD154A1378FBB1144915480B6800788D
:102BE000B3EB400F15DA1348134A50F8234012682C
:102BF00014605C1C50F824000233506000200B600D
:102C000002460E4906F0DCF8BDE870400C480BF0B7
:102C10001DBE002313702B7070BD00BF6DC2072056
:102C20004CC20720B85202006CC2072070C20720B5
:102C300024C8072090C6072020C8072096C2072076
:102C4000C6520200704770477047000008B5064B37
:102C5000002118684FF0FF320B4607F0BDFB10B1A2
:102C6000FFF774FFF3E708BD80C2072008B5064BE5
:102C7000002158684FF0FF320B4607F0ADFB10B152
:102C8000FFF78CFFF3E708BD80C2072008B5064BAD
:102C9000002198684FF0FF320B4607F09DFB10B102
:102CA000FFF7D0FFF3E708BD80C2072008B5064B49
:102CB0000021D8684FF0FF320B4607F08DFB10B1B2
:102CC000FFF7C1FFF3E708BD80C2072010B5044637
:102CD000FDF7D4FA204610BDF0B5064685B00024B5
:102CE00000942B494FF4C0620D2305F069FB294B7A
:102CF00001253360F561214634622846032207F03E
:102D000066FA254F214638600322284607F05FFA0D
:102D1000214678600322284607F059FA2146B86018
:102D20000322284607F053FA1C4BF8601D68052360
:102D3000C5F38F058DE818002A46234602940394B4
:102D40001749184807F0B6FC06238DE818002A46F4
:102D50002346029403941449144807F0ABFC07235C
:102D60008DE818002A46234602940394104911481E
:102D700007F0A0FC08238DE81800029403940E4984
:102D80002A4623460D4807F095FC304605B0F0BDB5
:102D9000E85202009053020080C20720B4520200A1
:102DA000F35202004D2C0100F75202006D2C01007D
:102DB000FC5202008D2C010002530200AD2C0100D8
:102DC00070B50D461A4B002453F8216019494B5D2C
:102DD0000133DBB2934202D04B55204670BD4C55B7
:102DE000304621462246234607F0F6FA0146B8B19E
:102DF000114B53F8255028460BF09EFD28460CF049
:102E000076F82346024629460C4801F0E4FC0C4AB9
:102E10000C4B9A644FF08043AA221A721C7004E093
:102E200030460A460B4607F003FA012070BD00BF8A
:102E300080C207207CC20720D8520200095302003A
:102E4000EFBEADDE0040024010B503210122044672
:102E5000FFF7B6FF80B1204602210A22FFF7B0FF3C
:102E600050B1204601210A22FFF7AAFF20B12046D7
:102E700000210A22FFF7A4FF012010BD7047704710
:102E800008B501F065FA012008BD10B50446FDF74C
:102E9000F5F9204610BD10B50446FDF7EFF92046C0
:102EA00010BD000073B5FEF7D7FE204D28709020AE
:102EB000FDF7E2F904460321FFF74AFB204605F03F
:102EC0004FFA3420FDF7D8F90646002418494FF48C
:102ED00000720423009405F073FA164B30463360F9
:102EE00005F03EFA3420FDF7C7F9064612494FF4C3
:102EF0007A720423009405F063FA104B3046336075
:102F000005F02EFA3420FDF7B7F90646FFF7E4FE88
:102F1000304605F025FA2B781BB12046214605F0F6
:102F20002DFA4FF0FF3002B070BD00BF45C807203A
:102F3000F6480200E8530200205402000854020040
:102F400038B5064C236833B92C20FDF795F90546B2
:102F500006F02EFC2560206838BD00BF90C2072017
:102F60002DE9FF41FFF7ECFF704C4FF42F72216801
:102F70004FF0FF33074606F05FFC002800F0D280D8
:102F800024680023E15C6A4A202903D03039D154F7
:102F90000133F7E7022B137808BF5278654E04BF60
:102FA00003EB830302EB43033370634831780BF088
:102FB0004DFC3578002D40F08380DFF8BC815F4CFC
:102FC00098F80030082283F0010388F80030A378D5
:102FD0005B4E62F30303A370E378306865F3C713B5
:102FE000E37025716571A571E57109F017FA024664
:102FF0000B4654480BF02AFC306809F00FFA0B46D8
:103000000246514968460BF0BBFE50480BF094FC59
:1030100068460BF091FC69464FF0FF32384606F0E7
:10302000E9FB4FF0FF324A49384606F0E3FB70688F
:1030300009F0F4F902460B4646480BF007FC7068AD
:1030400009F0ECF90B4602463F4968460BF098FE42
:1030500041480BF071FC68460BF06EFC69464FF07E
:10306000FF32384606F0C6FB4FF0FF32384638498B
:1030700006F0C0FB98F8002023464AB901212172CE
:103080006272A272E27222736273A273E27307E049
:1030900025726572A572E57225736573A573E57374
:1030A000197A2E480BF0D2FB002024490A2205F0A1
:1030B00087FE08B12A4800E02A480BF0C7FB31E040
:1030C000294B0022A71C15461C460F21197199781F
:1030D000082060F303019970D9785A7162F3C7111F
:1030E0009A71DA71D9703378B5EB430F10DA38463C
:1030F00069460CF0D1FD1D4B009F43F8250009F0F7
:103100008DF902460B461A480BF0A0FB0135EAE7A1
:10311000154900200A22237205F052FE0146154887
:103120000BF094FB012004B0BDE8F08100C0072043
:1031300094C2072024C807202D54020025C8072068
:1031400074C20720465402005D540200605402001D
:1031500071540200745402008C5402009D54020009
:10316000B2540200D654020035C8072090C607208A
:10317000FC5402001355020004C0072008B5FFF7F5
:10318000DFFE4FF416514FF42F72402306F0F0FA91
:10319000154A092111719178002363F3030191709D
:1031A000D178537163F3C711D1709371D3711372D6
:1031B00053729372D372137353739373D3730B4A13
:1031C000102111719178082060F303019170D1787A
:1031D00053719371D37163F3C711054BD1700244DE
:1031E0001A60012008BD00BF46C8072096C207200C
:1031F00020C80720242310B503FB010188420BD00F
:1032000043783BB1038CD4184FF6FF73A34228BF19
:10321000234603842430F1E710BD000037B50023B6
:1032200002A840F8043D0C4B04215B6898470B4B07
:10323000019A1C680546141B1A600948224604219D
:10324000FFF7D8FF074802212246FFF7D3FF281CCB
:1032500018BF012003B030BD58C8072024C907207B
:103260006CC8072047C9072008B50B4B19780378AD
:103270008B420A4B0BBF1A889A880132013214BF65
:103280009A801A80064B8170DB68202198470030B5
:1032900018BF012008BD00BF0DC0072014C90720BA
:1032A00058C807200A4B02781B789A42094B0BBF7B
:1032B000DA881A89013201320CBFDA801A81037967
:1032C000C3F3C202073262F3C5030371FFF7CCBF39
:1032D0000DC0072014C9072010B5002306499A0025
:1032E00011F82340844201D1881810BD0133042B0A
:1032F000F4D1002010BD00BF35C9072070B1C378DC
:103300000133DBB2FF2BC37008D10023044A1A44F7
:10331000D17804334908102BD170F7D1704700BF22
:1033200035C90720242202FB01010346024630B5BD
:103330008A4206D01446243212F8235C002DF7D1BD
:103340000FE0044600258B420BD01A79C2F3C2006D
:103350001A8C42EA004295423CBF1C461546243373
:10336000F1E7204630BD000038B50546C90001F13F
:103370000804FFF753FF1C4B1A782B789A4204D1AC
:1033800002211A48FFF7CEFF0CE019480421FFF78D
:10339000C9FFEB7833B990F82330042443F080035D
:1033A00080F82330002380F8203080F82130024656
:1033B0002B4690F8231080F8224021F07F01C4F3BF
:1033C00006240C4380F8234005F1200153F8044BF8
:1033D0008B4242F8044BF9D1064A0379127862F322
:1033E000C503037138BD00BF0DC0072047C90720C2
:1033F0006CC807200CC0072010B5FFF76DFF04460E
:10340000F8B9FFF769FF0446D8B90F4BDA79D978D4
:103410008A4228BF0A46D97A34BF1C1D1C469142F5
:103420002CBF1146094CDA7B094B8A4238BF1C4637
:103430000422204600210AF095F8064AD37A013387
:10344000D372204610BD00BF35C907203DC90720F3
:1034500041C9072014C907202DE9F04105460C4653
:103460004FF0240808FB02188E1D444500F09E8092
:1034700094F823301A0625D5BDB12A7861788A429E
:1034800005D16F7816F8060C874200F09180E87835
:1034900058B16878884208D116F8061C914204D1C8
:1034A000A979A279914200F0838094F82220218C9E
:1034B00003F07F0342EA0323994274DB2046FFF7BF
:1034C000D3FE75E06278002A6DD06DB3297901F0E2
:1034D000C001C02917D116F8060C6978884202D1BC
:1034E0002878904264D0E778A87887420CD191423E
:1034F0000AD116F8060C2978884205D1A079A97955
:10350000884201D154E079B1A878E17888420BD1A2
:103510006978914208D116F8060C2978884203D1BF
:10352000A079A979884249D094F82210208C03F020
:103530007F0341EA0323984235DB002384F82030DF
:1035400084F821302379C3F3C201CFB21FB12046E2
:10355000FFF7A8FE27E003F0C003C02B19D01C4BD7
:1035600016F8060C1B78984213D1E378934210D0DA
:103570007BB16379032262F307136371E170204624
:10358000FFF790FE134A2379127862F3C503237183
:1035900000E001276078FFF79FFE18B100210422A8
:1035A00009F0E0FF27B9243424365EE7BDE8F08156
:1035B00020460021242209F0D5FFF4E722790023D8
:1035C00063F3C50284F8203084F821302271EAE7E1
:1035D0000DC007200CC00720431EDBB2FD2B9DBF92
:1035E000024B187001200020704700BF0DC007205B
:1035F000014B1878704700BF0DC0072007289CBFFB
:10360000014B1870704700BF0CC007202DE9F7432D
:10361000044691461E469DF828500F46002963D067
:10362000354B93F80080414560D00F2E5ED80028BE
:103630005ED02022002109F095FFFF2F237914BFCF
:1036400009F00302002262F38713032262F30203EC
:103650002A4A6770127884F8008062F3C503284A0A
:103660002371137884F802800133DBB21370A371E5
:103670000BAB019315B94FF0010818E0019AE079FE
:103680001346526853F8081B00EB02085FFA88F8EB
:10369000013DB8F1180F0193EDB206D8083020446F
:1036A00009F03AFF84F80780E4E74FF00008DFF8FC
:1036B00054900123384689F80030FFF70DFE054687
:1036C000FFF71CFE002389F80030637925B966F303
:1036D00007136371E57005E0AA7862F3071363715D
:1036E0006B78E370404603E0084601E00020FFE706
:1036F00003B0BDE8F08300BF0DC007200CC0072059
:1037000045C9072020C90720124B012270B51A7045
:1037100004461E4608B9002518E0FFF7A5FD05463A
:103720000028F8D0237903F0C003402B06D0C02B2B
:103730000AD1E37853B162789A4207D06179204682
:103740000909FFF711FE01E0802BF7D00023337049
:10375000284670BD20C9072082B0F0B51746421E2A
:10376000D2B28DB0FD2A04460D46139301D9002034
:103770005AE0002BFBD0159B002BF8D0179B002B99
:10378000F5D0169B002BF2D0149B002BEFD000211C
:103790004822284809F0E6FE00219022264809F038
:1037A000E1FE00211022254809F0DCFE00210C2258
:1037B000234809F0D7FE00210C22224809F0D2FE4E
:1037C000214E224B1C703446214B1D7013AD0FCD82
:1037D0000FC42B68002118221E48236009F0C2FE86
:1037E00039461C4817220BF0C6FB0020B36801467F
:1037F00098470028BBD09DF8603013B9FFF70EFD45
:1038000012E0154A0123019206220292009304A8B5
:10381000FF210022FFF7FAFE0028A8D004A8FFF736
:1038200073FF0028A3D0E9E70DB0BDE8F04002B077
:10383000704700BF47C907206CC8072035C907205B
:1038400029C9072014C9072058C807200DC0072020
:1038500028C90720FCC807203655020030B5182BB0
:103860008DB005460C4615D8B2FA82F1181C18BF67
:103870000120490981420DD08DE80D00294604A898
:1038800022469DF84030FFF7C1FE18B104A8FFF7AB
:103890003BFF00E000200DB030BD13B504461078AA
:1038A00052790B461209009203212246FFF7D6FFF8
:1038B00002B010BD00231A4630B5084C990014F828
:1038C00023502DB1904201D1601830BD0132D2B2E7
:1038D0000133042BF1D1002030BD00BF35C90720D2
:1038E00000231846044A12F823200AB10130C0B25E
:1038F0000133042BF6D1704735C907202DE9F0417B
:1039000088B068460021202209F02CFEA14B1B78CC
:1039100003F0FF04002B40F03A819F4E6846336964
:1039200020219847002800F083809C4D6B8801334C
:103930006B80FFF7D5FF9DF80420A87202F0070303
:10394000032B04D0964A137843F0010309E0954B0A
:103950001D789DF80230AB4205D1914A137843F0AF
:1039600002031370E3E0C2F3C2029DF800E09DF889
:103970000600D7B28C4904EB440313F801C0F445A8
:103980000AD10B445978814206D199780124CF1B82
:1039900018BF01279A7018E00134042CEAD183493A
:1039A0000B689A70804A587002F10900834283F8CC
:1039B00000E040F0C9800A609DF800009DF80230E8
:1039C000834240F0C480002427469DF80200FFF7A0
:1039D00013FD9DF8022002709DF802204270002223
:1039E0008270FFF78BFC04B117B39DF80030AB4237
:1039F00000F09C809DF80170FF2F1BD13368684652
:103A00002021984720B9664A137843F004031370C5
:103A10009DF8053003F00F02511C61F303038DF88C
:103A20000530C3F303139A4202DA6846FFF71CFC21
:103A300000247CE0BD422BD164B99DF807304BB126
:103A4000336868462021984720B9554A137843F0D7
:103A5000040313709DF8043003F0C003402B12D10F
:103A60009DF8073013B95248182108E04B480C2143
:103A70006A46FFF712FF002858D1002001466A4627
:103A8000FFF70BFF52E09DF80330002B4ED1F4E717
:103A9000484B1B78002BCBD09DF8054004F00F0657
:103AA0004FEA14184645C3DA013666F30304384674
:103AB000FFF712FC8DF805409DF80340A5421ED18A
:103AC0009DF8041001F0C001402906D0A1F1800347
:103AD0005A425A41144618B91BE00122002854D01A
:103AE000C029437805D19F4203D0003318BF01237A
:103AF00000E00023134303F0010428B90BE0ACB944
:103B000010B9684641460FE043788DF80330857858
:103B100004E0C02939D000258DF803506846FFF72E
:103B2000A3FB1CB168462946FFF71EFC6C46FFF755
:103B300075FB204620490422FFF78EFC20461F49D2
:103B40000222FFF789FC22E003330B6034E7854251
:103B50003FF439AFFFF750FC0446FFF7CFFB237863
:103B60003BB19DF80530A27803F00F0393423FF775
:103B70002AAF9DF8003023709DF8023063709DF8E5
:103B80000530C3F30303A3701DE70346B2E708B093
:103B9000BDE8F08120C9072058C8072014C90720B4
:103BA00046C907200DC0072029C9072008C00720E3
:103BB000FCC8072028C907206CC8072047C9072070
:103BC00000231846094A1A4452780AB10130C0B29B
:103BD0002433902BF6D1064B5A780AB10130C0B28B
:103BE00093F825300BB10130C0B270476CC8072084
:103BF00047C9072008B5FFF76FFB064B28B182784D
:103C0000187802FB0000C00008BD1878182358433C
:103C100008BD00BF0CC0072003490B6803604B6858
:103C200043608B688360704714C9072030B5414CEE
:103C30004FF48035E561404CA060E068C506FCD4D7
:103C40003D488068C0B20BB90C4665E00B46002ABF
:103C50006AD0072A384C0D782FDDA5604D78083AD8
:103C6000A5608D78A560CD78A5600D79A5604D79AA
:103C7000A5608D79A56001F10805C979A1602E497B
:103C80008C696407FBD58C681C708C685C708C68D0
:103C90009C708968D9702849CC68E406FBD48C688C
:103CA000083303F8044C8C6803F8034C8C6803F861
:103CB000024C896803F8011C1BE0032A1BDDA56088
:103CC0004D78043AA5608D78A5600D1DC978A16076
:103CD0001949CC68E406FBD48C68043303F8044C1F
:103CE0008C6803F8034C8C6803F8024C896803F86D
:103CF000011C2946ABE70131A560013AE568ED06F4
:103D0000FCD40D4C0133A46803F8014C9FE7DD6837
:103D1000ED06FCD4084B9B68631A934204DA14F84E
:103D2000015B054B9D60F2E7024B4FF480329A61D4
:103D300030BD00BF00C009200080084007B5002347
:103D400002A9012201F8013D00F01F001346FFF710
:103D50006DFF9DF8070003B05DF804FB07B502ABEB
:103D600003F8011D00F01F0019460122002340F056
:103D70002000FFF75BFF03B05DF804FB08B51720D8
:103D8000FFF7DCFFC0F3001008BD07207021FFF72C
:103D9000E5BF03460A46A02019460023FFF746BFA9
:103DA00008B50020FFF7CAFFBDE8084000F0FE019B
:103DB0000020FFF7D3BF0000024B4FF08072DA61A2
:103DC000704700BF20C0092008B50020FFF7B6FFEC
:103DD00040F00101C9B20020FFF7C0FF024B4FF0D5
:103DE00080729A6108BD00BF20C0092007202021F1
:103DF000FFF7B4BF0021E1200A460B46FFF716BFCC
:103E000037B50C460546FFF7F5FF21462846FFF774
:103E1000C0FF0D4B4FF080721C469A610022ADF836
:103E20000620BDF8063001339BB2ADF8063033B939
:103E30004FF08073E361FFF7DDFF03B030BDFFF7A4
:103E40009DFF0028EDD0F3E720C0092008B517201A
:103E5000FFF774FF00F0010080F0010008BD0720AB
:103E60004021FFF77BBF08B503460A46612019468B
:103E70000123FFF7DBFEC0F3420008BD0021E22072
:103E80000A460B46FFF7D2BE70B5064600200D4627
:103E90001446FFF753FF16B100F0BF0002E040F0F8
:103EA0004000C0B215B100F0DF0101E040F0200198
:103EB00014B101F0EF0101E041F010010020BDE874
:103EC0007040FFF74BBF10B504460020FFF736FFE8
:103ED00014B900F0F7010DE0012C04D100F0FB0152
:103EE00041F0080106E0022C14BF40F0080140F048
:103EF0000C01C9B20020BDE81040FFF72FBF08B584
:103F00000020FFF71BFFBDE8084040F00201C9B2E6
:103F10000020FFF723BF08B50020FFF70FFFBDE823
:103F2000084000F0FD010020FFF718BF40F6DD1348
:103F3000984206D840F66213B0F5166F38BF18469F
:103F400000E01846A0F51661C9B20520FFF706BFCC
:103F500010B504460620FFF7F1FEFA2C00F0D70159
:103F600002D141F0200104E0B4F5FA6F08BF41F03E
:103F700008010620BDE81040FFF7F0BE10B504466A
:103F80000620FFF7DBFE032C20F0060028BF0324E9
:103F900040EA4401C9B20620BDE81040FFF7DEBE8A
:103FA000F9284FF0FA0305D9B0F57A6F88BF4FF4BE
:103FB0007A6000E01846B0FBF3F00F2900F1FF3003
:103FC000C0B228BF0F2141EA0011C9B20420FFF797
:103FD000C5BE1130C0B2162804D8202928BF202120
:103FE000FFF7BCBE7047032804D0042814BF032188
:103FF000022100E001210320FFF7B0BE03460A467C
:10400000302019460023FFF711BE03460A462A2036
:1040100019460023FFF70ABE73B50E46154604463F
:10402000FFF72CFFFFF7E6FE2B4B4FF08072DA61B3
:10403000FFF771FF00210A460120FFF725FFFFF778
:10404000A4FE0220FFF73FFF3046FFF76FFF284630
:10405000FFF77EFF0320FFF791FF02200321FFF708
:104060007DFE01200021FFF779FE4FF4FA70032155
:10407000FFF796FF21460020FFF7ABFF122000213B
:10408000FFF76CFE13200021FFF768FE14200021CB
:10409000FFF764FE15200021FFF760FE00211620C7
:1040A000FFF75CFE0D4B18681B79009005208DF81A
:1040B0000430FFF798FF68460521FFF79FFF684629
:1040C0000521FFF7A2FFFFF71AFF4FF4FA6004F093
:1040D00012FC02B070BD00BF20C009203D55020097
:1040E00007B5094B002102AA186842F8041D0B46C7
:1040F00006F037F9019B1BB1044B4FF080521A6058
:1041000003B05DF804FB00BF98C9072004ED00E090
:1041100070B5174E326822B90320202106F057F8F7
:104120003060144D2A6822B90120202106F04FF892
:104130002860114C216821B90120032206F047F8BC
:104140002060202040F6C3114FF4FA62FFF764FFAD
:10415000FFF73AFE16200121084A04F0BFFF30683D
:1041600028B1286818B12068003018BF012070BD40
:1041700094C9072090C9072098C90720E140010091
:1041800070B506460379002203F0C003C02B0CBFB4
:104190000D4B0E4B88B01D6831462846134606F07D
:1041A00047F8044660B9224623466946284606F089
:1041B00013F9224623462846314606F039F80446CC
:1041C000204608B070BD00BF90C9072094C90720E1
:1041D00038B504460D46FFF70BFA237883420AD020
:1041E000E37843B90AF0D8FBBD2300F0030000FBDD
:1041F000033004F080FBFFF7DFFDFFF7D1FD204621
:10420000A9B2FFF7FDFDFFF7F1FDFFF7DDFD06F0B9
:1042100067FE022806D1044B002118680A460B46A7
:1042200006F09FF8012038BD98C9072038B505462B
:104230000C46FFF70BFE48B1A1B22846FFF713FE6C
:10424000FFF704FE08B9FFF70AFE012038BD2DE98B
:10425000704306460D46144606F042FE022807D17A
:10426000224630462946002306F0B6F8C4B21DE0C7
:1042700007F0D0F94FF47A72002308F037FC10EB06
:10428000040841F10009002230462946134606F091
:10429000A3F8C4B254B907F0BDF94FF47A72002301
:1042A00008F024FC894508BF8045ECD22046BDE8D3
:1042B0007083042938B5054603D1041C18BF0124B6
:1042C00000E0002407F0A6F92CB14FF47A72002325
:1042D00008F00CFC2860204638BD000000B50C4BEF
:1042E0008DB009930B4B0C4A0B930C4B0A930CAB00
:1042F00043F8102D002204920FCB8DE80F00084BDD
:104300000121084A6A20FFF727FA0DB05DF804FB87
:10431000114101002D420100B3420100D1410100D1
:10432000814101004255020003460A4602490868DD
:104330001946FFF78CBF00BF94C9072003460A4601
:10434000024908681946FFF782BF00BF90C90720DD
:1043500008B506F0C5FD0F4B02285B6913D15A0260
:104360000DD5FFF72DFC0C4B00284FF0000118680D
:1043700014BF01224FF0FF320B4606F02DF8BDE8C6
:104380000840FFF7BBBA5B02F9D5FFF719FC00281C
:10439000F5D108BD00C0092098C9072030B50446F2
:1043A0000D46134621792A46BDE83040006805F0E5
:1043B00045BB1FB50A4604AB0021022423F8041DA7
:1043C00001790094006805F024FB9DF80C009DF82D
:1043D0000D3043EA002004B010BD10B504462A2178
:1043E0001922FFF7DBFF206821790D2205F015FB6C
:1043F000A0F12A035842584110BD0000044A138816
:104400001F2B9FBF581C1080024A42F82310704790
:10441000A0C90720A4C90720144AF0B51488012CAC
:1044200020D9134B00211F46661EB14206DA586898
:104430001D680131401B43F8040BF5E77B6803EB73
:104440005301002318469CB2B44209DA57F82450AD
:1044500001338D4282BF012505FA04F42043F2E7BF
:10446000044B186000231380F0BD00BFA0C90720D3
:10447000A4C907209CC9072008B50220012107F024
:1044800061F8084B01209A6A22F007029A629A6A40
:1044900042F006029A62044AD36843F03003D360C4
:1044A00008BD00BF0080004000C0024008B5044ABB
:1044B00001F07F034171D25C0321FFF76FFF08BD5C
:1044C0004755020008B5044A01F07F038171D25CB0
:1044D0000221FFF763FF08BD4755020038B50446C7
:1044E0000068217905F0B5FA054688B12046062115
:1044F0000022FFF753FF204607210022FFF74EFF5F
:1045000020462E21FFF7D2FF20462E21FFF7DAFFAB
:10451000284638BD642370B5B1FBF3F404FB1311D6
:10452000CCB20A21B4FBF1F501FB15413031C9B21F
:104530000646FFF7C7FF092C8ABF05F13001304658
:104540003046BDE8704094BF2021C9B2FFF7AEBF2E
:104550000120704738B50D46044606F0FDFD05F014
:104560000F032370114B15F0010F4FF0010214BF20
:10457000DA619A61227812F0020F4FF0020214BF42
:10458000DA619A61227812F0040F4FF0100214BF22
:10459000DA619A61227812F0080F4FF4807214BF2A
:1045A000DA619A61BDE8384006F0E8BD20C0092014
:1045B00001207047022004F02FBA0120704700004C
:1045C000044B5B69C3F38130C3F3412343EA8000AA
:1045D000704700BF20C0092010B504460121812288
:1045E000FFF7DCFE20682179012205F016FA10F0B1
:1045F000600F14BF0120002010BD38B50021054612
:10460000FFF7D7FE8122012184B22846FFF7C6FEBC
:1046100024B2102094FBF0F008F07EF84FF07651B1
:1046200008F0CEF8A96807F0C3FF38BD08B5FFF75A
:10463000E4FF054908F0C4F8044908F075F94FF0A3
:10464000844107F0B5FF08BD000010410000A04004
:104650002DE9F04F0546ADF2546D0C46904682A808
:10466000294601229946DDF878A602F011F80028C3
:1046700067D121460DF22C400A2202F009F80446C7
:1046800020B182A802F075FA20465AE08346064619
:104690000090019006F0BEFF4FF47A72002308F0FC
:1046A00025FA02A907464FF4007282A86B4602F071
:1046B00088F80546D8B9009BCBB106F0ABFF4FF4A4
:1046C0007A720023F61B08F011FA064406F0A2FFE6
:1046D0004FF47A72002308F009FA02A90746009AFB
:1046E0000DF22C4001AB02F02AF90546B8B1B8F141
:1046F000000F01D0C8F80060B9F1000F01D0C9F86F
:1047000000B0BAF1000F01D0CAF8004082A802F050
:1047100030FA0DF22C4002F02CFA284611E0019AF2
:10472000009B9A42E3D106F075FF4FF47A720023A2
:1047300008F0DCF9009BBBEB070200EB020B1C440A
:10474000A8E70DF2546DBDE8F08FF0B50446ADF565
:104750000B7D0F46164621461D4601A80023012267
:10476000009301F095FF044670B91DB101A82946D8
:1047700002F011FA01A8394632466B4602F021F8E0
:10478000044601A802F0F5F920460DF50B7DF0BDB9
:10479000F0B50446ADF50B7D0F46164621461D4685
:1047A00001A800230A22009301F072FF044670B9A9
:1047B0001DB101A8294602F0EEF901A8394632469A
:1047C0006B4602F0BCF8044601A802F0D2F920467C
:1047D0000DF50B7DF0BDF0B50446ADF50B7D0F4634
:1047E000164621461D4601A800231222009301F01F
:1047F0004FFF044680B901A80DB1294600E0049995
:1048000002F0C9F901A8394632466B4602F097F822
:10481000044601A802F0ADF920460DF50B7DF0BD70
:104820007F2816D931B1FF2812D80A4B803833F8C7
:1048300010007047074A8BB232F81120824203D031
:1048400001318029F6D10B4603F18000C0B27047D8
:1048500000207047A85702000023064A32F81320B0
:1048600032B1904201D00133F7E7034A32F8130026
:10487000704700BFA8580200C855020010B50120BB
:104880000C4605F048FD2060003018BF012010BD27
:104890000120704710B5044606F022FB02280AD119
:1048A00000210B4620464FF0FF3205F095FD431ED8
:1048B0005842584110BD012010BD10B5044606F005
:1048C0000FFB022807D100212046BDE810400A4610
:1048D0000B4605F0ADBC10BD10B5044604F082FED9
:1048E00024B1012C06D100F07BF901E000F0EEFCD0
:1048F000044600E0042404F08DFE204610BD28B1DB
:10490000012801D00420704700F018BA7047F8B5AC
:1049100007460E4615461C4604F064FE3FB1012FC3
:104920000CD130462946224600F010FA04E0304609
:104930002946224600F016FD044600E0042404F057
:1049400069FE2046F8BDF8B507460E4615461C46DA
:1049500004F048FE3FB1012F0CD1304629462246D3
:1049600000F042FA04E030462946224600F020FDDD
:10497000044600E0042404F04DFE2046F8BD70B566
:1049800006460D46144604F02DFE36B1012E0AD11E
:104990002846214600F082FA03E02846214600F02E
:1049A0002BFD044600E0042404F034FE204670BDD4
:1049B00008B506F02FFE4FF47A72002308F096F83F
:1049C00008BD000010B5044606F09CFF074BB0FB85
:1049D000F3F00223B0FBF3F2944202D3044A1361D2
:1049E00010BDB3F5807FF9D00233F3E740420F00EA
:1049F00000000340044B9860DA68D206FCD4024BF6
:104A00009868C0B2704700BF0000034038B5FFF798
:104A1000CFFF00F5FA75FF20FFF7ECFFFF20FFF74F
:104A2000E9FFFF28044606D0FFF7C2FF00239942A2
:104A300008BFA842F2D3204638BD000038B5064C66
:104A40004FF00075E561FFF7E1FF044AA5611378B7
:104A500043F00103137038BD20C009200EC00720A9
:104A600070B505460E46FFF7A3FF00F16404FF2072
:104A7000FFF7C0FFFF2808D1FFF79AFF00239942F4
:104A800008BFA042F3D3002070BDFE28FBD1102E3A
:104A900006D928464FF40071002204F041FD19E0C8
:104AA0002C1DFF20FFF7A6FF04F8040CFF20FFF7E2
:104AB000A1FF04F8030CFF20FFF79CFF04F8020C91
:104AC000FF20FFF797FF043404F8050C331D1B1B70
:104AD000DD42E6D1FF20FFF78DFFFF20FFF78AFFC1
:104AE000012070BD70B506460D46FFF78FFFFF2809
:104AF000044619D12846FFF77DFFFD2D16D04FF44F
:104B000000712246304604F00BFD2046FFF772FF8D
:104B10002046FFF76FFF2046FFF76CFF00F01F00F5
:104B2000431F5842584170BD002070BD012070BD28
:104B3000020638B504460D4607D577200021FFF759
:104B4000F7FF012836D804F07F041B4B4FF00072AA
:104B50009A61DA61FFF75AFFFF282AD12046FFF752
:104B600049FF280EFFF746FFC5F30740FFF742FF56
:104B7000C5F30720FFF73EFFE8B2FFF73BFF402CED
:104B800004D0482C0CBF8720012000E09520FFF7BF
:104B900031FF4C2C02D1FF20FFF72CFF0A24FF200D
:104BA000FFF728FF030605D5013C14F0FF04F6D1FA
:104BB00038BDFF2038BD00BF20C00920064A074984
:104BC00013784969DBB2490154BF03F0FD0343F098
:104BD00003031370704700BF0EC0072020C00920D8
:104BE0002DE9F347FFF7EAFF514B1A781E4612F002
:104BF000020F01D0187896E00120FFF7E3FE0A24A7
:104C0000FF20013CFFF7F6FE14F0FF04F8D1494DF8
:104C10004FF00073EB6140202146FFF789FF012828
:104C200001D000246EE0FFF7C3FE4FF4D57100F50C
:104C30007A7A4820FFF77CFF01283DD1FF20FFF75B
:104C4000D9FE01AF38550134042CF7D19DF8063058
:104C5000012BE6D19DF80730AA2BE2D1FFF7A8FE81
:104C60004FF00009494508BF5045D04606D3FFF72D
:104C70009FFE494508BF4045D3D207E0E9204FF0E9
:104C80008041FFF755FF0028E8D1F0E77A200021A6
:104C9000FFF74EFF0028C4D10446FF20FFF7AAFE0D
:104CA00038550134042CF8D19DF8043013F0400F2E
:104CB00014BF0C24042425E02146E920FFF738FF27
:104CC000022835BF02240124E9274127FFF770FE9F
:104CD0004FF00009494508BF5045D0460BD3FFF7B8
:104CE00067FE494508BF40450CD34FF40071502082
:104CF000FFF71EFF06E038460021FFF719FF0028E6
:104D0000E4D1ECE70C4B1C704FF00073AB613CB18D
:104D10003378182003F0FE033370FFF753FE01E0F1
:104D2000FFF78CFE3078C0B202B0BDE8F08700BF5C
:104D30000EC0072020C0092024CA072008B5FFF7AD
:104D40003DFF014B187808BD0EC00720F8B514468A
:104D500007460E46FFF732FF002C3AD01F4B1B7858
:104D6000DB0738D41E4B4FF00072DA611D4A1D4636
:104D7000127812F0080F08BF7602012C0DD15120D5
:104D80003146FFF7D5FEE8B938464FF40071FFF71A
:104D900067FEB0FA80F4640914E052203146FFF750
:104DA000C7FE78B938464FF40071FFF759FE28B1B5
:104DB000013C14F0FF0407F50077F3D14C200021EB
:104DC000FFF7B6FE4FF00073201CAB6118BF012047
:104DD000F8BD0420F8BD0320F8BD00BF0EC00720B9
:104DE00020C0092024CA0720F8B5144607460E46FD
:104DF000FFF7E4FE002C45D0254B1A78D20743D4A8
:104E00001B785B0742D4234B4FF00072DA61224AD1
:104E10001D46127812F0080F08BF7602012C0CD143
:104E200058203146FFF784FE28BB3846FE21FFF7A5
:104E300059FEB0FA80F464091DE012F0060F03D0A9
:104E4000D7202146FFF774FE59203146FFF770FE48
:104E500088B93846FC21FFF745FE28B1013C14F023
:104E6000FF0407F50077F4D10020FD21FFF73AFE9B
:104E7000002808BF01244FF00073201CAB6118BF4D
:104E80000120F8BD0420F8BD0320F8BD0220F8BDC4
:104E90000EC0072020C0092024CA07207FB5044681
:104EA0000D46FFF78BFE052C1AD12B78012B00F055
:104EB000FD8003D3022B0BD00420FAE07E4B58690F
:104EC00010F0806440F0F280FFF7B8FD2046F0E07B
:104ED000794B5B6983F08063C3F380636B70E5E0BB
:104EE000764B1B78DB0700F1E3800E2C00F2D880B4
:104EF000DFE804F008124F53D6D6D6D6D6D6A3A8EC
:104F0000AAB4C4006C4B4FF00072DA61FFF77EFD6B
:104F1000FF3818BF0120C4E049200021FFF708FE38
:104F2000044608B10120BCE068461021FFF798FD57
:104F30000028F7D09DF800309DF809009B09012B4F
:104F40009DF8083005D1013000EB03239BB29B0292
:104F50001CE09DF80710890001EB93135A1C9DF883
:104F600006309DF8051003F0030302EB83239DF840
:104F70000A2001F00F0101EBD212911C00F0030294
:104F800001EB4202D2B29BB2093A93402B60204619
:104F900087E04FF400732B8052E0494E337803F0E2
:104FA000040303F0FF01DBB1CD200021FFF7C0FDBA
:104FB0000028B7D1FF20FFF71DFD68461021FFF73D
:104FC0004FFD0028AED03024FF20FFF713FD601EF8
:104FD00010F0FF04F8D19DF80A2010231209D4E73D
:104FE0004920FFF7A5FD044600289BD16846102103
:104FF000FFF736FD002895D031789DF80A2001F0A2
:10500000020101F0FF009DF80B3051B102F03F02A8
:10501000DB0903EB42039DF80D2001339209013AAD
:10502000B3E7C2F3840103F003045A0902EBC4029C
:10503000531C01FB03332B6033E0214B1B782B7097
:1050400000202EE0492000E04A200021FFF770FDFB
:1050500000287FF467AF284610211BE07A2000214A
:10506000FFF766FD00287FF45DAF2C1DFF20FFF7E2
:10507000C1FC05F8010BA542F8D1E1E7CD200021E4
:10508000FFF756FD00287FF44DAFFF20FFF7B2FC7D
:1050900028464021FFF7E4FCB0FA80F0400900E028
:1050A0000420054B4FF000729A6102E0002000E0FE
:1050B000032004B070BD00BF20C009200EC007202F
:1050C00024CA0720054B1B78253BDBB2032B9ABF74
:1050D000034A52F823000020704700BF28CA072067
:1050E000905A02001B4B2DE9F0411D880646B5F58C
:1050F000007F0F46144602D1084611460AE0B5F576
:10510000807F09D1084611462A46B04707F58070CE
:1051100004F580712A4617E0B5F5047F05D1510AE0
:10512000384689024FF400720EE0B5F5847F0FD146
:10513000140A08464FF480726102B047611C07F5FB
:10514000807049024FF480723346BDE8F041184741
:10515000BDE8F08126CA0720034610B500295DDDB1
:1051600007291A782E4C2FDDA2605A780839A260E0
:105170009A78A260DA78A2601A79A2605A79A2605D
:105180009A79A26003F10802DB79A360244B9C6941
:105190006407FBD59C6804709C6844709C688470AC
:1051A0009B68C3701E4BDC68E406FBD49C68083027
:1051B00000F8044C9C6800F8034C9C6800F8024C12
:1051C0009B6800F8013C1BE003291BDDA2605A78B4
:1051D0000439A2609A78A2601A1DDB78A360104B94
:1051E000DC68E406FBD49C68043000F8044C9C683E
:1051F00000F8034C9C6800F8024C9B6800F8013CE6
:105200001346ABE70133A2600139E268D206FCD451
:10521000034A0130926800F8012C9FE710BD00BFDF
:105220000000034007B50B0C8DF804008DF8053025
:105230008DF807100B0A01A804218DF80630FFF73E
:105240008BFF03B05DF804FBF7B5164607460E4C1E
:1052500040250323E5618DF804300B0C8DF80530F3
:105260008DF807100B0A01A804218DF80630FFF70E
:1052700073FF38463146002204F052F9A561A5615A
:10528000A56103B0F0BD00BF00C009200D4B402256
:10529000DA610D4BD7229A60DA68D106FCD40A4B4A
:1052A0009B68094BFF229A60DA68D206FCD4064B51
:1052B00098680306F5D5034B40229A61C0B29A6103
:1052C0009A61704700C0092000000340F7B5FFF75E
:1052D000DDFF1F4C002323801E4B1F4E40271A88E2
:1052E0009B78F7610546032101A8ADF804208DF8ED
:1052F0000630FFF731FF9DF805209DF806301F2A84
:10530000B761B761B7611CD1A3F12502032A18D890
:10531000124A252B137005F0010006D1002814BF96
:105320004FF480734FF4847305E0002814BF4FF4EA
:1053300000734FF404732380FFF7C4FE084B400A48
:1053400018602088B0FA80F0400903B0F0BD00BFBB
:1053500026CA0720885A020000C0092028CA072050
:105360002CCA07202DE9F0418B1817460E4A013B45
:1053700012688046934214D84D024446FFF786FFD8
:105380000026C8EB0502BE42224407DA2146074840
:10539000FFF7A8FE04F500740136F2E70020BDE82F
:1053A000F0810120BDE8F0812CCA0720495201009C
:1053B0002DE9F0418B1817460D4A013B12688046D3
:1053C000934212D804464D020026C8EB0502BE42A5
:1053D000224407DA21460748FFF784FE04F50074EB
:1053E0000136F2E70020BDE8F0810120BDE8F08140
:1053F0002CCA0720D954010010B50C46072805D83F
:10540000DFE800F006090E1214141414042010BD75
:10541000FFF73CFF0AE0FFF755FE400A206005E079
:105420004FF400730B8001E001230B60002010BDDE
:1054300070B590B003466A466E4600F140051446CA
:1054400018685968083303C4AB422246F7D1084DA7
:105450004024EC619B200021FFF7E4FE304621460A
:10546000FFF77AFEAC61AC61AC6110B070BD00BFFB
:1054700000C0092070B50646074D40247720002162
:10548000EC61FFF7CFFE30462146FFF765FEAC61C9
:10549000AC61AC6170BD00BF00C00920064B10B507
:1054A0001C8834F01F0404D0FFF70CFEB0FBF4F0AE
:1054B00010BD204610BD00BF26CA0720014B18882A
:1054C000704700BF26CA0720024B1878003018BF6B
:1054D0000120704726CA07202DE9F7434FF0FF331C
:1054E0000F46904601938146FFF7D0FEFFF7ECFF91
:1054F0000646B0B1194C4025194BE5611B880320C5
:10550000B3F5847F0CBF4FF480714FF400713943C1
:10551000FFF788FE01A80421FFF71EFEA561A56123
:10552000A5610E4C402382203946E361FFF77AFEE5
:1055300048464146012203F0F3FF3EB1019B02A819
:10554000013340F8043D0421FFF706FE4023A36128
:10555000A361A36103B0BDE8F08300BF00C00920D0
:1055600026CA0720F7B5124B07461B88B3F5847F80
:105570004FF0FF330CBF4FF480764FF40076019369
:10558000FFF7A2FF70B10B4C4025032046EA4721EC
:10559000E561FFF747FE01A80421FFF7DDFDA561E6
:1055A000A561A5610198431C08BF002003B0F0BDB0
:1055B00026CA072000C0092037B5074B074C1868DA
:1055C000402501900421E56101A8FFF7C5FDA56113
:1055D000A561A56103B030BD8B5A020000C009204F
:1055E0001FB501A803F0C0FE9DF809309DF8082002
:1055F00003F00F0302F01F025B0543EA02419DF82E
:1056000006309DF8040003F01F0341EAC3229DF811
:105610000530C0F3440003F03F0342EA4313BDF8F2
:105620000A201843520602F10842104305B05DF803
:1056300004FB30B504460D1F131B0344032B04D990
:1056400055F8043F44F8043BF6E722F003031944FD
:1056500002F00302013B18440A44914204D011F8BD
:10566000013B00F8013FF8E730BD0244904202D010
:1056700000F8011BFAE7704700F10B010023DA0183
:1056800042EA530310F8012B1344884203F0FF034E
:10569000F5D118467047026810B50446BAB11346F2
:1056A000184613F8011B1F2902D93A29F8D101E045
:1056B000002010BD114611F8013B884207D1303B54
:1056C000D9B2012903D802321846226010BD4FF02A
:1056D000FF3010BD03692DE9F04101F109020D46CB
:1056E00053B3416900244E1E16F8013F0134202BAC
:1056F00018D0052B47D0092C02D12E271770013264
:10570000A3F14107192F0BD8082C0F7B8CBF4FF04A
:10571000100E4FF0080E1EEA070F1CBF2033DBB23D
:10572000137001320B2CDFD1CB7A2B72CB692B603B
:105730000B8BAB80CB8AEB8000241470AE693EB338
:1057400003690BB900241AE0EB69002BFAD04FF67D
:10575000FF73028C9A42F5D0D0F81C80771E38F87F
:10576000140060B10021FFF75BF80028EAD0EB6974
:10577000013B9C42E6D2013407F8010FEFE700231A
:105780003355BDE8F081092C4FF0E503C8D1B4E7EB
:10579000BDE8F081F8B5037904460BB90020F8BDE7
:1057A000056B00F13407394640782A460123FFF79C
:1057B000CAF890B9636AE269EB1A93422071EDD29C
:1057C000E678012EEAD9E36960781D4439462A4615
:1057D0000123FFF7B8F8013EF3E70120F8BD000010
:1057E000F8B50446FFF7D6FF05468DBB2378032B9B
:1057F00026D16679012E23D104F134073846294693
:105800004FF40072FFF731FF4AF65523A4F8323205
:10581000104B226A636303F1FF5303F500532033F7
:10582000C4F8183263690132C4F81C322369226358
:10583000C4F82032607839463346FFF784F8657142
:10584000002160780A46FFF79AF8003018BF01205F
:10585000F8BD00BF52526141036B70B599420546D5
:105860000E4610D0FFF796FF044608B101240BE066
:10587000687805F1340132460123FFF748F8002823
:10588000F4D12E6300E00024204670BD002310B543
:1058900003714FF0FF3303630446FFF7DDFFA0B948
:1058A0004AF65523B4F832229A4210D1D4F86A301D
:1058B000084A23F07F4393420AD0D4F8860020F0B0
:1058C0007F40801A18BF012010BD032010BD0220A8
:1058D00010BD00BF46415400F0B50023036085B001
:1058E000074608461546FFF7D6FE061EC0F2F280B0
:1058F0007E4B53F82640002C00F0EE80E068FEF767
:10590000C9FF002800F0EA803C60237883B160780A
:10591000FEF7F5FFC1070BD4002D00F0D98000F091
:10592000040303F0FF00002B00F0DD800A20DAE022
:105930000023F0B223706070FEF7CEFFC20700F1C3
:10594000CF800DB14307F1D420460021FFF79EFF21
:1059500001281CD12146002291F8F6310BB1D1F873
:10596000FA314DF822300132042A01F11001F3D14D
:1059700000265DF826502DB120462946FFF786FF08
:1059800008B90BE002200136042EF2D100E0002518
:10599000032800F0A78008B10D20A4E0B4F83F3040
:1059A000B3F5007FF8D1B4F84A0000B9A06D94F8BF
:1059B00044E0E0610EF1FF33012B84F803E0EBD803
:1059C00094F84130A370002BE6D05A1E1A42E3D15E
:1059D000B4F845C01CF00F0FA4F808C0DCD1B4F82F
:1059E000472002B9626DB4F842100029D4D00EFBF2
:1059F00000FE01EB1C177744BA42CDD3D21BB2FB99
:105A0000F3F3002BC8D040F6F572934206D94FF657
:105A1000F576B3428CBF0326022600E0012602334E
:105A200029442F44032EA36125626162E76206D1F7
:105A3000BCF1000FB0D1226E9B00A26210E0BCF15D
:105A4000000FA9D0022E4FEA43020CBF1346D21812
:105A5000714418BF03F00103A16218BF03EB5203A6
:105A600003F2FF13B0EB532F96D34FF0FF33636174
:105A70002361032E4FF08003637122D1B4F86430A8
:105A8000012B1ED12046691CFFF7E6FEC8B94AF675
:105A90005523B4F8322260719A4212D1626B144BD2
:105AA0009A420ED103F1FF53D4F8182203F50053A4
:105AB00020339A4201BFD4F81C326361D4F82032FB
:105AC00023610C4A2670138801339BB21380E38054
:105AD000002008E00B2006E00C2004E00F2002E08C
