:020000021000EC
:10000000E03F082093010100FB000100E100010036
:10001000090101001901010029010100000000008F
:10002000000000000000000000000000ADAB010077
:1000300039010100000000003DAC01005901010040
:10004000DDB10100DDB10100DDB10100DDB1010074
:10005000DDB10100DDB10100DDB10100DDB1010064
:10006000DDB10100DDB10100DDB10100DDB1010054
:10007000DDB10100DDB10100DDB10100DDB1010044
:10008000DDB10100DDB10100DDB10100DDB1010034
:10009000DDB10100DDB10100DDB10100DDB1010024
:1000A000DDB10100DDB10100DDB10100DDB1010014
:1000B000DDB10100DDB10100DDB10100DDB1010004
:1000C000DDB10100DDB10100DDB10100F861020028
:1000D00000C00720BC010000C0C10720440400008C
:1000E00004207146084203D0EFF309800BF094B866
:1000F000EFF308800BF090B8704708B5014807F09F
:1001000015FCFEE78A5B020008B5024807F00EFC0A
:10011000FEE700BF955B020008B5024807F006FC49
:10012000FEE700BFA05B020008B5024807F0FEFB37
:10013000FEE700BFAB5B020008B5024807F0F6FB24
:10014000FEE700BFB85B020008B5024807F0EEFB0F
:10015000FEE700BFC65B020008B50AF0EDFC0AF03E
:100160008FFDBDE808400AF0FBBC0B4610B55C1AD9
:10017000944204D2441AE45843F8044BF7E710BD04
:1001800003461A1A8A4203D2002243F8042BF8E7E6
:10019000704716480AF0F6FD14480AF0F6FD144CB4
:1001A000144B9C4207D294E803000C3454F8042CFE
:1001B000FFF7DBFFF4E7104B9C4206D254F8080B24
:1001C00054F8041CFFF7DCFFF5E70CF0B1FD0AF072
:1001D000F3FD01F07DFE02F08DFC4FF416400BF0B4
:1001E00039F9064807F0A2FBFEE700BFE03F082010
:1001F000CC000100D8000100E0000100DA5B020041
:10020000144A70B51368014613B94FF08053136058
:100210001068114B4518114E2B44B34298BF104B38
:100220000C4C96BFC81825602060126898BF18460D
:100230000C4B9A4281BF0C4A064B00201A6039B120
:100240000A4A136801331360094B1860094B19609F
:1002500070BD00BFC4C10720FF7FFFEFFE3F071046
:1002600004C60720FF3F082000400820CCC107201B
:10027000C0C10720C8C107200CF076BE0CF07CBEC0
:100280000CF07ABE10B504468AB068460DF018F935
:10029000204A214B2260089A2049A260079A626096
:1002A00052B90A681E4882428ABF02F1604202F1D6
:1002B0007042A2F5E82262606268B2F5803F82BFB8
:1002C00002F17042A2F5E82262600022E2600A6850
:1002D00013498A4205D8C3F1405303F50C239B1AF6
:1002E00009E010498A4207D8C3F1804303F580131F
:1002F0009B1A002B00DDE36020460B4BE2611B687C
:10030000A3610A4B1B686361094B1B6823610AB038
:1003100010BD00BF0406000004C60720C4C10720AA
:1003200000800010FF3F0820C0C10720C8C107207F
:10033000CCC10720FEE70000014B1860704700BFEA
:10034000D4C10720014B1860704700BFD0C10720FF
:1003500008B502480EF046F8FEE700BFB0320200D2
:1003600008B502480EF03EF8FEE700BFCA320200B0
:100370000020704701207047F8B5084B16461A68F0
:100380000F461C4642B10D46EB1BB34204DA23680C
:1003900015F8010B9847F7E73046F8BDD4C10720A0
:1003A000F8B5094B0F46186816461C4658B10D465D
:1003B000EB1BB34205DA23680020984705F8010BD0
:1003C000F6E726EAE670F8BDD0C1072070470020A6
:1003D00070470000074B1B689A68824207D05A6832
:1003E000824204D0DB681B1A5842584170470120F2
:1003F000704700BF40C107200020704700207047B1
:1004000030B504468DB0A8B3684608F0E5FC9DF809
:100410000030002503F03F0303939DF8013003A84B
:1004200003F03F0304939DF802300B9503F01F0384
:1004300005939DF8043003F01F0306939DF80530E3
:1004400003F00F03013B0793BDF80630C3F30B0322
:10045000A3F26C7308939DF8033003F0070309932C
:10046000BDF80830C3F30B03013B0A930CF0AEFE5A
:1004700084E8210000200DB030BD000070B50F4DA4
:100480000F4E2C6814F0010415D128460BF0A8F883
:1004900088B14FF40E70FFF7EFFE302380F835324D
:1004A0003A2380F8344280F8363280F837423060A0
:1004B00028460BF0A1F8306870BD00BFF4C10720DA
:1004C000DCC1072070B50F4D0F4E2B6813F00104EF
:1004D00016D128460BF084F890B14FF40E70FFF758
:1004E000CBFE012380F83432312380F835323A23B1
:1004F00080F8363280F83742306028460BF07CF8BE
:10050000306870BDF0C10720D8C107202DE9F04741
:10051000ADF50A7D0F4607F06EFE041E04DD0AF0FD
:10052000D3FA20460AF060F80DF1140844462B4D2A
:100530000FCD0FC42B68102123600DEB01020024A6
:100540000AA804940AF07AF825498146254A3846D3
:1005500008F0F0FE26460AAD4FF0000ACA451ED04C
:100560006B69A34217D1AA69049B164423B1642185
:10057000B3FBF1F3B2FBF3F395F80CE00094A98B15
:100580000293890001910392384617496A6858F826
:100590002E3008F0CFFE0AF1010A2035DEE70134E3
:1005A000052CD8D1049B64229E1BB3FBF2F30F49A8
:1005B0000F4AB6FBF3F30096384608F0BBFE09F08D
:1005C000F5FE102804D938460A49102208F0B2FE78
:1005D00001200DF50A7DBDE8F08700BFE43202007E
:1005E000033302002A3302002F3302004C3302008F
:1005F0006B3302007633020010B50C46ADF5007D7A
:1006000068460AF071FD204669464FF0FF3208F057
:100610005BFE01200DF5007D10BD000030B50C46DD
:1006200091B02C49054607F0F2FC002847D008ABF2
:10063000009309AB01930AAB02930BAB03930CAB92
:1006400004932846244906AA07AB07F048FC07286C
:1006500001D000203BE09DF83930069A0DA862F3E6
:1006600003038DF83930079A9DF8383062F304039C
:100670008DF83830089ABDF83A3062F30B03ADF8C4
:100680003A30099A9DF8363062F304038DF836301B
:100690000A9A9DF8353062F305038DF835300B9AD0
:1006A0009DF8343062F305038DF834300C9A9DF8D0
:1006B000373062F302038DF8373008F0B5FB08F0ED
:1006C0004FFC06490246204608F034FE012011B0D6
:1006D00030BD00BFA0330200A4330200AD530200BE
:1006E000F7B50D465149044607F081FD064640B175
:1006F00006F0B0FF28464E494FF0FF3208F0E4FD07
:1007000090E020464B4907F072FD60B306F0C6FF4B
:1007100049490246284608F00DFE06F0CBFF47493E
:100720000246284608F006FE06F0BEFF444902468F
:10073000284608F0FFFD304606F0A6FF06460120D9
:1007400006F0A2FF0446022006F09EFF07460320A3
:1007500006F09AFF009701903A4928463246234610
:1007600008F0E8FD5EE02046374907F050FC50B144
:1007700001212022204607F0E8FC204607F039FD41
:1007800007F0B4F84EE02046304907F040FC06463A
:1007900020B920462E4907F03AFC88B301212046B3
:1007A000202207F0D2FC20462A4907F047FC60B916
:1007B0002046294907F042FC28B92046274907F07E
:1007C0003DFC044602E0032400E0022420463146BA
:1007D00006F0E2FF224A234B002E18BF1A463CB116
:1007E000012C07D01C491B4B022C18BF0B4602E002
:1007F0001D4B00E0194B28461C4908F09BFD11E0F9
:10080000204607F0F6FC1A491A4A0090F723012007
:1008100006F0D0FF204607F0ECFC174902462846B8
:1008200008F088FD012003B0F0BD00BFDF330200F7
:10083000E5330200FE330200053402001A340200E0
:100840002F3402004E3402007E3402008234020053
:100850008A340200DA330200D4330200CA460200AE
:10086000C5330200BD330200CE33020093340200D0
:10087000AC340200F8320200DF34020030B589B037
:1008800004AB002400930D460222194903AB0394E4
:10089000049407F032FB022827D107AB009305AA86
:1008A0000398049906AB05940694079403F008FC9A
:1008B000024638B1049B284600930E49039B08F07A
:1008C00039FD10E0059A069B002A079C08BF01220B
:1008D000002B08BF012328460749B4FBF2F2B4FB02
:1008E000F3F308F027FD012000E0204609B030BDF9
:1008F00062460200ED3402000C3502002DE9F0479B
:100900000C46ADF5866D4A49064607F00AFC494992
:100910008146304607F02EFC3046464907F04AFC37
:100920000023454920468DF8073008F003FD236871
:1009300020461B680DF107014FF0FF3298479DF8E4
:100940000730782B6FD0304607F053FC0122014668
:1009500083A805F0D5FB054640B1304607F049FCB9
:1009600036490246204608F0E5FC5CE00DF10C0A31
:1009700029464FF4007250460CF04AFB02950AF0EB
:100980009FFBA84606460F4683A851464FF40072C7
:1009900002AB05F04EFC08B9029B33BB83A805F0FF
:1009A00020FEB9F1000F19D00AF08AFB4FF47A72D9
:1009B00000230BF0F1FD002305464FF47A72304618
:1009C00039460BF0E9FD281A14BF034601232046DF
:1009D0001B494246B8FBF3F308F0ACFC204619492A
:1009E0004FF0FF3208F070FC1DE09844B9F1000FA1
:1009F000CAD14D46029B9D42236808D21AF80510C1
:100A00005B6820464FF0FF3298470135F2E71B68DC
:100A100020460DF107014FF0FF3298479DF807304F
:100A2000782BB1D1BAE701200DF5866DBDE8F087CE
:100A30003A35020062460200433502008635020064
:100A40009A350200283B02002DE9F0470023BEB092
:100A50000C46554905460C9307F0C9FB20B92846BA
:100A600007F0C7FB064600E0504E15A8314605F0DA
:100A700070FE054620462DB14D4932462B4608F002
:100A800059FC8CE04B49324608F054FCA8461EAF96
:100A9000802315A80DA91397149305F09EFE002836
:100AA00065D19DF83D30002B61D09DF83C10DDF8FC
:100AB00034C011F0100F09BF0C9B442263440C9307
:100AC0000ABF2D22013508F1010811F0010F14BFF2
:100AD00052232D2311F0020F14BF4FF0480A4FF09C
:100AE0002D0A11F0040F14BF4FF053094FF02D09D8
:100AF00011F0200FBDF8381014BF4FF0410E4FF029
:100B00002D0ECDF808E04FEA612EBDF83A000EF246
:100B1000BC7ECDF80CE0C1F3431E01F01F0105912E
:100B2000C1120691C0F345100DF13D01CDF810E062
:100B3000CDF820C007900991CDF800A0CDF8049021
:100B400020461D4908F0F6FB20461C494FF0FF32B5
:100B500008F0A6FB394620464FF0FF3208F0A0FB14
:100B6000204611494FF0FF3208F0AEFB8FE70095A9
:100B70003EAD55F8C83D12494246204608F0DAFB22
:100B8000304629460BAA05F057FE40B90B9B20467C
:100B90009A780C9B0B495A43520808F0CBFB012072
:100BA0003EB0BDE8F08700BF283B0200B53502002B
:100BB000B8350200DC350200F735020024360200A9
:100BC000283602005236020070B50D46064607F080
:100BD00010FB0446304607F00CFB05F0EFFE064A1A
:100BE000064B0749002818BF13462846224608F03E
:100BF000A1FB012070BD00BF1238020008380200BE
:100C00006636020070B50D46064607F0F2FA044655
:100C1000304607F0EEFA05F074FE064A064B074927
:100C2000002818BF13462846224608F083FB0120FF
:100C300070BD00BF12380200083802008236020080
:100C40007FB503AB002400930E4602220F4902AB8E
:100C50000294039407F051F9022814D1029D039CD9
:100C60002846214605F054FF094B0A492A46002828
:100C70000CBF08461846084900902346304608F045
:100C800059FB012000E0204604B070BD624602001E
:100C900012380200083802009436020030B5ADF573
:100CA0000D7D0C46054607F0A4FA0A22014603A86A
:100CB00005F026FA40B1284607F09BFA1F49024684
:100CC000204608F037FB35E08DF8070002901C49FC
:100CD00020467E2242F2107308F02CFB2046194970
:100CE00008F028FB236820461B680DF1070142F23B
:100CF0001072984718B19DF807307E2B03D103A8D6
:100D000005F06FFC16E003A80DF10701012202AB0C
:100D100005F04DFB10B9029B012B02D020460A4979
:100D2000DEE7236820465B689DF807104FF0FF322E
:100D30009847D7E701200DF50D7D30BDAC36020098
:100D4000D33602000B3702002B3702002DE9F047A3
:100D5000ADF5407D002304AC236003930D46009461
:100D60004249022203AB07F0C8F8022806D0284601
:100D70003F494FF0FF3208F0A7FA71E017A8216849
:100D800005F0E7FC18B128463A49226807E017A8A1
:100D9000039905F0DEFC28B128463749039A08F08C
:100DA000C9FA5DE040A94FF4807205A807F066F823
:100DB0000AA880A94FF4807207F060F820AB159361
:100DC00017A880230FA9169305F007FD002841D12D
:100DD0009DF84530002B3DD09DF8443003F01003C2
:100DE00003F0FF06002BE9D1039A0DF1450305A896
:100DF000224907F048FA22680DF145031F490AA865
:100E000007F041FA05A807F0F4F980460AA807F0B0
:100E1000F0F9074605A8DDF83C9007F0EAF98246AC
:100E20000AA807F0E6F932460146334600965046D6
:100E300003F046F9124A134BCDF8009000280CBF7E
:100E40001846104610490190424628463B4608F095
:100E500071FAB3E70AA807F027F805A807F024F805
:100E600001200DF5407DBDE8F08700BF624602001D
:100E70005237020097370200BC370200DC3702000D
:100E80001238020008380200E2370200F8B50D46B9
:100E90002349064607F0ABF90446074628B1FFF799
:100EA00011FB002100F235200AE030461D4907F011
:100EB0009EF9044650B1FFF7E1FA394600F23520B9
:100EC0000A4605F0B5FE1849184B1EE03046184991
:100ED00007F08DF9044648B1FFF7F4FA012200F259
:100EE000352105F0CFF81349134B0EE03046134976
:100EF00007F07DF9044680B1FFF7C0FA012200F245
:100F0000352105F0BFF80E490E4B002808BF1946E1
:100F10004FF0FF32284608F0D7F92046F8BD00BF51
:100F200069380200733802000B38020001380200F1
:100F30008038020028380200183802008938020080
:100F40004D3802003F38020008B508464FF0FF3226
:100F5000084908F0B9F906F07DFB4FF4FA6009F092
:100F600043FB4FF08043AA221A7200221A7001201C
:100F700008BD00BF9538020010B501200C4606F0F0
:100F800071FF38B100210A460B4608F0A7FE204643
:100F9000044901E0204604494FF0FF3208F094F97B
:100FA000012010BDA6380200BC38020038B5064C3E
:100FB000236833B91C20FFF75FF9054607F014FEDC
:100FC0002560206838BD00BFE8C107202DE9F04F3B
:100FD0000D46C7B05549814607F030F8544982465E
:100FE000484607F02BF853498346484607F026F851
:100FF00000270DF1100805AE044602970397C8F8C4
:1010000000703760BAF1000F45D0009648464A4953
:1010100002AA03AB06F063FF012807DC2846474914
:101020004FF0FF3208F050F938467CE00DF1180817
:101030004FF480744046394622460BF0E9FF33688E
:1010400013B90123336003E0B3F5807F88BF3460B8
:10105000FFF7ACFF33689DF808109DF80C20009353
:10106000434608F02CFA364A364B3749002808BF69
:1010700013462846029A08F05DF9002433689C4222
:101080004ED2039A18F80430224428462F4908F01B
:1010900051F90134F2E7BBF1000F2CD0CDF80080FC
:1010A00048462B4902AA03AB06F019FF032807D0D4
:1010B000284628494FF0FF3208F006F9504632E042
:1010C000FFF774FF9DF808109DF80C2098F8003089
:1010D00008F00AFA48B1039B284600931E49D8F845
:1010E0000020029B08F026F91AE028461B49029AC4
:1010F00008F020F914E0A8B102230293029BFE2B12
:1011000010DCFFF753FF9DF8081008F0F8F920B144
:1011100028461349029A08F00DF9029B0233ECE7C6
:10112000012000E0204647B0BDE8F08F854702006F
:10113000F5380200FB3802000439020013390200BE
:10114000123802000838020034390200583902000F
:1011500068390200783902009F390200B93902006B
:10116000D63902002DE9F04F5F4C91B023680E464E
:1011700033B92C20FFF780F8054607F0C9FF25603A
:101180002768FFF77BF90DF1400B00244BF80C4D5D
:1011900000F2352059460CAA05F04EFB48B90C9ACE
:1011A0000D9C95699378023D5C435D4364086D082E
:1011B00000E025464D4B1A6898467AB90C20FFF797
:1011C0005BF88146FFF7F2FE902389F80430002394
:1011D000C9F80000C9F80830C8F80090D8F8000035
:1011E00002F05CFF80460BF091F982460AF0EAFFBC
:1011F000014640460AF030FF3D490BF037F80BF04E
:1012000085F98146584609F0CDFD03F095FE50B3AF
:1012100007F020FF03F07AFE0023024698469B4623
:1012200093420DD018460B920A9303F0D3FE0A9B0B
:10123000584588BF98460B9A88BF83460133EFE72D
:1012400007F020FF642303FB0BF32A4A3046B3FB6D
:10125000F2F3C3F164038DE80809274922462B46BF
:1012600008F068F805E03046244922462B4608F08D
:1012700061F8234C23681BB90120FEF7FDFF2060B5
:10128000206802F0CFFE044607F06AFE9DF8393070
:10129000019003F00F0302939DF83830009403F09F
:1012A0001F030393BDF83A303046C3F30B03049396
:1012B0009DF83630134903F01F0305939DF8353030
:1012C000524603F03F0306939DF8343003F03F038A
:1012D0000793BB8C0893FB8C09934B4608F02AF8C4
:1012E000012011B0BDE8F08FECC10720E0C107205C
:1012F00000002041A0860100FC390200303A0200C3
:10130000E4C107203E3A020070B5ADF50A7D0546FE
:101310000C4606F0DBFD0B2803DD204620490C229D
:1013200037E0284606F065FF0122014601A804F0D7
:10133000E7FE064638BB01A805F053F9284606F03B
:1013400058FF18490246049B204607F0F3FF236824
:1013500020469B6898470A2009F046F909F046FCA8
:10136000284606F046FF02460F4B0068516803C34B
:1013700090680E4A186043F80C2C4FF08043AA2264
:101380001A721E7007E0284606F033FF0246204618
:10139000074907F0CFFF01200DF50A7D70BD00BFA2
:1013A000BB3A0200E23A0200484002400DD0ADDEF6
:1013B000293B0200F0B5404CA5B023680646DB0788
:1013C0000D460CD420460AF00BF940B14FF4806072
:1013D0000BF0CAFD394B186020460AF00DF9304673
:1013E000374906F02BFE0746044610B30021802241
:1013F00004A80BF00DFE00230293039303AB0093AC
:10140000304904AA02AB304606F069FD2B4A029B24
:10141000116804A8039A13B902F0F2FE01E002F089
:1014200012FF0346284A29492846002B18BF1146B7
:1014300037E03046264906F001FE0746002838D03E
:10144000304604AB234903AA039404948DF8084062
:1014500006F045FD039E049B3344B3F5806F0DDD1C
:1014600028461D494FF4806221E0144B9DF8082066
:101470001B689A559DF8083001361C44039B049A5A
:10148000F31A934210DAB6F5806F0DDA2B6828460E
:101490001B6802A94FF4FA6298470028E5D1284654
:1014A0000E4907F047FF04E0284622460C4907F0A2
:1014B00041FF384625B0F0BDFCC10720F8C1072028
:1014C000543B02005B3B0200423B02003E3B0200F9
:1014D0006B3B0200723B02007C3B0200A03B02001F
:1014E000B03B020030B50C46054687B00A4907F00C
:1014F00021FFA17A62880091E17A23880191E18835
:101500002846029121890391A1880491034907F09B
:1015100011FF07B030BD00BFC13B0200F73B020026
:101520001FB501A80C4602F0AFF801F099FD01A922
:1015300002462046FFF7D6FF012004B010BD000090
:101540002DE9F0418CB003AB002400930E46154604
:101550003A49022202AB0294039406F0CEFCA04268
:1015600039DD02980BF0F5FA5FFA80F8039818B1AC
:101570000DF013FAC4B200E0044604A8002102F002
:101580000BFC30B130462E494FF0FF3207F09CFE85
:10159000F3E7003518BF0125022300934046294692
:1015A000039A234601F092FE074638B93046254992
:1015B0004FF0FF3207F088FE01273BE0002D39D0C5
:1015C00004A84FF47A7102F0F1FB70B39DF810306B
:1015D00043452AD101E027462CE09DF817300C2B1B
:1015E00004D1304606A94246FFF77CFF3046B4B925
:1015F000154907F09FFE9DF817309C420ADA3368C0
:1016000004AA2244117A5B6830464FF0FF329847B3
:101610000134F0E730460D4907F08CFE0AE00C4932
:101620004FF0FF3207F050FE04E030460949029ABD
:1016300007F080FE38460CB0BDE8F081624602003B
:10164000153C0200373C02005F3C0200524302009E
:10165000733C0200903C020038B50D4606F0CBFD0D
:101660000446C0B201F0F0FC054A064B06490028CA
:1016700008BF13462846224607F05CFE012038BD0D
:10168000B63C020008380200BD3C020037B50C46EB
:1016900001F05EFE05461649204607F04BFE15494F
:1016A00020462A4607F046FE2046114907F042FE32
:1016B000D5B11149204607F03DFE20460C4907F000
:1016C00039FE0025E8B201F02DFE013540B18178E8
:1016D0000278437800912046084907F02BFEF1E795
:1016E0002046034907F026FE012003B030BD00BFAD
:1016F000D43C0200EF3C0200093D0200243D020000
:1017000030B58BB00AAA4FF47A730C4642F8243DE8
:10171000174906F0E4FB002502A8019902F03CFB02
:10172000D8B1204613499DF8082007F003FE002594
:101730009DF80F309D420ADA236802AA2A44117AE2
:101740005B6820464FF0FF3298470135F0E72046AE
:10175000094907F0EFFD0125DEE72DB920460749CD
:101760004FF0FF3207F0B0FD01200BB030BD00BFDD
:10177000793B02003F3D0200273B0200563D02003C
:101780002DE9F3473C4C074626688946002E62D176
:101790002420FEF771FD0423054680E8480086609A
:1017A000C660202130460CF087FEAE68E8604FEA44
:1017B0008608072E0ED81020FEF75EFD8246002117
:1017C00010220BF025FCEB68013643F808A008F165
:1017D0000408EEE7002608234FF001086B6085F847
:1017E000208028462549264A264B0096256005F08C
:1017F000ADFC20682449254A254B009605F0A6FC3F
:1018000020682449244A254B009605F09FFC206857
:101810002349244A244B009605F098FC206823496C
:10182000234A244B009605F091FC20682249234A64
:10183000234BCDF8008005F089FC20681E49214A21
:10184000214B009605F082FC009620681F49204A33
:10185000204B05F07BFC38461F4906F0C8FC18B148
:1018600038461E4906F07DFD39464A46206802B0DA
:10187000BDE8F04705F04CBD04C207202D1B010058
:10188000673D02006E3D020001190100A83D020003
:10189000B13D020001170100053E0200083E0200B2
:1018A00059160100324402002B3E02008D16010041
:1018B000713E0200553E020041150100BA3E020091
:1018C000783E0200B93E0200BE3E02002115010032
:1018D000FE3E0200E33E0200283B0200043F0200FD
:1018E00038B5064C236833B95820FEF7C5FC0546C9
:1018F00007F052FA2560206838BD00BF00C20720FB
:101900002DE9F04F0446ADF2DC5D80220DF1B40903
:1019100088460DA800210BF07BFB00218022484661
:101920000BF076FB06AE0023336020460096754927
:101930000DAA4B4606F0D3FA032801D00020DDE0C3
:10194000EDA80DA9012204F0DBFB05460028F5D126
:10195000FFF7C6FF33684DA980F853308022044654
:1019600008A88DF81750079506F088FACDF8009072
:10197000404665490DAA336807F0DCFC2F46EDA808
:101980006DA94FF4007207AB04F053FC38B1EDA819
:1019900004F027FE08A806F087FA0120AEE0079BB6
:1019A000002BF4D06E1C5949079A204607F0C2FC60
:1019B000236820469B6898476DAB9B46751E4FF089
:1019C000000A0799C3EB0B028A4222680FD20393E5
:1019D000CDF808B0D2F804C020464FF0FF321BF813
:1019E000011BE047029B1A78039B9244E9E7936846
:1019F0002046984708A806F0FCFB834608A806F096
:101A000068FA4FF47A7302465946204607F06AFC9A
:101A10000121202208A806F098FB08A806F0EBFB9D
:101A2000504520D008A806F0E6FB39490346524647
:101A3000404607F07FFC2046364907F07BFC2368D0
:101A400020469B689847236820461B680DF11701C4
:101A50004FF47A7298470028F5D1022E06F101035F
:101A600095D81E469FE7079B2B494A460093204680
:101A70003B4607F05FFC236820469B68984708A810
:101A800006F0B7FB824608A806F023FA5146024644
:101A90004FF47A73204607F025FC08A81F4906F08A
:101AA000A4FAD0B908A806F0A4FB1D490246404696
:101AB00007F040FC2046174907F03CFC236820460D
:101AC0009B689847236820461B680DF117014FF467
:101AD0007A7298470028F5D1BFE708A8114906F0A7
:101AE00040FC079B40461F440F493A46F09B07F0D5
:101AF00021FC002D3FF443AF013D40E70DF2DC5DDA
:101B0000BDE8F08F093F0200183F02002F3F02009E
:101B1000413F0200273B0200683F02007E3F020077
:101B2000813F0200283B0200B93F02002DE9F0414D
:101B3000074686B006AA002442F80C4D0E463C49E2
:101B400006F0CDF938460121202206F0FEFA039B6B
:101B5000002B63D0384606F0B9F900285ED0FFF7B5
:101B6000BFFE05468DF80B402B6828461B680DF11B
:101B70000B010522984704460028F5D1039B3846FF
:101B800085F8533006F035FB274601464FF0FF320B
:101B9000284607F099FB2B6828469B689847254BF9
:101BA0000594186804902B6828461B680DF10B01FA
:101BB0004FF47A72984778B10DF11501032205A808
:101BC0000BF00BFA9DF80B8005A804A904228DF8F0
:101BD00017800BF0E7F938B91822B7FBF2F302FBD4
:101BE000137262B101330AE0336830465B684146E4
:101BF0000122013798470028D5D10134D3E7304678
:101C00000D493A4607F096FB74B1612300933046C4
:101C10000A4922460A4B07F08DFB05E03046094988
:101C20004FF0FF3207F050FB012006B0BDE8F08115
:101C3000793B0200BD3B0200C53F0200EC3F0200C1
:101C4000A5400200E1400200014B01221A707047DA
:101C500008C2072070470000F0B587B009F030FADD
:101C60003A4B4FF400720093394B064601930F46EE
:101C700000206421134606F0C3FC044648B9354BE6
:101C8000032000933449354A392305F093FD20465B
:101C900059E00221002006F02BFE4FF6FF71ADF84F
:101CA0001400002006F024FE0024022122462346D0
:101CB000ADF81600009401940294039405A806F070
:101CC00031FE204606F008FE254905230B718B786E
:101CD000204664F303038B70CB780A2264F3C713A6
:101CE0004C718C71CC71CB700C724C728C72CC724A
:101CF0000C734C738C73CC7306F09AFD38B9194B86
:101D0000032000931449154A5D2305F053FD304626
:101D100039464FF47A7200230AF03EFC10F57A74CB
:101D200041F1000509F0CCF94FF47A7200230AF072
:101D300033FCA94208BFA042F4D300200A490A227A
:101D400006F024FD012007B0F0BD00BF491C0100D2
:101D5000551C010059410200274102000D410200BB
:101D600009C207209041020019C2072001480CF067
:101D700039BB00BFB541020038B504460D4609F035
:101D800017FB074BB0FBF3F00223B0FBF3F29542D5
:101D900001D3236138BDB3F5807FFAD00233F4E775
:101DA00040420F007FB500F235260C460122314635
:101DB00004F068F9054650BB04A941F8040D02AAD5
:101DC000304604F039FD00BB029A039B907892697B
:101DD00003FB00F1023A42435208B2F5004F1048AB
:101DE00034BF01254FF480654FEA51010D4BB1FB23
:101DF000F5F128BF0346B2FBF5F28DE80A000A4868
:101E000021460CF079FA012008E0084B00E0084B6D
:101E1000084821462A460CF06FFA002004B070BD35
:101E2000F3410200F0410200FD410200F6410200D0
:101E3000FA4102002B42020038B5074C23684BB927
:101E40000820FEF719FA0546FFF7B0F8402328608E
:101E50002B712560206838BD34C2072038B5054C89
:101E6000256825B90120FEF707FA05702060206873
:101E700038BD00BF30C2072038B5084C23685BB9B5
:101E80000C20FEF7F9F90546FFF790F890232B7127
:101E900000232860AB602560206838BDE0C10720C2
:101EA00010B5044C23681BB90120FEF7E5F920604A
:101EB000206810BDE4C1072010B5044C23681BB98D
:101EC0000120FEF7D9F92060206810BD2CC2072040
:101ED000AD49AE4A4023F0B58B614FF0007393617A
:101EE0004FF480338B61AA4BADF5057D186807254B
:101EF00020F0F00018601868022440F050001860CC
:101F0000186820F440501860086840F040000860ED
:101F1000186820F47C201860186840F428201860A5
:101F2000186820F470001860186840F420001860E9
:101F3000186820F040401860186840F000401860B1
:101F4000586820F03C005860586840F028005860FD
:101F5000586820F003005860086840F4803008603A
:101F6000586820F440505860086820F480000860E9
:101F7000D96821F44031D960116841F08071116055
:101F8000596821F440215960596841F48021596011
:101F90009868804901409960116841F4897141F065
:101FA00001011160996821F470119960996821F01C
:101FB00070419960116821F446411160D96821F09F
:101FC0003001D960D96841F03001D960D96821F475
:101FD0007011D960136843F000731360136823F025
:101FE0008063136006F016FA0A20012109F000F858
:101FF0000A20012109F014F86748012105604460B6
:10200000FFF7BAFE06F0B6FF1520012108F0F0FF39
:102010001520012109F004F86048012105604460A1
:10202000FFF7AAFEFEF7C2FF642106F0A7FD10B974
:102030005B480CF0D7F909F019F801F087FE10B9E8
:1020400058480CF0CFF94FF4FA6006F0A1F9FFF709
:102050008DFE09F0ADF90AF0B1F853490AF0BAF96A
:1020600009F032FF02460B4650480CF045F908F0E3
:1020700093FE052804AC14D1002363604C4B1B680D
:102080002360FFF773FE4B4B4B48D96C1A6D5B6DA9
:1020900000940CF031F9FFF769FE41F2883006F048
:1020A00077F9FEF7EBF94549FFF77CFE054668BB7B
:1020B00043480CF021F902F0B7FFFEF7DFF929469B
:1020C0002A4600F2352004F0B3FD3E4B3E4A00287C
:1020D0000CBF104618460CF085F9FEF7CFF93749CA
:1020E000FFF760FE90B939480CF07CF902F01EFF52
:1020F000014637480CF000F902F008FF054602F0EF
:1021000015FF05FB00F133480CF0F6F8324E334F63
:10211000336813F0010516D1304609F061FA90B129
:102120004FF40E70FEF7A8F8012380F83432312303
:1021300080F835323A2380F8363280F837523860EA
:10214000304609F059FA26493868264DFFF72AFE2D
:1021500011481821FFF710FEFFF708FE2B684BB956
:102160000820FEF789F80646FEF720FF3823306086
:1021700033712E60286801F068FE0546B0BB1A482E
:102180000CF030F933E000BF00C0092020C0092066
:1021900000C00240F0FCFCFF00000340008008404B
:1021A0006F420200A042020000247449C5420200AE
:1021B0004440024000400240DD420200554302001C
:1021C0005D430200634202005E4202009A43020045
:1021D000B9430200C8430200F0C10720D8C107205C
:1021E000373802003CC20720E34302000125FFF715
:1021F00043FE01F029FF064618B972480CF0F2F8C8
:102200003546FFF719FE01F0A1FE064618B96E48E3
:102210000CF0E8F835466D4E33681BB90120FEF727
:102220002BF83060306801F05FFEFFF739FE01F0F7
:10223000F7FEFFF713FE01F0C3FEFFF73DFE01F0CE
:10224000F4FEFFF70BFE002101F0BCFE8DB9FFF795
:102250008DFDFFF7F1FD2D2101F060FEFFF7ECFD94
:102260002D2101F067FEFFF7F9FDFF2101F0AAFE25
:102270000CE0FFF7E1FD0546FFF7FEFD01F00EFF64
:102280000AF06AF9C1B2284601F07CFE0021102252
:1022900020460AF0BDFE4E4821460F22002301F0E1
:1022A0008CFF80B920460AF054FCC5B2284600F0E5
:1022B000CBFE484A484B2946002808BF13464748EA
:1022C000434A0CF019F8FFF7EBFD01F0ABFE0546B1
:1022D00000200DF009FB28440CF08CF84FF400723C
:1022E000002120460AF094FE204608F0FDFE21461B
:1022F0003B480CF001F8FFF739FD80220021204611
:102300000AF086FE204602F0EDFD2278FF2A04D076
:10231000214634480BF0F0FF29E0FFF7CDFD01F036
:1023200087FE09281DD130480CF05CF821462F4863
:102330000CF094F921462E480BF0DEFF2D480CF0EE
:1023400051F800232C4803A903930CF087F99DF85A
:102350000C30592B03D1204602F0A2FD07E027489C
:1023600003E027480CF03EF826480CF03BF84FF20B
:1023700008031C684FF20C031D684FF210031E681F
:102380004FF2040319684FF470431A68A40AAD0AA7
:102390001D480BF0B1FF224629461C480BF0ACFF4C
:1023A00031461B480BF0A8FFFFF7E0FC012005F0C9
:1023B00087F918480CF016F8FFF7D8FC0DF5057DE5
:1023C000F0BD00BFFE4302001844020038C20720DF
:1023D00031440200B63C0200694202003744020068
:1023E000AD5302006B44020087440200A94402007E
:1023F000AE440200C94402000C4502001045020030
:10240000284502005645020088450200B4450200F6
:10241000E1450200FE45020001207047012070479F
:102420000120704710B5044C23681BB90120FDF74B
:1024300023FF2060206810BD38C2072001207047AC
:10244000F8B504460E46C06889000CF035F8A5685A
:10245000E060AF00B5420BD20C20FDF70DFF00236A
:10246000036043600372E3680135D8510437F1E734
:102470006660F8BD38B504460F4B00250360636DF8
:10248000E06D9D4205D250F82500FDF7F7FE0135BD
:10249000F5E708B1FDF7F4FE0025A36B206C9D4223
:1024A00005D250F82500FDF7E9FE0135F5E708B142
:1024B000FDF7E6FE204638BD4046020010B5044652
:1024C000FFF7D8FF2046FDF7D9FE204610BD0000DB
:1024D000F7B5044600250B464FF480520095254978
:1024E00005F0A6FC244B042623606663A563E56320
:1024F000256404F134000221FFF7A2FF266565651B
:10250000A565E565284660210BF0D6FFA56DE06561
:10251000AE00172D0CD81020FDF7AEFE07460021A7
:1025200010220AF075FDE36D01359F510436F0E786
:1025300018236365012384F87030104E0023A4F83B
:102540007430A4F87630A367002200230027C4E982
:102550002023C4E9226708F0B3FD4FF47A72002308
:102560000AF01AF880197941C4E92001204603B025
:10257000F0BD00BF5846020040460200C0D4010032
:102580002DE9F04191E860000F7A14468FB1082AD6
:1025900023D1304605F09AFC00281CDD284614495A
:1025A0004FF0FF3206F07CFE3046012105F08DFD34
:1025B00008E00A2A19D00D2A12D03046214605F02B
:1025C000A5FE97B12B6828462146BDE8F0415B681F
:1025D0004FF0FF3218470724F4E70A2A02D1F1E747
:1025E000BDE8F0810D2AE8D1ECE7BDE8F08100BF3D
:1025F00061460200F8B50446142015460F46FDF763
:102600003BFE8021064605F031FEA36BE26B9A4249
:1026100006D3616B591803D204F13400FFF710FFA1
:10262000E36B226C591C52F82330E1631F605E603B
:102630001D72F8BD2DE9F043CF6B85B006460D46FF
:1026400001AC4FB94FF47A7007F0CEFF20463946FF
:102650000C220AF0DDFC47E00B6C1B6893E80700D6
:1026600084E8070000238DF8033007F087FE8046DA
:102670000027EB6B9F4263D22B6C4FEA870953F81C
:1026800027301868037C33B103680DF103011B6820
:102690000022984708B90137EBE7EB6B9F422BD23A
:1026A0002B6C53F8093093E8070084E807009DF885
:1026B000032028462146FFF763FF08F001FD4FF491
:1026C0007A72002309F068FFD5E922238018594166
:1026D000C5E92001029805F0F9FB0746029805F0CC
:1026E000F8FB013887420ADB94E8070086E8070018
:1026F000304605B0BDE8F08305F14403D3E7D5E9E2
:102700002223134324D008F0DBFC4FF47A72002319
:1027100009F042FFD5E92023994208BF904217D320
:1027200008F0CEFC4FF47A72002309F035FFD5E9AA
:102730002223801859410023C5E920010193D3E7E2
:1027400007F01CFE4045C5D1022007F04DFFC1E750
:102750009DF803300A2B88D1C6E70000F0B5064685
:1027600085B020480BF0C8FD01A83146FFF762FF95
:10277000019C1CB91C480BF035FE30E0029F384626
:1027800005F0A4FB00282ADD08F09AFC0546F8B104
:10279000B6F8743006F150000133A6F874303946AB
:1027A000224604F0B5FD114B0026186800902368FE
:1027B0001DF806105B6820464FF0FF32013698473F
:1027C000042EF4D108F07CFC411B09480BF094FD69
:1027D000384605F080FB236820469B689847012017
:1027E00005B0F0BD64460200283B02002D46020001
:1027F0006A46020038B5064C236833B92C20FDF731
:102800003BFD054606F084FC2560206838BD00BF0E
:10281000ECC1072010B50446FFF7ECFF0368214622
:10282000BDE810405B684FF0FF32184713B5002336
:1028300002AC04F8013DFFF7DDFF036821461B6889
:102840004FF0FF3298479DF8070002B010BD00001E
:102850002DE9F04100F150048AB0002507460095AB
:1028600020465B495B4A5C4B04F070FC00952046B7
:102870005A495B4A5B4B04F069FC009520465A4973
:102880005A4A5B4B04F062FC0095204659495A4A6B
:102890005A4B04F05BFC009520465949594A5A4B63
:1028A00004F054FC009520465849594A594B04F00D
:1028B0004DFC009520465849584A594B04F046FCB7
:1028C000009520465749584A584B04F03FFC009564
:1028D00020465749574A584B04F038FC009520468B
:1028E0005649574A574B04F031FC0095204656494B
:1028F000564A574B04F02AFC009520465549564A43
:10290000564B04F023FC009520465549554A564B3A
:1029100004F01CFC009520465449554A554B04F0E0
:1029200015FC009520465449544A554B04F00EFCC2
:10293000009520465349544A544B04F007FC009537
:1029400020465349534A544B04F000FC009520465E
:102950005249534A534B04F0F9FB00952046524923
:10296000524A534B04F0F2FB009520465149524A1B
:10297000524B04F0EBFBFFF73DFF4FF480734FF435
:1029800016412022054606F0A3FB804601262E7440
:102990004B48FDF7D7FC4B48FDF7CEFC384629469F
:1029A0003246FFF727FE03A9082205A805F066FABC
:1029B00005A8454905F0D5FC05A92A46204604F09E
:1029C000A7FC05A805F070FA40460AB0BDE8F08102
:1029D0000D050100CA46020080460200F90501000B
:1029E000B7460200BF46020065110100DD46020045
:1029F000CF4602001D06010025470200E446020002
:102A0000FD0801002A4702002E4702007D08010050
:102A1000CD4702008A4702004D0D0100CC4702005D
:102A2000D0470200490A01001B4802001E4802006C
:102A3000C90B01004C48020052480200410C010041
:102A4000774802007A4802009D0C0100B15F020045
:102A5000A7480200050C0100CC480200CF48020044
:102A6000CD0F0100F2480200F64802008D0E010071
:102A7000A8490200B0490200490F0100F3490200D1
:102A8000FA490200E10601000D4A0200114A020063
:102A9000790F01000E4B0200144B02008117010058
:102AA000BC4202003C4B0200B51301005A4C02002C
:102AB000664B0200091301007A380200234C020021
:102AC0002D28010015280100043F020070477047BF
:102AD00008B501F075F9012008BD10B50446FDF7F1
:102AE000CDFB204610BD10B50446FDF7C7FB2046C0
:102AF00010BD000073B503220120002107F0BDF8CE
:102B0000204A106020B100210A460B4607F0E6F883
:102B1000FFF7A2F81C4D28709020FDF7ADFB04468E
:102B20000321FFF7D5FC204605F052F93420FDF7CC
:102B3000A3FB0646002415494FF4007204230094B9
:102B400005F076F9124B3046336005F041F9342038
:102B5000FDF792FB06460F494FF47A720423009466
:102B600005F066F90C4B3046336005F031F92B78EF
:102B70001BB12046214605F039F94FF0FF3002B075
:102B800070BD00BF44C2072058C20720BC420200EB
:102B9000C04C0200F84C0200E04C020038B5064C74
:102BA000236833B92C20FDF767FB054606F038FB98
:102BB0002560206838BD00BF40C20720184B0021A7
:102BC00070B5186864220B4607F05CF928B3FFF76C
:102BD000E5FF06F047FB134B06461D469A78082191
:102BE00061F303029A70DA78002464F3C7121C714F
:102BF0005C719C71DC71DA70325D2B19303AD2B2A3
:102C000021461A72084801340BF076FB082CF3D1E8
:102C1000002004490A2205F00BFE012070BD00BF10
:102C200044C2072048C20720054D020008B5FFF73F
:102C3000B5FF402213464FF4165106F0D1FA084B67
:102C4000052119719978002262F303019970D978EE
:102C50005A7162F3C711D9709A71DA71012008BDF7
:102C600048C20720242310B503FB010188420BD082
:102C700043783BB1038CD4184FF6FF73A34228BFAF
:102C8000234603842430F1E710BD000037B500234C
:102C900002A840F8043D0C4B04215B6898470B4B9D
:102CA000019A1C680546141B1A6009482246042133
:102CB000FFF7D8FF074802212246FFF7D3FF281C61
:102CC00018BF012003B030BD5CC2072028C3072015
:102CD00070C207204BC3072008B50B4B1978037847
:102CE0008B420A4B0BBF1A889A880132013214BFFB
:102CF0009A801A80064B8170DB682021984700304B
:102D000018BF012008BD00BF05C0072018C3072059
:102D10005CC207200A4B02781B789A42094B0BBF12
:102D2000DA881A89013201320CBFDA801A810379FC
:102D3000C3F3C202073262F3C5030371FFF7CCBFCE
:102D400005C0072018C3072010B5002306499A00C4
:102D500011F82340844201D1881810BD0133042B9F
:102D6000F4D1002010BD00BF39C3072070B1C37873
:102D70000133DBB2FF2BC37008D10023044A1A448D
:102D8000D17804334908102BD170F7D1704700BFB8
:102D900039C30720242202FB01010346024630B555
:102DA0008A4206D01446243212F8235C002DF7D153
:102DB0000FE0044600258B420BD01A79C2F3C20003
:102DC0001A8C42EA004295423CBF1C461546243309
:102DD000F1E7204630BD000038B50546C90001F1D5
:102DE0000804FFF753FF1C4B1A782B789A4204D142
:102DF00002211A48FFF7CEFF0CE019480421FFF723
:102E0000C9FFEB7833B990F82330042443F08003F2
:102E100080F82330002380F8203080F821300246EB
:102E20002B4690F8231080F8224021F07F01C4F354
:102E300006240C4380F8234005F1200153F8044B8D
:102E40008B4242F8044BF9D1064A0379127862F3B7
:102E5000C503037138BD00BF05C007204BC3072061
:102E600070C2072004C0072010B5FFF76DFF0446AD
:102E7000F8B9FFF769FF0446D8B90F4BDA79D9786A
:102E80008A4228BF0A46D97A34BF1C1D1C4691428B
:102E90002CBF1146094CDA7B094B8A4238BF1C46CD
:102EA0000422204600210AF0B3F8064AD37A0133FF
:102EB000D372204610BD00BF39C3072041C307208D
:102EC00045C3072018C307202DE9F04105460C46ED
:102ED0004FF0240808FB02188E1D444500F09E8028
:102EE00094F823301A0625D5BDB12A7861788A4234
:102EF00005D16F7816F8060C874200F09180E878CB
:102F000058B16878884208D116F8061C914204D15D
:102F1000A979A279914200F0838094F82220218C33
:102F200003F07F0342EA0323994274DB2046FFF754
:102F3000D3FE75E06278002A6DD06DB3297901F077
:102F4000C001C02917D116F8060C6978884202D151
:102F50002878904264D0E778A87887420CD19142D3
:102F60000AD116F8060C2978884205D1A079A979EA
:102F7000884201D154E079B1A878E17888420BD138
:102F80006978914208D116F8060C2978884203D155
:102F9000A079A979884249D094F82210208C03F0B6
:102FA0007F0341EA0323984235DB002384F8203075
:102FB00084F821302379C3F3C201CFB21FB1204678
:102FC000FFF7A8FE27E003F0C003C02B19D01C4B6D
:102FD00016F8060C1B78984213D1E378934210D070
:102FE0007BB16379032262F307136371E1702046BA
:102FF000FFF790FE134A2379127862F3C503237119
:1030000000E001276078FFF79FFE18B1002104223D
:1030100009F0FEFF27B9243424365EE7BDE8F081CD
:1030200020460021242209F0F3FFF4E7227900234F
:1030300063F3C50284F8203084F821302271EAE776
:1030400005C0072004C00720431EDBB2FD2B9DBF37
:10305000024B187001200020704700BF05C00720F8
:10306000014B1878704700BF05C0072007289CBF98
:10307000014B1870704700BF04C007202DE9F743CB
:10308000044691461E469DF828500F46002963D0FD
:10309000354B93F80080414560D00F2E5ED8002854
:1030A0005ED02022002109F0B3FFFF2F237914BF47
:1030B00009F00302002262F38713032262F3020382
:1030C0002A4A6770127884F8008062F3C503284AA0
:1030D0002371137884F802800133DBB21370A3717B
:1030E0000BAB019315B94FF0010818E0019AE07994
:1030F0001346526853F8081B00EB02085FFA88F881
:10310000013DB8F1180F0193EDB206D80830204404
:1031100009F058FF84F80780E4E74FF00008DFF873
:1031200054900123384689F80030FFF70DFE05461C
:10313000FFF71CFE002389F80030637925B966F398
:1031400007136371E57005E0AA7862F307136371F2
:103150006B78E370404603E0084601E00020FFE79B
:1031600003B0BDE8F08300BF05C0072004C00720FE
:1031700049C3072024C30720124B012270B51A70DF
:1031800004461E4608B9002518E0FFF7A5FD0546D0
:103190000028F8D0237903F0C003402B06D0C02BC1
:1031A0000AD1E37853B162789A4207D06179204618
:1031B0000909FFF711FE01E0802BF7D000233370DF
:1031C000284670BD24C3072082B0F0B51746421EC2
:1031D000D2B28DB0FD2A04460D46139301D90020CA
:1031E0005AE0002BFBD0159B002BF8D0179B002B2F
:1031F000F5D0169B002BF2D0149B002BEFD00021B2
:103200004822284809F004FF00219022264809F0AE
:10321000FFFE00211022254809F0FAFE00210C22B1
:10322000234809F0F5FE00210C22224809F0F0FEA7
:10323000214E224B1C703446214B1D7013AD0FCD17
:103240000FC42B68002118221E48236009F0E0FEFD
:1032500039461C4817220BF0E4FB0020B3680146F6
:1032600098470028BBD09DF8603013B9FFF70EFDDA
:1032700012E0154A0123019206220292009304A84B
:10328000FF210022FFF7FAFE0028A8D004A8FFF7CC
:1032900073FF0028A3D0E9E70DB0BDE8F04002B00D
:1032A000704700BF4BC3072070C2072039C30720F7
:1032B0002DC3072018C307205CC2072005C00720C4
:1032C0002CC3072000C30720154D020030B5182B72
:1032D0008DB005460C4615D8B2FA82F1181C18BFFD
:1032E0000120490981420DD08DE80D00294604A82E
:1032F00022469DF84030FFF7C1FE18B104A8FFF741
:103300003BFF00E000200DB030BD13B5044610783F
:1033100052790B461209009203212246FFF7D6FF8D
:1033200002B010BD00231A4630B5084C990014F8BD
:1033300023502DB1904201D1601830BD0132D2B27C
:103340000133042BF1D1002030BD00BF39C3072069
:1033500000231846044A12F823200AB10130C0B2F3
:103360000133042BF6D1704739C307202DE9F04112
:1033700088B068460021202209F04AFEA14B1B7844
:1033800003F0FF04002B40F03A819F4E68463369FA
:1033900020219847002800F083809C4D6B880133E2
:1033A0006B80FFF7D5FF9DF80420A87202F0070399
:1033B000032B04D0964A137843F0010309E0954BA0
:1033C0001D789DF80230AB4205D1914A137843F045
:1033D00002031370E3E0C2F3C2029DF800E09DF81F
:1033E0000600D7B28C4904EB440313F801C0F4453E
:1033F0000AD10B445978814206D199780124CF1B18
:1034000018BF01279A7018E00134042CEAD18349CF
:103410000B689A70804A587002F10900834283F861
:1034200000E040F0C9800A609DF800009DF802307D
:10343000834240F0C480002427469DF80200FFF735
:1034400013FD9DF8022002709DF8022042700022B8
:103450008270FFF78BFC04B117B39DF80030AB42CC
:1034600000F09C809DF80170FF2F1BD133686846E7
:103470002021984720B9664A137843F0040313705B
:103480009DF8053003F00F02511C61F303038DF822
:103490000530C3F303139A4202DA6846FFF71CFCB7
:1034A00000247CE0BD422BD164B99DF807304BB1BC
:1034B000336868462021984720B9554A137843F06D
:1034C000040313709DF8043003F0C003402B12D1A5
:1034D0009DF8073013B95248182108E04B480C21D9
:1034E0006A46FFF712FF002858D1002001466A46BD
:1034F000FFF70BFF52E09DF80330002B4ED1F4E7AD
:10350000484B1B78002BCBD09DF8054004F00F06EC
:103510004FEA14184645C3DA013666F30304384609
:10352000FFF712FC8DF805409DF80340A5421ED11F
:103530009DF8041001F0C001402906D0A1F18003DC
:103540005A425A41144618B91BE00122002854D0AF
:10355000C029437805D19F4203D0003318BF01230F
:1035600000E00023134303F0010428B90BE0ACB9D9
:1035700010B9684641460FE043788DF803308578EE
:1035800004E0C02939D000258DF803506846FFF7C4
:10359000A3FB1CB168462946FFF71EFC6C46FFF7EB
:1035A00075FB204620490422FFF78EFC20461F4968
:1035B0000222FFF789FC22E003330B6034E78542E7
:1035C0003FF439AFFFF750FC0446FFF7CFFB2378F9
:1035D0003BB19DF80530A27803F00F0393423FF70B
:1035E0002AAF9DF8003023709DF8023063709DF87B
:1035F0000530C3F30303A3701DE70346B2E708B029
:10360000BDE8F08124C307205CC2072018C307204F
:103610004AC3072005C007202DC3072000C007208C
:1036200000C307202CC3072070C207204BC307200C
:1036300000231846094A1A4452780AB10130C0B230
:103640002433902BF6D1064B5A780AB10130C0B220
:1036500093F825300BB10130C0B2704770C207201B
:103660004BC3072008B5FFF76FFB064B28B18278E4
:10367000187802FB0000C00008BD187818235843D2
:1036800008BD00BF04C0072003490B6803604B68F6
:1036900043608B688360704718C3072030B5414C86
:1036A0004FF48035E561404CA060E068C506FCD46D
:1036B0003D488068C0B20BB90C4665E00B46002A55
:1036C0006AD0072A384C0D782FDDA5604D78083A6E
:1036D000A5608D78A560CD78A5600D79A5604D7940
:1036E000A5608D79A56001F10805C979A1602E4911
:1036F0008C696407FBD58C681C708C685C708C6866
:103700009C708968D9702849CC68E406FBD48C6821
:10371000083303F8044C8C6803F8034C8C6803F8F6
:10372000024C896803F8011C1BE0032A1BDDA5601D
:103730004D78043AA5608D78A5600D1DC978A1600B
:103740001949CC68E406FBD48C68043303F8044CB4
:103750008C6803F8034C8C6803F8024C896803F802
:10376000011C2946ABE70131A560013AE568ED0689
:10377000FCD40D4C0133A46803F8014C9FE7DD68CD
:10378000ED06FCD4084B9B68631A934204DA14F8E4
:10379000015B054B9D60F2E7024B4FF480329A616A
:1037A00030BD00BF00C009200080084007B50023DD
:1037B00002A9012201F8013D00F01F001346FFF7A6
:1037C0006DFF9DF8070003B05DF804FB07B502AB81
:1037D00003F8011D00F01F0019460122002340F0EC
:1037E0002000FFF75BFF03B05DF804FB08B517206E
:1037F000FFF7DCFFC0F3001008BD07207021FFF7C2
:10380000E5BF03460A46A02019460023FFF746BF3E
:1038100008B50020FFF7CAFFBDE8084000F0FE0130
:103820000020FFF7D3BF0000024B4FF08072DA6137
:10383000704700BF20C0092008B50020FFF7B6FF81
:1038400040F00101C9B20020FFF7C0FF024B4FF06A
:1038500080729A6108BD00BF20C009200720202186
:10386000FFF7B4BF0021E1200A460B46FFF716BF61
:1038700037B50C460546FFF7F5FF21462846FFF70A
:10388000C0FF0D4B4FF080721C469A610022ADF8CC
:103890000620BDF8063001339BB2ADF8063033B9CF
:1038A0004FF08073E361FFF7DDFF03B030BDFFF73A
:1038B0009DFF0028EDD0F3E720C0092008B51720B0
:1038C000FFF774FF00F0010080F0010008BD072041
:1038D0004021FFF77BBF08B503460A466120194621
:1038E0000123FFF7DBFEC0F3420008BD0021E22008
:1038F0000A460B46FFF7D2BE70B5064600200D46BD
:103900001446FFF753FF16B100F0BF0002E040F08D
:103910004000C0B215B100F0DF0101E040F020012D
:1039200014B101F0EF0101E041F010010020BDE809
:103930007040FFF74BBF10B504460020FFF736FF7D
:1039400014B900F0F7010DE0012C04D100F0FB01E7
:1039500041F0080106E0022C14BF40F0080140F0DD
:103960000C01C9B20020BDE81040FFF72FBF08B519
:103970000020FFF71BFFBDE8084040F00201C9B27C
:103980000020FFF723BF08B50020FFF70FFFBDE8B9
:10399000084000F0FD010020FFF718BF40F6DD13DE
:1039A000984206D840F66213B0F5166F38BF184635
:1039B00000E01846A0F51661C9B20520FFF706BF62
:1039C00010B504460620FFF7F1FEFA2C00F0D701EF
:1039D00002D141F0200104E0B4F5FA6F08BF41F0D4
:1039E00008010620BDE81040FFF7F0BE10B5044600
:1039F0000620FFF7DBFE032C20F0060028BF03247F
:103A000040EA4401C9B20620BDE81040FFF7DEBE1F
:103A1000F9284FF0FA0305D9B0F57A6F88BF4FF453
:103A20007A6000E01846B0FBF3F00F2900F1FF3098
:103A3000C0B228BF0F2141EA0011C9B20420FFF72C
:103A4000C5BE1130C0B2162804D8202928BF2021B5
:103A5000FFF7BCBE7047032804D0042814BF03211D
:103A6000022100E001210320FFF7B0BE03460A4611
:103A7000302019460023FFF711BE03460A462A20CC
:103A800019460023FFF70ABE73B50E4615460446D5
:103A9000FFF72CFFFFF7E6FE2B4B4FF08072DA6149
:103AA000FFF771FF00210A460120FFF725FFFFF70E
:103AB000A4FE0220FFF73FFF3046FFF76FFF2846C6
:103AC000FFF77EFF0320FFF791FF02200321FFF79E
:103AD0007DFE01200021FFF779FE4FF4FA700321EB
:103AE000FFF796FF21460020FFF7ABFF12200021D1
:103AF000FFF76CFE13200021FFF768FE1420002161
:103B0000FFF764FE15200021FFF760FE002116205C
:103B1000FFF75CFE0D4B18681B79009005208DF8AF
:103B20000430FFF798FF68460521FFF79FFF6846BE
:103B30000521FFF7A2FFFFF71AFF4FF4FA6004F028
:103B400012FC02B070BD00BF20C009201C4D020055
:103B500007B5094B002102AA186842F8041D0B465C
:103B600006F055F9019B1BB1044B4FF080521A60CF
:103B700003B05DF804FB00BF9CC3072004ED00E028
:103B800070B5174E326822B90320202106F075F86F
:103B90003060144D2A6822B90120202106F06DF80A
:103BA0002860114C216821B90120032206F065F834
:103BB0002060202040F6C3114FF4FA62FFF764FF43
:103BC000FFF73AFE16200121084A04F0BFFF3068D3
:103BD00028B1286818B12068003018BF012070BDD6
:103BE00098C3072094C307209CC30720513B0100C2
:103BF00070B506460379002203F0C003C02B0CBF4A
:103C00000D4B0E4B88B01D6831462846134606F012
:103C100065F8044660B9224623466946284606F000
:103C200031F9224623462846314606F057F8044625
:103C3000204608B070BD00BF94C3072098C307207A
:103C400038B504460D46FFF70BFA237883420AD0B5
:103C5000E37843B90AF0F6FBBD2300F0030000FB54
:103C6000033004F080FBFFF7DFFDFFF7D1FD2046B6
:103C7000A9B2FFF7FDFDFFF7F1FDFFF7DDFD06F04F
:103C800085FE022806D1044B002118680A460B461F
:103C900006F0BDF8012038BD9CC3072038B50546A5
:103CA0000C46FFF70BFE48B1A1B22846FFF713FE02
:103CB000FFF704FE08B9FFF70AFE012038BD2DE921
:103CC000704306460D46144606F060FE022807D1F2
:103CD000224630462946002306F0D4F8C4B21DE03F
:103CE00007F0EEF94FF47A72002308F055FC10EB60
:103CF000040841F10009002230462946134606F027
:103D0000C1F8C4B254B907F0DBF94FF47A7200235A
:103D100008F042FC894508BF8045ECD22046BDE84A
:103D20007083042938B5054603D1041C18BF01244B
:103D300000E0002407F0C4F92CB14FF47A7200239C
:103D400008F02AFC2860204638BD000000B50C4B66
:103D50008DB009930B4B0C4A0B930C4B0A930CAB95
:103D600043F8102D002204920FCB8DE80F00084B72
:103D70000121084A6A20FFF727FA0DB05DF804FB1D
:103D8000813B01009D3C0100233D0100413C0100BD
:103D9000F13B0100214D020003460A460249086832
:103DA0001946FFF78CBF00BF98C3072003460A4699
:103DB000024908681946FFF782BF00BF94C3072075
:103DC00008B506F0E3FD0F4B02285B6913D15A02D8
:103DD0000DD5FFF72DFC0C4B00284FF000011868A3
:103DE00014BF01224FF0FF320B4606F04BF8BDE83E
:103DF0000840FFF7BBBA5B02F9D5FFF719FC0028B2
:103E0000F5D108BD00C009209CC3072030B5044689
:103E10000D46134621792A46BDE83040006805F07A
:103E200063BB1FB50A4604AB0021022423F8041D1E
:103E300001790094006805F042FB9DF80C009DF8A4
:103E40000D3043EA002004B010BD10B504462A210D
:103E50001922FFF7DBFF206821790D2205F033FBE3
:103E6000A0F12A035842584110BD0000044A1388AB
:103E70001F2B9FBF581C1080024A42F82310704726
:103E8000A4C30720A8C30720144AF0B51488012C46
:103E900020D9134B00211F46661EB14206DA58682E
:103EA0001D680131401B43F8040BF5E77B6803EB09
:103EB0005301002318469CB2B44209DA57F8245043
:103EC00001338D4282BF012505FA04F42043F2E755
:103ED000044B186000231380F0BD00BFA4C307206B
:103EE000A8C30720A0C3072008B50220012107F0BE
:103EF0007FF8084B01209A6A22F007029A629A6AB8
:103F000042F006029A62044AD36843F03003D36059
:103F100008BD00BF0080004000C0024008B5044A50
:103F200001F07F034171D25C0321FFF76FFF08BDF1
:103F3000264D020008B5044A01F07F038171D25C6E
:103F40000221FFF763FF08BD264D020038B5044685
:103F50000068217905F0D3FA054688B1204606218C
:103F60000022FFF753FF204607210022FFF74EFFF4
:103F700020462E21FFF7D2FF20462E21FFF7DAFF41
:103F8000284638BD642370B5B1FBF3F404FB13116C
:103F9000CCB20A21B4FBF1F501FB15413031C9B2B5
:103FA0000646FFF7C7FF092C8ABF05F130013046EE
:103FB0003046BDE8704094BF2021C9B2FFF7AEBFC4
:103FC0000120704738B50D46044606F01BFE05F08B
:103FD0000F032370114B15F0010F4FF0010214BFB6
:103FE000DA619A61227812F0020F4FF0020214BFD8
:103FF000DA619A61227812F0040F4FF0100214BFB8
:10400000DA619A61227812F0080F4FF4807214BFBF
:10401000DA619A61BDE8384006F006BE20C009208A
:1040200001207047022004F02FBA012070470000E1
:10403000044B5B69C3F38130C3F3412343EA80003F
:10404000704700BF20C0092010B50446012181221D
:10405000FFF7DCFE20682179012205F034FA10F028
:10406000600F14BF0120002010BD38B500210546A7
:10407000FFF7D7FE8122012184B22846FFF7C6FE52
:1040800024B2102094FBF0F008F09CF84FF0765129
:1040900008F0ECF8A96807F0E1FF38BD08B5FFF7B4
:1040A000E4FF054908F0E2F8044908F093F94FF0FD
:1040B000844107F0D3FF08BD000010410000A0407C
:1040C0002DE9F04F0546ADF2546D0C46904682A89E
:1040D000294601229946DDF878A602F011F8002859
:1040E00067D121460DF22C400A2202F009F804465D
:1040F00020B182A802F075FA20465AE083460646AF
:104100000090019006F0DCFF4FF47A72002308F073
:1041100043FA02A907464FF4007282A86B4602F0E8
:1041200088F80546D8B9009BCBB106F0C9FF4FF41B
:104130007A720023F61B08F02FFA064406F0C0FF3F
:104140004FF47A72002308F027FA02A90746009A72
:104150000DF22C4001AB02F02AF90546B8B1B8F1D6
:10416000000F01D0C8F80060B9F1000F01D0C9F804
:1041700000B0BAF1000F01D0CAF8004082A802F0E6
:1041800030FA0DF22C4002F02CFA284611E0019A88
:10419000009B9A42E3D106F093FF4FF47A7200231A
:1041A00008F0FAF9009BBBEB070200EB020B1C4482
:1041B000A8E70DF2546DBDE8F08FF0B50446ADF5FB
:1041C0000B7D0F46164621461D4601A800230122FD
:1041D000009301F095FF044670B91DB101A829466E
:1041E00002F011FA01A8394632466B4602F021F876
:1041F000044601A802F0F5F920460DF50B7DF0BD4F
:10420000F0B50446ADF50B7D0F46164621461D461A
:1042100001A800230A22009301F072FF044670B93E
:104220001DB101A8294602F0EEF901A8394632462F
:104230006B4602F0BCF8044601A802F0D2F9204611
:104240000DF50B7DF0BDF0B50446ADF50B7D0F46C9
:10425000164621461D4601A800231222009301F0B4
:104260004FFF044680B901A80DB1294600E004992A
:1042700002F0C9F901A8394632466B4602F097F8B8
:10428000044601A802F0ADF920460DF50B7DF0BD06
:104290007F2816D931B1FF2812D80A4B803833F85D
:1042A00010007047074A8BB232F81120824203D0C7
:1042B00001318029F6D10B4603F18000C0B270476E
:1042C00000207047864F02000023064A32F8132070
:1042D00032B1904201D00133F7E7034A32F81300BC
:1042E000704700BF86500200A64D020010B50120A5
:1042F0000C4605F066FD2060003018BF012010BD9F
:104300000120704710B5044606F040FB02280AD190
:1043100000210B4620464FF0FF3205F0B3FD431E4F
:104320005842584110BD012010BD10B5044606F09A
:104330002DFB022807D100212046BDE810400A4687
:104340000B4605F0CBBC10BD10B5044604F082FE50
:1043500024B1012C06D100F07BF901E000F0EEFC65
:10436000044600E0042404F08DFE204610BD28B170
:10437000012801D00420704700F018BA7047F8B542
:1043800007460E4615461C4604F064FE3FB1012F59
:104390000CD130462946224600F010FA04E030469F
:1043A0002946224600F016FD044600E0042404F0ED
:1043B00069FE2046F8BDF8B507460E4615461C4670
:1043C00004F048FE3FB1012F0CD130462946224669
:1043D00000F042FA04E030462946224600F020FD73
:1043E000044600E0042404F04DFE2046F8BD70B5FC
:1043F00006460D46144604F02DFE36B1012E0AD1B4
:104400002846214600F082FA03E02846214600F0C3
:104410002BFD044600E0042404F034FE204670BD69
:1044200008B506F04DFE4FF47A72002308F0B4F898
:1044300008BD000010B5044606F0BAFF074BB0FBFC
:10444000F3F00223B0FBF3F2944202D3044A136167
:1044500010BDB3F5807FF9D00233F3E740420F007F
:1044600000000340044B9860DA68D206FCD4024B8B
:104470009868C0B2704700BF0000034038B5FFF72E
:10448000CFFF00F5FA75FF20FFF7ECFFFF20FFF7E5
:10449000E9FFFF28044606D0FFF7C2FF0023994238
:1044A00008BFA842F2D3204638BD000038B5064CFC
:1044B0004FF00075E561FFF7E1FF044AA56113784D
:1044C00043F00103137038BD20C0092006C0072047
:1044D00070B505460E46FFF7A3FF00F16404FF2008
:1044E000FFF7C0FFFF2808D1FFF79AFF002399428A
:1044F00008BFA042F3D3002070BDFE28FBD1102ED0
:1045000006D928464FF40071002204F041FD19E05D
:104510002C1DFF20FFF7A6FF04F8040CFF20FFF777
:10452000A1FF04F8030CFF20FFF79CFF04F8020C26
:10453000FF20FFF797FF043404F8050C331D1B1B05
:10454000DD42E6D1FF20FFF78DFFFF20FFF78AFF56
:10455000012070BD70B506460D46FFF78FFFFF289E
:10456000044619D12846FFF77DFFFD2D16D04FF4E4
:1045700000712246304604F00BFD2046FFF772FF23
:104580002046FFF76FFF2046FFF76CFF00F01F008B
:10459000431F5842584170BD002070BD012070BDBE
:1045A000020638B504460D4607D577200021FFF7EF
:1045B000F7FF012836D804F07F041B4B4FF0007240
:1045C0009A61DA61FFF75AFFFF282AD12046FFF7E8
:1045D00049FF280EFFF746FFC5F30740FFF742FFEC
:1045E000C5F30720FFF73EFFE8B2FFF73BFF402C83
:1045F00004D0482C0CBF8720012000E09520FFF755
:1046000031FF4C2C02D1FF20FFF72CFF0A24FF20A2
:10461000FFF728FF030605D5013C14F0FF04F6D18F
:1046200038BDFF2038BD00BF20C00920064A074919
:1046300013784969DBB2490154BF03F0FD0343F02D
:1046400003031370704700BF06C0072020C0092075
:104650002DE9F347FFF7EAFF514B1A781E4612F097
:10466000020F01D0187896E00120FFF7E3FE0A243C
:10467000FF20013CFFF7F6FE14F0FF04F8D1494D8E
:104680004FF00073EB6140202146FFF789FF0128BE
:1046900001D000246EE0FFF7C3FE4FF4D57100F5A2
:1046A0007A7A4820FFF77CFF01283DD1FF20FFF7F1
:1046B000D9FE01AF38550134042CF7D19DF80630EE
:1046C000012BE6D19DF80730AA2BE2D1FFF7A8FE17
:1046D0004FF00009494508BF5045D04606D3FFF7C3
:1046E0009FFE494508BF4045D3D207E0E9204FF07F
:1046F0008041FFF755FF0028E8D1F0E77A2000213C
:10470000FFF74EFF0028C4D10446FF20FFF7AAFEA2
:1047100038550134042CF8D19DF8043013F0400FC3
:1047200014BF0C24042425E02146E920FFF738FFBC
:10473000022835BF02240124E9274127FFF770FE34
:104740004FF00009494508BF5045D0460BD3FFF74D
:1047500067FE494508BF40450CD34FF40071502017
:10476000FFF71EFF06E038460021FFF719FF00287B
:10477000E4D1ECE70C4B1C704FF00073AB613CB123
:104780003378182003F0FE033370FFF753FE01E087
:10479000FFF78CFE3078C0B202B0BDE8F08700BFF2
:1047A00006C0072020C0092028C4072008B5FFF74D
:1047B0003DFF014B187808BD06C00720F8B5144628
:1047C00007460E46FFF732FF002C3AD01F4B1B78EE
:1047D000DB0738D41E4B4FF00072DA611D4A1D46CC
:1047E000127812F0080F08BF7602012C0DD151206B
:1047F0003146FFF7D5FEE8B938464FF40071FFF7B0
:1048000067FEB0FA80F4640914E052203146FFF7E5
:10481000C7FE78B938464FF40071FFF759FE28B14A
:10482000013C14F0FF0407F50077F3D14C20002180
:10483000FFF7B6FE4FF00073201CAB6118BF0120DC
:10484000F8BD0420F8BD0320F8BD00BF06C0072056
:1048500020C0092028C40720F8B5144607460E4694
:10486000FFF7E4FE002C45D0254B1A78D20743D43D
:104870001B785B0742D4234B4FF00072DA61224A67
:104880001D46127812F0080F08BF7602012C0CD1D9
:1048900058203146FFF784FE28BB3846FE21FFF73B
:1048A00059FEB0FA80F464091DE012F0060F03D03F
:1048B000D7202146FFF774FE59203146FFF770FEDE
:1048C00088B93846FC21FFF745FE28B1013C14F0B9
:1048D000FF0407F50077F4D10020FD21FFF73AFE31
:1048E000002808BF01244FF00073201CAB6118BFE3
:1048F0000120F8BD0420F8BD0320F8BD0220F8BD5A
:1049000006C0072020C0092028C407207FB5044620
:104910000D46FFF78BFE052C1AD12B78012B00F0EA
:10492000FD8003D3022B0BD00420FAE07E4B5869A4
:1049300010F0806440F0F280FFF7B8FD2046F0E010
:10494000794B5B6983F08063C3F380636B70E5E050
:10495000764B1B78DB0700F1E3800E2C00F2D88049
:10496000DFE804F008124F53D6D6D6D6D6D6A3A881
:10497000AAB4C4006C4B4FF00072DA61FFF77EFD01
:10498000FF3818BF0120C4E049200021FFF708FECE
:10499000044608B10120BCE068461021FFF798FDED
:1049A0000028F7D09DF800309DF809009B09012BE5
:1049B0009DF8083005D1013000EB03239BB29B0228
:1049C0001CE09DF80710890001EB93135A1C9DF819
:1049D00006309DF8051003F0030302EB83239DF8D6
:1049E0000A2001F00F0101EBD212911C00F003022A
:1049F00001EB4202D2B29BB2093A93402B602046AF
:104A000087E04FF400732B8052E0494E337803F077
:104A1000040303F0FF01DBB1CD200021FFF7C0FD4F
:104A20000028B7D1FF20FFF71DFD68461021FFF7D2
:104A30004FFD0028AED03024FF20FFF713FD601E8D
:104A400010F0FF04F8D19DF80A2010231209D4E7D2
:104A50004920FFF7A5FD044600289BD16846102198
:104A6000FFF736FD002895D031789DF80A2001F037
:104A7000020101F0FF009DF80B3051B102F03F023E
:104A8000DB0903EB42039DF80D2001339209013A43
:104A9000B3E7C2F3840103F003045A0902EBC40232
:104AA000531C01FB03332B6033E0214B1B782B702D
:104AB00000202EE0492000E04A200021FFF770FD91
:104AC00000287FF467AF284610211BE07A200021E0
:104AD000FFF766FD00287FF45DAF2C1DFF20FFF778
:104AE000C1FC05F8010BA542F8D1E1E7CD2000217A
:104AF000FFF756FD00287FF44DAFFF20FFF7B2FC13
:104B000028464021FFF7E4FCB0FA80F0400900E0BD
:104B10000420054B4FF000729A6102E0002000E093
:104B2000032004B070BD00BF20C0092006C00720CC
:104B300028C40720054B1B78253BDBB2032B9ABF0B
:104B4000034A52F823000020704700BF2CC40720FE
:104B5000705202001B4B2DE9F0411D880646B5F549
:104B6000007F0F46144602D1084611460AE0B5F50B
:104B7000807F09D1084611462A46B04707F5807064
:104B800004F580712A4617E0B5F5047F05D1510A76
:104B9000384689024FF400720EE0B5F5847F0FD1DC
:104BA000140A08464FF480726102B047611C07F591
:104BB000807049024FF480723346BDE8F0411847D7
:104BC000BDE8F0812AC40720034610B500295DDD49
:104BD00007291A782E4C2FDDA2605A780839A26076
:104BE0009A78A260DA78A2601A79A2605A79A260F3
:104BF0009A79A26003F10802DB79A360244B9C69D7
:104C00006407FBD59C6804709C6844709C68847041
:104C10009B68C3701E4BDC68E406FBD49C680830BC
:104C200000F8044C9C6800F8034C9C6800F8024CA7
:104C30009B6800F8013C1BE003291BDDA2605A7849
:104C40000439A2609A78A2601A1DDB78A360104B29
:104C5000DC68E406FBD49C68043000F8044C9C68D3
:104C600000F8034C9C6800F8024C9B6800F8013C7B
:104C70001346ABE70133A2600139E268D206FCD4E7
:104C8000034A0130926800F8012C9FE710BD00BF75
:104C90000000034007B50B0C8DF804008DF80530BB
:104CA0008DF807100B0A01A804218DF80630FFF7D4
:104CB0008BFF03B05DF804FBF7B5164607460E4CB4
:104CC00040250323E5618DF804300B0C8DF8053089
:104CD0008DF807100B0A01A804218DF80630FFF7A4
:104CE00073FF38463146002204F052F9A561A561F0
:104CF000A56103B0F0BD00BF00C009200D4B4022EC
:104D0000DA610D4BD7229A60DA68D106FCD40A4BDF
:104D10009B68094BFF229A60DA68D206FCD4064BE6
:104D200098680306F5D5034B40229A61C0B29A6198
:104D30009A61704700C0092000000340F7B5FFF7F3
:104D4000DDFF1F4C002323801E4B1F4E40271A8877
:104D50009B78F7610546032101A8ADF804208DF882
:104D60000630FFF731FF9DF805209DF806301F2A19
:104D7000B761B761B7611CD1A3F12502032A18D826
:104D8000124A252B137005F0010006D1002814BF2C
:104D90004FF480734FF4847305E0002814BF4FF480
:104DA00000734FF404732380FFF7C4FE084B400ADE
:104DB00018602088B0FA80F0400903B0F0BD00BF51
:104DC0002AC407206652020000C009202CC4072014
:104DD00030C407202DE9F0418B1817460E4A013BDD
:104DE00012688046934214D84D024446FFF786FF6E
:104DF0000026C8EB0502BE42224407DA21460748D6
:104E0000FFF7A8FE04F500740136F2E70020BDE8C4
:104E1000F0810120BDE8F08130C40720B94C0100C9
:104E20002DE9F0418B1817460D4A013B1268804668
:104E3000934212D804464D020026C8EB0502BE423A
:104E4000224407DA21460748FFF784FE04F5007480
:104E50000136F2E70020BDE8F0810120BDE8F081D5
:104E600030C40720494F010010B50C46072805D86B
:104E7000DFE800F006090E1214141414042010BD0B
:104E8000FFF73CFF0AE0FFF755FE400A206005E00F
:104E90004FF400730B8001E001230B60002010BD74
:104EA00070B590B003466A466E4600F14005144660
:104EB00018685968083303C4AB422246F7D1084D3D
:104EC0004024EC619B200021FFF7E4FE30462146A0
:104ED000FFF77AFEAC61AC61AC6110B070BD00BF91
:104EE00000C0092070B50646074D402477200021F8
:104EF000EC61FFF7CFFE30462146FFF765FEAC615F
:104F0000AC61AC6170BD00BF00C00920064B10B59C
:104F10001C8834F01F0404D0FFF70CFEB0FBF4F043
:104F200010BD204610BD00BF2AC40720014B1888C1
:104F3000704700BF2AC40720024B1878003018BF02
:104F4000012070472AC407202DE9F7434FF0FF33B3
:104F50000F46904601938146FFF7D0FEFFF7ECFF26
:104F60000646B0B1194C4025194BE5611B8803205A
:104F7000B3F5847F0CBF4FF480714FF40071394357
:104F8000FFF788FE01A80421FFF71EFEA561A561B9
:104F9000A5610E4C402382203946E361FFF77AFE7B
:104FA00048464146012203F0F3FF3EB1019B02A8AF
:104FB000013340F8043D0421FFF706FE4023A361BE
:104FC000A361A36103B0BDE8F08300BF00C0092066
:104FD0002AC40720F7B5124B07461B88B3F5847F18
:104FE0004FF0FF330CBF4FF480764FF400760193FF
:104FF000FFF7A2FF70B10B4C4025032046EA472182
:10500000E561FFF747FE01A80421FFF7DDFDA5617B
:10501000A561A5610198431C08BF002003B0F0BD45
:105020002AC4072000C0092037B5074B074C186871
:10503000402501900421E56101A8FFF7C5FDA561A8
:10504000A561A56103B030BD6952020000C009200E
:105050001FB501A803F0C0FE9DF809309DF8082097
:1050600003F00F0302F01F025B0543EA02419DF8C3
:1050700006309DF8040003F01F0341EAC3229DF8A7
:105080000530C0F3440003F03F0342EA4313BDF888
:105090000A201843520602F10842104305B05DF899
:1050A00004FB30B504460D1F131B0344032B04D926
:1050B00055F8043F44F8043BF6E722F00303194493
:1050C00002F00302013B18440A44914204D011F853
:1050D000013B00F8013FF8E730BD0244904202D0A6
:1050E00000F8011BFAE7704700F10B010023DA0119
:1050F00042EA530310F8012B1344884203F0FF03E4
:10510000F5D118467047026810B50446BAB1134687
:10511000184613F8011B1F2902D93A29F8D101E0DA
:10512000002010BD114611F8013B884207D1303BE9
:10513000D9B2012903D802321846226010BD4FF0BF
:10514000FF3010BD03692DE9F04101F109020D4660
:1051500053B3416900244E1E16F8013F0134202B41
:1051600018D0052B47D0092C02D12E2717700132F9
:10517000A3F14107192F0BD8082C0F7B8CBF4FF0E0
:10518000100E4FF0080E1EEA070F1CBF2033DBB2D3
:10519000137001320B2CDFD1CB7A2B72CB692B60D1
:1051A0000B8BAB80CB8AEB8000241470AE693EB3CE
:1051B00003690BB900241AE0EB69002BFAD04FF613
:1051C000FF73028C9A42F5D0D0F81C80771E38F815
:1051D000140060B10021FFF75BF80028EAD0EB690A
:1051E000013B9C42E6D2013407F8010FEFE70023B0
:1051F0003355BDE8F081092C4FF0E503C8D1B4E781
:10520000BDE8F081F8B5037904460BB90020F8BD7C
:10521000056B00F13407394640782A460123FFF731
:10522000CAF890B9636AE269EB1A93422071EDD231
:10523000E678012EEAD9E36960781D4439462A46AA
:105240000123FFF7B8F8013EF3E70120F8BD0000A5
:10525000F8B50446FFF7D6FF05468DBB2378032B30
:1052600026D16679012E23D104F134073846294628
:105270004FF40072FFF731FF4AF65523A4F832329B
:10528000104B226A636303F1FF5303F5005320338D
:10529000C4F8183263690132C4F81C3223692263EE
:1052A000C4F82032607839463346FFF784F86571D8
:1052B000002160780A46FFF79AF8003018BF0120F5
:1052C000F8BD00BF52526141036B70B5994205466B
:1052D0000E4610D0FFF796FF044608B101240BE0FC
:1052E000687805F1340132460123FFF748F80028B9
:1052F000F4D12E6300E00024204670BD002310B5D9
:1053000003714FF0FF3303630446FFF7DDFFA0B9DD
:105310004AF65523B4F832229A4210D1D4F86A30B2
:10532000084A23F07F4393420AD0D4F8860020F045
:105330007F40801A18BF012010BD032010BD02203D
:1053400010BD00BF46415400F0B50023036085B096
:10535000074608461546FFF7D6FE061EC0F2F28045
:105360007E4B53F82640002C00F0EE80E068FEF7FC
:10537000C9FF002800F0EA803C60237883B16078A0
:10538000FEF7F5FFC1070BD4002D00F0D98000F027
:10539000040303F0FF00002B00F0DD800A20DAE0B8
:1053A0000023F0B223706070FEF7CEFFC20700F159
:1053B000CF800DB14307F1D420460021FFF79EFFB7
:1053C00001281CD12146002291F8F6310BB1D1F809
:1053D000FA314DF822300132042A01F11001F3D1E3
:1053E00000265DF826502DB120462946FFF786FF9E
:1053F00008B90BE002200136042EF2D100E00025AE
:10540000032800F0A78008B10D20A4E0B4F83F30D5
:10541000B3F5007FF8D1B4F84A0000B9A06D94F854
:1054200044E0E0610EF1FF33012B84F803E0EBD898
:1054300094F84130A370002BE6D05A1E1A42E3D1F3
:10544000B4F845C01CF00F0FA4F808C0DCD1B4F8C4
:10545000472002B9626DB4F842100029D4D00EFB87
:1054600000FE01EB1C177744BA42CDD3D21BB2FB2E
:10547000F3F3002BC8D040F6F572934206D94FF6ED
:10548000F576B3428CBF0326022600E001260233E4
:1054900029442F44032EA36125626162E76206D18D
:1054A000BCF1000FB0D1226E9B00A26210E0BCF1F3
:1054B000000FA9D0022E4FEA43020CBF1346D218A8
:1054C000714418BF03F00103A16218BF03EB52033C
:1054D00003F2FF13B0EB532F96D34FF0FF3363610A
:1054E0002361032E4FF08003637122D1B4F864303E
:1054F000012B1ED12046691CFFF7E6FEC8B94AF60B
:105500005523B4F8322260719A4212D1626B144B67
:105510009A420ED103F1FF53D4F8182203F5005339
:1055200020339A4201BFD4F81C326361D4F8203290
:1055300023610C4A2670138801339BB21380E380E9
:10554000002008E00B2006E00C2004E00F2002E021
:10555000032000E0012005B0F0BD00BF38C40720E3
:105560005252614134C4072010B50446A8B1036803
:105570009BB11A788AB1D988828891420DD1D868B6
:10558000FEF7C0FE58B123685878FEF7F0FE10F021
:10559000010F14BF0320002010BD092010BD0F20F3
:1055A00010BD50B1A1F10B03012B06D9092904D07C
:1055B0000F2902D0C068FEF7B8BE70478369023970
:1055C000023B99423DBF8278C36A02FB0130002052
:1055D00070470129F8B507460C464BD983699942B3
:1055E00048D20378022B29D0032B34D0012B41D190
:1055F00001EB5106416A01EB5621FFF765FE10B140
:105600004FF0FF30F8BD796AC6F3080301363B441A
:10561000384601EB562193F83450FFF755FE002829
:10562000EED1C6F308063E4496F83400E30745EA97
:1056300000204CBF0009C0F30B00F8BD416A01EB2C
:105640001421FFF741FE0028DAD1630003F4FF7351
:10565000FE18B08EF8BD416A01EBD411FFF734FE9D
:105660000028CDD1A40004F4FE743C44606B20F00B
:105670007040F8BD0120F8BDF8B5054684680E46B7
:10568000012CE98001D10220F8BD03689A69944297
:10569000F9D254B91A78032A01D19A6A22B91A891F
:1056A0009642F0D2986A17E0144621469F783F014F
:1056B000BE420DD32868FFF78CFF431C01461AD069
:1056C0000128E0D92B689B699842DCD2F61BEFE7F2
:1056D00028680C46FFF772FFEC600028D3D02B68D7
:1056E00000EB161006F00F0603EB46163436286161
:1056F0006E610020F8BD0120F8BD0129F8B505460E
:105700000C4616465FD9836999425CD20378022B16
:1057100038D0032B42D0012B51D101EB5107416A04
:1057200001EB5721FFF7D0FD002849D1C7F308034B
:1057300014F001042B4418BF93F83410F2B21EBFCA
:1057400001F00F0141EA0212D2B2696A83F83420F3
:10575000013701232B71284601EB5721FFF7B4FDD8
:1057600070BBC7F308072F4414B1C6F3071606E051
:1057700097F83430C6F3032623F00F031E4387F84F
:1057800034601DE0416A01EB1421FFF79DFDB8B9BB
:10579000640004F4FF742C44A68611E0416A01EB16
:1057A000D411FFF791FD58B9A40004F4FE7430340D
:1057B0002C44636803F070431E43666000E00220DF
:1057C00001232B71F8BD0220F8BDF8B505460F4640
:1057D00031B9066996B183699E4228BF01260EE061
:1057E000FFF7F7FE01283FD9441C02D14FF0FF30EC
:1057F000F8BDAB69984238D33E4600E001263446F6
:10580000AB6901349C4204D3012E01D80020F8BDBD
:10581000022428462146FFF7DCFE30B1411C24D08B
:10582000012822D0B442EBD1F0E7284621466FF0A0
:105830007042FFF762FFA8B957B96B692C615A1C17
:105840000ED0013B6B616B7943F001036B7107E094
:10585000284639462246FFF750FF0028EDD001E0E8
:105860002046F8BD0128C1D00120F8BD2DE9F8433C
:10587000C68804460136B3B20F4613B90420BDE80A
:10588000F8830369002BF9D016F00F0859D1C168CD
:1058900001330361006819B903899E42EED250E0DA
:1058A0008378013B13EA16134BD1FFF792FE0128D0
:1058B000054602D80220BDE8F883421C02D101202F
:1058C000BDE8F883206883699D4234D3002FD5D08A
:1058D000E168FFF77AFF054600283BD00128E9D0B0
:1058E000431CECD02068FFF78DFC07460028E6D16A
:1058F0002068394634304FF40072FFF7EEFBD4F8DD
:10590000009029464846FFF759FEC9F83000236841
:105910009A7897420CD201221A712068FFF772FC24
:105920000028CCD122680137136B01331363EEE7F3
:105930001A6BD71B1F63E56020682946FFF73EFE00
:1059400020612368E68003EB481334336361002051
:10595000BDE8F8830720BDE8F88300002DE9F74F84
:1059600000210646FFF788FE002840F087804FF6AA
:10597000FF734FF0FF084446338430683169FFF706
:10598000A3FC00287AD175692B78002B6DD0E52B0C
:10599000E97A5FD00F0701F03F0202D50F2A59D1F3
:1059A00001E00F2A42D1D6F81C90B9F1000F55D072
:1059B000580606D503F0BF04F38895F80D803384AC
:1059C00001E0A34249D16B7B434546D12F784FF08C
:1059D000000A27F040077B1E0D275F430123294A59
:1059E0001AF80220A85A83B1FEF76EFC7F2F0190AF
:1059F00033D839F81700FEF767FC019A07F1010B5D
:105A00008242034629D15F4603E04FF6FF7290427F
:105A100023D10AF1010ABAF10D0FE0D12A7851061B
:105A200029D543B339F817302BB316E024B92846EB
:105A3000FFF75AFB80451AD0B369DA7AD20709D446
:105A400005F10B00854214D015F8011B13F8012B4A
:105A50009142F7D04FF6FF733384FF243046002184
:105A6000FFF704FF002888D008E0042006E0204665
:105A700004E0002002E0013CE4B2EFE703B0BDE83F
:105A8000F08F00BF705302002DE9F74F0B780746E7
:105A90002F2B884601D05C2B01D108F1010800248E
:105AA000BC6098F800301F2B5DD838462146FFF7C0
:105AB000E3FD7C610CE1013339F81320202AFAD090
:105AC0002E2AF8D00BB144F00304524632F8021DDE
:105AD0002E2901D0013DF9D14FF0000B5E464FF069
